:100000000C9422030C9469030C9469030C94690307
:100010000C9469030C9469030C9469030C946903B0
:100020000C9469030C9469030C9481240C9453255B
:100030000C94821E0C9469030C9469030C9469035C
:100040000C9469030C94D4030C9469030C94690315
:100050000C94F9030C94EA1E0C9469030C94690344
:100060000C9469030C9469030C9469030C94690360
:100070000C9469030C9469030C9469030C94690350
:100080000C9469030C9469030C9469030C94690340
:100090000C9469030C9469030C9469030C94690330
:1000A0000C9469030C9469030C9469034C054E0588
:1000B0005905500552055405560558055B055D0563
:1000C0005F056A05610563056505670569056C05DA
:1000D0005314531485148514C51436163616361663
:1000E000E51436169215921502160B1636162F16B3
:1000F0009F159F159F159F159F159F159F159F1560
:100100009F159F159F159F159F159F159F159F154F
:10011000AE15BC15C315CA15D415C116C116D31614
:10012000D316CA16D316D316D316C116C116CF16B8
:10013000D316D316CF16C025E725D926E725D9260D
:1001400033265626D926AC26BB26165C14001A0088
:100150000800150017001C0018000C001200130006
:100160002B0004001600070009000A000B000D0018
:100170000E000F002800E1001D001B000600190002
:100180000500110010003600370002510000E000A9
:10019000E20000002C412C420000E600E4000000D8
:1001A0002A0035001E001F0020002100220023002D
:1001B00024002500260027000100000000000000A8
:1001C0000000000000002F00300031002800010076
:1001D00000000000000000002D002E003800330059
:1001E00034000100000001000100000001000100D6
:1001F00000000100010000004C003A003B003C0000
:100200003D003E003F0040004100420043004400EA
:100210002B045000510052004F000000000000006D
:100220004A004D00280001005000510052004F00CC
:1002300046024B084E084B004E0001000000010032
:1002400001000000135014500000010001000000E4
:100250004500000000000000000000000000000059
:10026000000000000000000000000000000000008E
:10027000000000000000000000000000000000007E
:10028000C25CC55CC65CC75CC85CC95CCA5CC35C5C
:10029000C45C0353000001000100000001000100E4
:1002A00000000100010000000000290014001A00F5
:1002B0000800150017001C0018000C0012001300A5
:1002C0002B0004001600070009000A000B000D00B7
:1002D0000E000F002800E1001D001B0006001900A1
:1002E0000500110010003600370004530000000024
:1002F00000000000E0002C000000000000000000F2
:100300002A0000047F3F1F643214643214783C1EBC
:100310001E140A052223252628292A2C2D2F3032A7
:10032000333536383A3B3D3E4042434547494A4CD7
:100330004E5051535557595A5C5E60626466686905
:100340006B6D6F71737577797B7D7F81838587890D
:100350008A8C8E90929496989A9C9E9FA1A3A5A712
:10036000A8AAACAEAFB1B3B4B6B8B9BBBCBEBFC13E
:10037000C2C3C5C6C7C9CACBCCCDCED0D1D2D2D3C9
:10038000D4D5D6D7D7D8D9D9DADADBDBDBDCDCDCDD
:10039000DCDCDDDDDDDDDCDCDCDCDCDBDBDBDADAA0
:1003A000D9D9D8D7D7D6D5D4D3D2D2D1D0CECDCC17
:1003B000CBCAC9C7C6C5C3C2C1BFBEBCBBB9B8B62C
:1003C000B4B3B1AFAEACAAA8A7A5A3A19F9E9C9AB7
:1003D00098969492908E8C8A89878583817F7D7B85
:1003E00079777573716F6D6B6968666462605E5C66
:1003F0005A5957555351504E4C4A4947454342402C
:100400003E3D3B3A3836353332302F2D2C2A2928C1
:1004100026252322FFAA7F5540000000000000008F
:1004200000000001010101010101010102020202BB
:10043000020202020303030303030304040404048B
:100440000505050505060606060607070707080849
:1004500008080909090A0A0A0B0B0B0C0C0C0D0DF4
:100460000D0E0E0E0F0F1010101111121213131487
:1004700014151516161717181819191A1A1B1C1CFB
:100480001D1D1E1F1F202121222323242525262751
:100490002828292A2B2C2C2D2E2F30313132333481
:1004A00035363738393A3B3C3D3E3F404142434484
:1004B00045464748494B4C4D4E4F50525354555763
:1004C00058595A5C5D5E606163646567686A6B6C0D
:1004D0006E6F7172747677797A7C7D7F8182848683
:1004E00087898B8D8E9092949597999B9D9FA1A2C1
:1004F000A4A6A8AAACAEB0B2B4B6B9BBBDBFC1C3C6
:10050000C5C8CACCCED0D3D5D7DADCDEE1E3E6E885
:10051000EAEDEFF2F4F7F9FCFF0403300000000C01
:100520000344006100690073007900000012034B6E
:10053000002E0054002E0045002E0043002E000027
:10054000000403090409023B00020100A0FA0904A7
:1005500000000103010100092111010001224000F6
:100560000705810308000A090401000103000000D7
:100570000921110100012271000705820320000AF0
:1005800012011001000000080912282301050102D0
:10059000030105010980A10185031601002603005E
:1005A0001A81002A8300751095018100C0050C098D
:1005B00001A1018504160100269C021A01002A9C53
:1005C00002751095018100C005010906A10185058C
:1005D000050719E029E71500250195087501810235
:1005E0000508190129059505750191029501750305
:1005F00091010507190029EF1500250195F07501F6
:100600008102C005010906A101050719E029E715C6
:100610000025019508750181029501750881010584
:100620000819012905950575019102950175039138
:10063000010507190029FF150026FF00950675081A
:100640008100C00011241FBECFEFDAE0DEBFCDBFB6
:1006500004B603FE27C080915D0290915E02A091D6
:100660005F02B09160028730904BA740B04BD1F44D
:1006700010925D0210925E0210925F021092600270
:1006800014BE84B7877F84BF0FB6F894A895809175
:100690006000886180936000109260000FBEEEE3FE
:1006A000F6E3099511E0A0E0B1E0ECEBFFE402C055
:1006B00005900D92A035B107D9F722E0A0E5B1E091
:1006C00001C01D92AD35B207E1F70E94A3210C9441
:1006D000DC270C94000081FF02C03E9A01C03E98C6
:1006E00046980C94BB0481E0089581E008950C9431
:1006F00075031F93CF93DF9300D000D01F92CDB727
:10070000DEB749835A832091830189819A8121111F
:1007100012C0662349F00E94E61B182F682F8981BA
:100720009A810E948B1B03C00E94BA1B182F6981FB
:100730007A81812F04C00E94E61B69817A810F9023
:100740000F900F900F900F90DF91CF911F910C940D
:10075000DA06FC01408151816281738184810C94AD
:1007600079030C948B09E82FE295EF70F0E032A149
:10077000282F2F7081E090E001C0880F2A95EAF7BA
:100780008095832382A30895E82FE295EF70F0E02F
:1007900032A1282F2F7081E090E001C0880F2A95A8
:1007A000EAF7832B82A308951F920F920FB60F9240
:1007B00011242F933F934F935F936F937F938F9366
:1007C0009F93AF93BF93EF93FF9380E90E94C4037D
:1007D000FF91EF91BF91AF919F918F917F916F9119
:1007E0005F914F913F912F910F900FBE0F901F90EF
:1007F00018951F920F920FB60F9211242F933F93CB
:100800004F935F936F937F938F939F93AF93BF9318
:10081000EF93FF93809188009091890081309140FF
:1008200018F080E90E94B303FF91EF91BF91AF915F
:100830009F918F917F916F915F914F913F912F91F8
:100840000F900FBE0F901F901895CF92DF92EF92EE
:10085000FF92CF93C82F8730B0F4811115C08091DB
:10086000880090918900892BF9F080916F008D7F2D
:1008700080936F0080916F008E7F80936F0080E97E
:100880000E94C40311C0C6E0809188009091890045
:10089000892B51F480916F00826080936F0080916A
:1008A0006F00816080936F002C2F30E0AFEFBFEFBF
:1008B0000E946D2726E030E040E050E00E9445278E
:1008C0002C3784E138074105510530F4C90169E04E
:1008D00070E00E941D2729C0DA01C9018A50974D96
:1008E000AF4FBF4F6627782F892F9A2F25EF38E219
:1008F00041E050E00E94452769017A01CA01B9012F
:100900000E940D279B01AC01C701B6010E940D2773
:10091000BB27A92F982F872F009721E0A207B105A9
:1009200011F0BC0102C06FEF7FEF709389006093FC
:100930008800CF91FF90EF90DF90CF900895509A6C
:1009400080E90E94B30382E08093800089E1809374
:1009500081008FEF9FEF90938700809386000C9427
:100960004D1F0E94161D811102C00E94991D0E94F8
:100970009F040C94880908950C946B0308950E94B9
:10098000B1160E94BE042FEF84E39CE0215080400A
:100990009040E1F700C000000C94101F0F931F93CC
:1009A000CF93DF938C010E94A903EC01B8010E9450
:1009B0007703882309F4F4C1B801CE010E94EC103A
:1009C000882309F4EDC1CA3CFCE5DF0741F4F801D6
:1009D0008281882309F4E4C10E94740DE1C1CB3CFB
:1009E0008CE5D80708F00FC1C33C9CE5D90761F43A
:1009F000F8018281882309F4D3C10E94661C8272A7
:100A0000E1F00E94600FCCC1C43CECE5DE07C0F011
:100A1000C63C9CE5D90709F4C7C008F0D9C0C43C5E
:100A2000FCE5DF0709F0C8C0F8018281882309F4DA
:100A3000B7C10E94661C827221F30E94530FB0C19D
:100A4000C531FCE5DF0708F078C0C2308CE5D80777
:100A500008F452C0F8018281882309F454C00E942E
:100A6000161D811102C00E94991D0E94291D90E04F
:100A700090934E0280934D02FE01E350FC45E2311B
:100A8000F10530F4EA5AFF4F80914D020C9467272C
:100A900080914D02816027C0826025C0846023C0A0
:100AA000806121C080621FC080641DC080681BC03F
:100AB0008460886018C08E7F16C08D7F14C08B7FC5
:100AC00012C08F7E10C08F7D0EC08F7B0CC08F77C1
:100AD0000AC08B7F877F07C087FB222720F991E020
:100AE000922790FB87F980934D0280914D020E94DE
:100AF0002D1D0E94B11654C1C1159CE5D90751F0B6
:100B0000C130DC4579F0C801DF91CF911F910F9181
:100B10000C947303F8018281882309F441C10E9477
:100B2000BF043EC1F8018281882309F439C1809154
:100B3000070281608093070233C1C631FCE5DF07FD
:100B400039F50E94661C282FF801828140910E0120
:100B500050910F01882379F02A7A91E009F490E00E
:100B600090935001911102C069E201C065E3CA018E
:100B70000E94001E0AC080915001811102C069E2EA
:100B800001C065E3CA010E940B1E0E94B21C08C18D
:100B9000C23CDC4509F0B7CFF8018281882309F413
:100BA000FFC00E946E0FFCC0F8018281882309F407
:100BB000F7C00E94380DF4C0C53CDC4509F0A3CF56
:100BC000F8018281882309F4EBC00E942B0DE8C054
:100BD000F8018281C83CFCE5DF0731F4882309F481
:100BE000DFC00E94560DDCC0C93CDC4530F48823D0
:100BF00009F4D6C00E94470DD3C0882309F4D0C0A1
:100C00000E94650DCDC0C13DECE5DE0791F4F80111
:100C10008281882309F4C4C00E94AF0B8F3028F072
:100C20000E94AF0B843108F408CF8FE00E94630F5D
:100C3000B7C0C23DFCE5DF0708F05AC0CD3C8CE5EB
:100C4000D80739F4F8018281882309F4A9C081E02A
:100C5000EDCFCE3C9CE5D907C0F4CB3CECE5DE07FC
:100C600041F4F8018281882309F49AC00E94B70BED
:100C700097C0CC3CDC4509F046CFF801828188233F
:100C800009F48EC00E94C80B8BC0F8018281CF3C52
:100C9000FCE5DF0771F4882309F482C00E94AF0BE2
:100CA000863028F00E94AF0B883008F4C6CE86E06C
:100CB000BDCFC03DDC4570F4882309F471C00E94AB
:100CC000AF0B823028F00E94AF0B853008F4B5CE10
:100CD00082E0ACCF882309F463C00E94AF0B893057
:100CE00028F00E94AF0B8E3008F4A7CE89E09ECF8B
:100CF000C53DECE5DE0739F4F8018281882309F46B
:100D00004FC083E293CFC63DFCE5DF0740F5F80115
:100D10008281C33DFCE5DF0729F4882309F440C044
:100D200088E184CFC43DDC4568F48823C9F10E9482
:100D3000AF0B853128F00E94AF0B873108F47DCED0
:100D400085E174CF882361F10E94AF0B893128F0CF
:100D50000E94AF0B823208F470CE89E167CFCD3D9F
:100D6000ECE5DE0741F4F80182818823C9F082E0D6
:100D70000E94442215C0CE3DFCE5DF0739F4F8019E
:100D80008281882369F00E94991D0AC0CC3DDC4510
:100D900009F0B9CEF8018281882311F080E0E8CF14
:100DA00080E0DF91CF911F910F91089580E090E056
:100DB000089508959BE0799FF00111249CE2899F9A
:100DC000E00DF11D1124E60FF11DEE0FFF1FE65B94
:100DD000FE4F859194910895880F991FFC01EE5F55
:100DE000FC4F859194910895CF93DF930E94DA068A
:100DF0000E94E708EC01811521E5920708F042C046
:100E0000811560E5960708F031C1883E910500F52F
:100E1000803E910508F0D7C1883A910570F4853A73
:100E2000910508F0A6C08130910509F4CCC108F401
:100E30007DC1049708F0C7C179C18F3B910508F4C3
:100E4000A3C0803C910508F471C1805C9109FDC08C
:100E5000C11580E3D80780F4C11590E2D90708F0E6
:100E6000F2C0C03FD10508F461C1CF3FD10511F0F8
:100E700008F0A9C1D065A7C1C11520E4D20708F0C8
:100E8000F2C0E7C0811569E5960760F5C11588E5F0
:100E9000D80708F037C1C11594E5D90778F4C11512
:100EA00023E5D20708F013C1C11562E5D60708F0A3
:100EB000F8C0DC2FCC27C16FD06A85C1C11585E58C
:100EC000D80708F41AC1C11596E5D90708F02EC154
:100ED0008C2F0E9464098F71C82FD0E0DC2FCC27A3
:100EE000D06271C18D3B2CE5920709F416C1F0F474
:100EF000CB3B8CE5D80709F40AC108F00BC1C1153A
:100F00002AE5D20708F012C18C2F8F700E94640965
:100F100094E0D695C7959A95E1F7CF70D0E0DC2F95
:100F2000CC27D06A8F70806EC82B4DC1803C9C4509
:100F300009F4F9C0C13C8CE5D80760F4CE3B9CE5D0
:100F4000D90709F4EDC0CF3BDC4509F0EFC0C0E0A4
:100F5000D2ED39C1CE0190568115904208F0E6C01D
:100F60008D2F8F710E946409DD27D0628F71D82B7D
:100F70002AC1853A910509F4DCC0863A910509F049
:100F8000DBC0C2E8D0E41FC1883A910509F4D7C09C
:100F9000893A910509F4D6C08A3A910509F4D5C079
:100FA0008B3A910509F4D4C08C3A910509F4D3C069
:100FB0008B3B910509F4D2C08C3B910509F4D1C05B
:100FC0008D3A910509F4D0C0803B910509F4CFC05A
:100FD0008E3A910509F4CEC08F3A910509F4CDC03F
:100FE000813B910509F4CCC0823B910509F4CBC04B
:100FF000833B910509F4CAC0843B910509F4C9C03B
:10100000853B910509F4C8C0863B910509F4C7C02A
:10101000873B910509F4C6C0883B910509F4C5C01A
:10102000893B910509F4C4C08D3B910509F4C3C007
:101030008E3B910509F4C2C08A3B910509F4C1C0F9
:10104000C0E0D4E4C0C0CE019F700E94EC06EC0169
:10105000BAC0CE019927D3FF03C0EC01D86CB3C04E
:10106000EC01D06CB0C0DF70D06AADC0837021E0FD
:1010700030E002C0220F331F8A95E2F73C68CE01B0
:1010800074E0969587957A95E1F78370382BCF7049
:10109000C695C69580E2C89FE0011124C22BD32BD0
:1010A00092C04C2F4695469590E2499FA00111248D
:1010B000C370DD2721E030E0C90102C0880F991F0D
:1010C000CA95E2F7EC01C42BD52BDC687CC04C2F11
:1010D0004695469580E2489FA0011124C370DD2704
:1010E00021E030E0C90102C0880F991FCA95E2F7DC
:1010F000EC01C42BD52BDA6866C0DC2FCC27C46F7B
:10110000D06A61C0DC2FCC27C06FD06A5CC0C0E061
:10111000D4ED59C0C0E0D5ED56C0C0E0D1ED53C00C
:10112000C0E0D0ED50C0C0E0D3ED4DC0C0E0D0E095
:101130004AC0C1E8D0E447C0C3E8D0E444C0C2EE2E
:10114000D4E441C0C9EED4E43EC0CAEED4E43BC00E
:10115000C5EBD4E438C0C6EBD4E435C0C3EBD4E46B
:1011600032C0C4EBD4E42FC0C7EBD4E42CC0CCEC29
:10117000D4E429C0CDECD4E426C0C3E8D5E423C030
:10118000CAE8D5E420C0C2E9D5E41DC0C4E9D5E46D
:101190001AC0C1E2D6E417C0C3E2D6E414C0C4E268
:1011A000D6E411C0C5E2D6E40EC0C6E2D6E40BC058
:1011B000C7E2D6E408C0CFE6D4E405C0C0E7D4E473
:1011C00002C0CAE2D6E4CE01DF91CF910895823801
:1011D000910549F1B0F48133910509F458C048F400
:1011E0008932910509F44EC08A32910509F454C040
:1011F00008958533910509F440C08933910599F02C
:101200000895833E910529F138F4803E910591F0CF
:10121000823E9105A1F00895863E9105F9F0873E42
:10122000910531F1089520914D0220FD3AC021FD34
:1012300038C0089580914D0280FD35C032C0809144
:101240004D0282FF32C080914D0284FD30C083EE9A
:1012500039C080914D0282FD28C0F5CF80914D02AA
:1012600083FF27C080914D0284FD21C087EE2AC0F4
:1012700080914D0283FD1DC0F5CF80914D0285FD0B
:101280001AC01BC080914D0285FD17C014C080910B
:101290004D0286FD14C015C080914D0286FD11C01F
:1012A0000EC080EE0FC089E30DC082EE0BC080E05F
:1012B00009C086EE07C089E205C085E303C08AE263
:1012C00001C081E390E0089590914D0292FF0DC01E
:1012D000282F2871283019F4877F846006C0282FB2
:1012E0002471243011F48B7F886093FF0DC0282F68
:1012F0002871283119F4877E846106C0282F247153
:10130000243111F48B7E886194FD877E08950895C1
:101310000C94870908950C948A09E82FF0E0EE0FE9
:10132000FF1FEF5AFE4F8081918108950895E6E2F4
:10133000F1E041E050E024E02E0F9191A92FA29519
:10134000AF70B0E091963C9191979F70BA0102C046
:10135000660F771F9A95E2F7CB01809583239196CC
:101360008C932E13EACFABE1B1E041E050E02BE0EB
:101370002A0F8D91E82FE295EF70F0E031A18F7088
:10138000BA0102C0660F771F8A95E2F7CB01962F4C
:101390009095932391A392A1892B82A32A13E9CF3D
:1013A00010925A011092590110925201109251015B
:1013B00010925C0110925B01109254011092530143
:1013C00010925E0110925D0110925601109255012B
:1013D0001092600110925F01109258011092570113
:1013E00084E00E948D0A0C94B1044F925F927F9228
:1013F0008F929F92AF92BF92CF92DF92EF92FF9225
:101400000F931F93CF93DF9326E2422E21E0522EBB
:10141000A9E5B1E020E001E010E05D018D909C9035
:10142000119711961C921E92E20189912E01E82FCC
:10143000E295EF70F0E031A18F70A80102C0440F77
:10144000551F8A95E2F7CA01342B31A342A1382FE8
:101450003095432342A350EA5A95F1F79BE1C92EF8
:1014600091E0D92E40E050E0E60179906E01672DC1
:1014700062956F7070E0EB01E8A06D917C9111971F
:10148000F12CD72DDF7002C0F594E794DA95E2F7DE
:10149000E0FC08C07801042E02C0EE0CFF1C0A9488
:1014A000E2F702C0E12CF12C6E297F2911967C9382
:1014B0006E934F5F5F4F4B305105B1F691A13923C9
:1014C00031A392A1892B82A3129681E0F50140817C
:1014D00051818416950609F480E0282BF1E0A136AD
:1014E000BF0709F09ACF44E061E571E089E591E03A
:1014F0000E948E0A0E94B10381E0DF91CF911F917B
:101500000F91FF90EF90DF90CF90BF90AF909F90A2
:101510008F907F905F904F9008950895FF920F9362
:101520001F93CF93DF93F82E092F162FD72FC42F99
:10153000222349F081E0809363010E94B41E9093BE
:10154000620180936101809163018823D9F08091C9
:101550006101909162010E94C01E069798F0EF2DE4
:10156000F02FA12FBD2F80E090E04C2F50E084178A
:10157000950734F4219131912D933D930196F7CF46
:1015800010926301DF91CF911F910F91FF90089509
:10159000CF92DF92EF92FF920F931F93CF93DF933F
:1015A000D62E472FE82FF82F711103C0682F782F00
:1015B0007CC0072F10E0E82EF12C26E0629FC001CE
:1015C0001124CFEFD0E0BE010E941D279B015BEAF2
:1015D0005603C001579F900D11248D0D911D8D0D47
:1015E000911D982F990F980F6E01C01AD10AB7015B
:1015F000C69ED001C79EB00DD69EB00D11248B2F74
:10160000949FA0011124452F55277E01E41AF50A65
:10161000E69EA001E79E500DF69E500D11246E012E
:10162000C91AD108C09E7001C19EF00CD09EF00C6A
:1016300011240F2D1127C01BD10BC69F8001C79FFE
:10164000100DD69F100D1124712F2230310591F00D
:101650004CF421153105D9F021303105B1F47E2F3C
:10166000E52F15C02430310561F044F026303105F6
:1016700071F00BC0EB2F812F7F2F09C0752FEB2F3F
:1016800002C0E12F7B2F8F2F02C07B2F852FF0E030
:10169000E75EFB4F6491E72FF0E0E75EFB4F74914C
:1016A000E82FF0E0E75EFB4F8491DF91CF911F912F
:1016B0000F91FF90EF90DF90CF9008950895CF9312
:1016C000DF93762FE901682F842F0E94C80A69836F
:1016D00078838A83DF91CF91089580912C02282FFF
:1016E000269530E02115310519F48170826005C01E
:1016F0002532310524F08170886480932C0208958E
:1017000088E090E00C949C27CF93DF9300D000D02A
:10171000CDB7DEB7AB01BC0149835A836B837C83B1
:101720000E946D0B49815A816B817C8188E090E039
:101730000F900F900F900F90DF91CF910C94BA27DC
:10174000ECE2F2E083E0808311828FEF8283838377
:10175000148260817181828193810C94840B8091C9
:101760002C0280FF02C08695089580E00895809144
:101770003002833018F48F5F8093300260912C0226
:1017800070912D0280912E0290912F020C94840B67
:1017900080913002882319F081508093300260914B
:1017A0002C0270912D0280912E0290912F020C94A8
:1017B000840B8091670123E0829FC00111248F5C1C
:1017C0009D4F6091020170E020912C0220FD0DC020
:1017D00020E030E0F901EF5CFD4F118210821282AF
:1017E0002D5F3F4F28313105A9F70C947C10909163
:1017F0002C0290FF0FC020E030E0F901EF5CFD4FBC
:101800008183608342832D5F3F4F28313105A9F7E3
:101810000C94D90B0895CF93DF9300D01F92CDB7CE
:10182000DEB790912C0290FF0AC09E012F5F3F4FC0
:101830000E945F0B4B8169818A810E94F70B0F9098
:101840000F900F90DF91CF910895CF93DF93EC012C
:10185000EC81F0E0EC5EFC4F4491ECE2F2E062815E
:1018600081810E940B0C8C818F5F8C83DF91CF91E3
:101870000895CF93DF93EC01ECE2F2E043816281C3
:101880008C810E940B0C8C818F5F8C83DF91CF91B8
:1018900008950F931F93CF93DF9300D01F92CDB77E
:1018A000DEB78C018091640181110AC09E012F5F17
:1018B0003F4F4FEF6FEF0E945F0B8A81809364016F
:1018C000F8018481813051F028F0823061F4409138
:1018D00064010AC08091640140E007C06091640126
:1018E00040E080E003C040E080E060E00E94F70B51
:1018F000F801248130E0C901019663E070E00E94A4
:10190000312784830F900F900F90DF91CF911F911B
:101910000F9108957F928F929F92AF92BF92CF9234
:10192000DF92EF92FF920F931F93CF93DF9300D03C
:101930001F92CDB7DEB7182FD62E042FC22E90914E
:101940002C0290FF6DC0E92FE695AE2FB0E0A65DAA
:10195000BE4F8C9180936F019E7F923061F49E0107
:101960002F5F3F4F812F0E945F0B4B8169818A81DE
:101970000E94F70B43C0823019F400912F023EC041
:10198000863019F410912D0239C08930D9F389318C
:10199000A9F5E9512E2F2170722EE695F0E0EC5E4C
:1019A000FB4F8590949031E3A32E32E0B32EE12CCF
:1019B000F12C9924E89CC001E99C900DF89C900DB5
:1019C000112423E0969587952A95E1F7711002C0BE
:1019D000810F03C0212F281B822F9501402F6D2DD1
:1019E0000E945F0B8FEFE81AF80A23E0A20EB11CE9
:1019F00088E0E816F104F1F60E94D90B10932D024D
:101A0000D0922E0200932F02CC2051F060912C0234
:101A100070912D0280912E0290912F020E94840BD2
:101A20000F900F900F90DF91CF911F910F91FF902A
:101A3000EF90DF90CF90BF90AF909F908F907F906E
:101A40000895ECE2F2E09181282F438162818CE0DD
:101A5000890F0C948A0C81E00C94210DECE2F2E0E9
:101A60009181282F4381628184EF890F0C948A0C25
:101A700081E00C942E0DECE2F2E0628129E1620F2C
:101A800008F46FEF282F438181810C948A0C81E048
:101A90000C943B0DECE2F2E0628129E1621B08F458
:101AA00060E0282F438181810C948A0C81E00C94A2
:101AB0004A0DECE2F2E043812CE0420F08F44FEFD4
:101AC000282F628181810C948A0C81E00C94590D3D
:101AD000ECE2F2E043812CE0421B08F440E0282FC6
:101AE000628181810C948A0C81E00C94680D20E065
:101AF0000C948A0CEF92FF921F93CF93DF93EC012B
:101B000081E3E82E82E0F82E10E08C81970140916D
:101B10002F0260912E02810F0E945F0B115E83E005
:101B2000E80EF11C183F89F70E94D90B8A819C812D
:101B300080FF02C09F5F01C091509C83DF91CF91D5
:101B40001F91FF90EF900895AF92BF92CF92DF92D6
:101B5000EF92FF920F931F93CF93DF93FC0182814B
:101B600080FF03C0BB24BA9402C0BB24B39421E31A
:101B7000E22E22E0F22E03E312E0C0E0D0E0F80112
:101B800031971082F7011082F801108294E0C92E7B
:101B9000D12CA12C809166018A0D87FD885F082ECB
:101BA000000C990BC817D90791F480912F028C9DD6
:101BB000A0018D9D500D112455954795559547953C
:101BC000970160912E0280912D020E945F0BAB0C59
:101BD000F1E0CF1AD108F1F6219683E0E80EF11C6E
:101BE0000D5F1F4FC830D10551F60E94D90B80916F
:101BF000660191E0B91206C0811102C087E006C0FB
:101C0000815004C090E00196877099278093660107
:101C1000DF91CF911F910F91FF90EF90DF90CF90C8
:101C2000BF90AF900895EF92FF920F931F93CF93C1
:101C3000DF9380E090E0FC01EF5CFD4F11821082A9
:101C40001282039688319105B1F781E3E82E82E094
:101C5000F82E03E312E0C0E0D0E080916501082E89
:101C6000000C990BC817D90794F080910101082E38
:101C7000000C990B8C179D0754F0970140912F028F
:101C800060912E0280912D020E945F0B07C0F80127
:101C900031971082F7011082F80110822196F3E04B
:101CA000EF0EF11C0D5F1F4FC830D105B1F60E9439
:101CB000D90B8091000190916501980F9093650177
:101CC00020910101280F20930101121614F497307E
:101CD0001CF0819580930001DF91CF911F910F91AE
:101CE000FF90EF900895EF92FF920F931F93CF9381
:101CF000DF93EC012C813D812F5F3F4F2170332713
:101D00003D832C8381E3E82E82E0F82E10E005E588
:101D1000812F86954C815D81480F511D842F8170E4
:101D2000970140912F0260912E02809F802D1124F7
:101D30000E945F0B1F5F83E0E80EF11C183041F733
:101D4000DF91CF911F910F91FF90EF900C94D90BE1
:101D5000EF92FF920F931F93CF93DF937C01C1E328
:101D6000D2E000E010E0F7018481043011051CF49A
:101D7000882339F002C0811104C09E0140912F02D6
:101D800002C09E0140E060912E0280912D020E94CF
:101D90005F0B0F5F1F4F23960830110521F70E943C
:101DA000D90BF701248130E02F5F3F4F217033279B
:101DB0002483DF91CF911F910F91FF90EF900895B1
:101DC000ECE2F2E080818E7F80836081718182818C
:101DD00093810E94840B109270012FEF80E792E0B4
:101DE000215080409040E1F700C000000C94D90BD6
:101DF00060912C02669570E04BE050E083E091E04A
:101E00000E948727892B19F481E0809370010E943A
:101E1000B41E9093690180936801089590912C02FB
:101E200090FF35C09170811102C0926006C085326A
:101E300010F0986402C0880F982B90932C026623B0
:101E400051F060912C0270912D0280912E029091A0
:101E50002F020E94840B60912C02669570E04BE08B
:101E600050E083E091E00E948727892B19F01092BF
:101E7000700102C00E94F80E81E080936B014091D6
:101E80002F0260912E0280912D020C94770D0895FF
:101E9000682F90912C02969581E0890F853208F089
:101EA00081E00C940E0F81E00C94480F682F909104
:101EB0002C0296958FEF890F09F484E20C940E0F93
:101EC00081E00C94560F61E00C940E0FECE2F2E00E
:101ED00080818160808386950C94630F80912C02B1
:101EE00080FD0C94E00E0C94660F60E00C940E0FD5
:101EF00080916E01811133C08091070281608093CF
:101F000007020E94161D811104C00E94991D0E94A3
:101F1000A00B0E94800B60932C0270932D02809383
:101F20002E0290932F026E7F61F40E94A00B0E94FC
:101F3000800B60932C0270932D0280932E0290935D
:101F40002F020E946D0B1092700180912C0280FF75
:101F500003C086950E94750F81E080936E010895FD
:101F60000F931F93CF93DF9380917001882309F41F
:101F70008CC080916F01E0912C02E695E81BE09304
:101F80006A01823049F4F0E0E05FFC4FE491CE2F2B
:101F9000D0E005E21CE049C0863049F4F0E0E35FA0
:101FA000FC4FE491CE2FD0E009E31CE03EC0893025
:101FB00051F4E695F0E0E65FFC4FE491CE2FD0E0DF
:101FC0000AE71DE032C08F3051F4E695F0E0E95F9A
:101FD000FC4FE491CE2FD0E004EA1DE026C085310D
:101FE00049F4F0E0EC5FFC4FE491CE2FD0E003E148
:101FF0001EE01BC0883181F0833239F4E2E0F3E067
:10200000C591D49109E41CE010C0843251F4C4EFAE
:10201000D1E008EA1EE009C0C8EED3E003E71EE005
:1020200004C0C0EDD7E00EE51BE080916B01882372
:1020300089F010926B010E94B41E9E01209530958C
:10204000820F931F909369018093680110926D0134
:1020500010926C0180916801909169010E94C01EEC
:102060008C179D0790F0E0916801F0916901CE0F07
:10207000DF1FD0936901C093680188E691E0F80101
:10208000DF91CF911F910F910994DF91CF911F9113
:102090000F91089528B1342F3095232338B1432B65
:1020A0003FB7F894FC01680F791FE617F70789F02E
:1020B000819198E048B9000000C087FF28B9880FD7
:1020C000000000C000C000C028B900C09A9591F778
:1020D000ECCF3FBF089527B1242B27B99B01220FD6
:1020E000331F620F731F0E944A1087EC90E0019724
:1020F000F1F700C00000089540E80C946B100F93B6
:102100001F93CF93DF93C62FD42F022FFC01828120
:102110008823C9F0609373010E94B41E90937201EA
:102120008093710180E28C0F883008F050C0C77036
:1021300081E001C0880FCA95EAF7DF91CF911F9126
:102140000F910C940F1410917301161330C08091ED
:102150007101909172010E94C01E883C910538F572
:10216000C0E2CD0F1D17B9F080E2810F883040F436
:10217000177081E001C0880F1A95EAF70E941614C3
:10218000C83048F481E09D2F977001C0880F9A9560
:10219000EAF70E940F14802F0E940714C830B8F489
:1021A000D77081E001C0880FDA95EAF70AC080E2B3
:1021B0008C0F883060F4C77081E001C0880FCA9529
:1021C000EAF7DF91CF911F910F910C941614DF91D4
:1021D000CF911F910F9108959C01CB01203F4CE5B9
:1021E000340719F178F4283D4CE53407B9F0293D5E
:1021F0004CE5340731F1273D3C4531F526E241EE0F
:1022000061EE0FC0223F4CE53407B9F090F0233F58
:102210003C45D1F427E246EE66EE03C027E245EEE8
:1022200065EE0E947F1080E0089526E240EE60EEA9
:10223000F8CF27E244EE64EEF4CF26E242EE62EEFF
:10224000F0CF28E241E0ECCF1092730181E00895D5
:1022500090937901809378010895E0917801F0914D
:102260007901309721F00190F081E02D099480E010
:102270000895E0917801F0917901309799F02091DB
:102280001A01222359F020914D0227FF07C0DC01DB
:102290002C9111962C93119725E02C930280F381B9
:1022A000E02D0994089520917601309177018217ED
:1022B000930771F09093770180937601E091780114
:1022C000F0917901309721F00680F781E02D099493
:1022D000089520917401309175018217930771F070
:1022E0009093750180937401E0917801F0917901E8
:1022F000309721F00084F185E02D0994089585B789
:10230000806885BF85B7806885BF08950895089562
:102310000C94871108950C948A110E947F110E94D9
:1023200086110C94881181E008950E94AB1E0E94D2
:1023300097090E94341F0E944D1F0E94780F0C9431
:102340008B114F925F927F928F929F92AF92BF922A
:10235000CF92DF92EF92FF920F931F93CF93DF9371
:10236000CDB7DEB72A970FB6F894DEBF0FBECDBF4C
:102370000E94F5090E949311811111C08FEF89838A
:102380008A831B820E94B41E8160782F9D838C8378
:1023900049815A816B818D810E945D1257C09BE7F4
:1023A000C92E91E0D92E00E010E0AA24A394B12C0C
:1023B000702E802F0E948D094C01F60141905190A2
:1023C0006F01482659264114510431F40F5F1F4F05
:1023D0000430110569F7D2CF8091070281FD0E9478
:1023E000960920E030E07501022E02C0EE0CFF1CC1
:1023F0000A94E2F7C70184219521892B09F12E83E4
:102400007F828E209F2091E0892809F490E09887B0
:102410000E94B41E8160782F9A8789874E815F81E0
:1024200068858A850E945D12000F111FF801E5582A
:10243000FE4F80819181E826F926F182E08206C074
:102440002F5F3F4F2B30310571F6C0CF10917A01CD
:102450000E942D111817D9F00E942D1180937A0136
:102460002A960FB6F894DEBF0FBECDBFDF91CF9195
:102470001F910F91FF90EF90DF90CF90BF90AF90A2
:102480009F908F907F905F904F900C94BC042A9601
:102490000FB6F894DEBF0FBECDBFDF91CF911F9175
:1024A0000F91FF90EF90DF90CF90BF90AF909F90F3
:1024B0008F907F905F904F900895CF93DF93CDB72B
:1024C000DEB72B970FB6F894DEBF0FBECDBF4F839C
:1024D000588769877A878B87DE01119686E0FD0130
:1024E00011928A95E9F785E0FE01379601900D92E9
:1024F0008A95E1F749815A816B817C818D819E812A
:102500000E945B192B960FB6F894DEBF0FBECDBFAD
:10251000DF91CF910895FC01808191810E94271C59
:102520000895882309F413C1682F8238C1F40E94EA
:102530002D1181FD0CC169E380910E0190910F0175
:102540000E94001E0E94B21C2FEF81EE94E02150E9
:1025500080409040E1F700C0000069E319C0833873
:10256000F9F40E942D1180FDF2C063E580910E0107
:1025700090910F010E94001E0E94B21C2FEF81EE6D
:1025800094E0215080409040E1F700C0000063E5F6
:1025900080910E0190910F010E940B1E0C94B21CB1
:1025A0008438C1F40E942D1182FDD1C067E480916E
:1025B0000E0190910F010E94001E0E94B21C2FEF8D
:1025C00081EE94E0215080409040E1F700C000008F
:1025D00067E4DECF8CEF860F813A38F480910E01EC
:1025E00090910F010E94001ED9CF80E2860F8830A3
:1025F00048F4677081E001C0880F6A95EAF70E948D
:10260000691CCCCF8BE5860F833070F4653A29F0D6
:10261000663A31F083E890E005C081E890E002C0BE
:1026200082E890E00C94531188E5860F873108F01A
:102630008EC0683A09F445C0693A09F445C06A3A5F
:1026400009F445C06B3A09F445C06C3A09F445C039
:102650006B3B09F445C06C3B09F445C06D3A09F485
:1026600045C0603B09F445C06E3A09F445C06F3A75
:1026700009F445C0613B09F445C0623B09F445C01B
:10268000633B09F445C0643B09F445C0653B09F46C
:1026900045C0663B09F445C0673B09F445C0683B4B
:1026A00009F445C0693B09F445C06D3B09F445C0D8
:1026B0006E3B09F445C06A3B09F445C080E090E0F8
:1026C00044C082EE90E041C089EE90E03EC08AEEC8
:1026D00090E03BC085EB90E038C086EB90E035C0E1
:1026E00083EB90E032C084EB90E02FC087EB90E06A
:1026F0002CC08CEC90E029C08DEC90E026C083E8E3
:1027000091E023C08AE891E020C082E991E01DC0F9
:1027100084E991E01AC081E292E017C083E292E07E
:1027200014C084E292E011C085E292E00EC086E21D
:1027300092E00BC087E292E008C08FE690E005C00F
:1027400080E790E002C08AE292E00C94691108955B
:10275000882309F45BC0682F823879F40E942D1118
:1027600081FF54C069E380910E0190910F010E9496
:10277000001E0E94B21C69E310C08338B1F40E94AD
:102780002D1180FF43C063E580910E0190910F01F0
:102790000E94001E0E94B21C63E580910E01909180
:1027A0000F010E940B1E0C94B21C843879F40E9415
:1027B0002D1182FF2BC067E480910E0190910F01D3
:1027C0000E94001E0E94B21C67E4E7CF8CEF860FC8
:1027D000813A18F380E2860F883048F4677081E010
:1027E00001C0880F6A95EAF70E946F1CDCCF8BE569
:1027F000860F833020F480E090E00C945311685AE7
:10280000673120F480E090E00C9469110895CF9333
:10281000C82F0E9491128C2FCF910C94A81388235B
:1028200021F00E94691C0C94B21C0895882321F0A9
:102830000E946F1C0C94B21C08954F925F926F928D
:102840007F92BF92CF92DF92EF92FF920F931F93EE
:10285000CF93DF937C01D62FC72FFC010581029512
:102860000F70128111110E94861C0E945F1C882328
:1028700079F0112369F080E28D0F883048F082E012
:102880000E94FD1C0E945F1C91E0B82EB92601C079
:10289000B12CCC2EC2948FE0C822D12CF601E8597D
:1028A000FF4F0C9467278C2F807FCF70882311F007
:1028B000C295C07F112399F0CC2309F48EC180E228
:1028C0008D0F883010F0D11104C08C2F0E94691C2C
:1028D00003C08C2F0E94791C0E94B21C7EC18D2FD8
:1028E0000E94A813CC2309F4C1C180E28D0F883067
:1028F00010F0D11104C08C2F0E946F1C03C08C2FCC
:102900000E947F1C0E94B21CB1C18C2F807FCF70AF
:10291000803211F0C295C07FDD2319F0D130C9F0AB
:1029200022C0112371F0002341F0013031F40E94E4
:10293000991C8C2B0E949F1C99C10E94991C8C2B66
:102940001DC0002319F0013009F490C10E94A81C99
:102950001AC0112321F0063008F088C10EC00530DE
:1029600008F084C110C0112361F0002331F0F70199
:10297000858180FF32C18F7085838C2F0E940F1458
:1029800075C101113BC18C2FE6C08C2F86958695B1
:10299000837090E0009719F0019761F067C11123EF
:1029A00021F08D2F9C2F937002C080E090E00E9458
:1029B00053116CC1112321F08D2F9C2F937002C0F5
:1029C00080E090E00E94691161C18C2F837009F052
:1029D00050C0111157C18D2F829586958770880F31
:1029E000880F9D2F9F70492E512C612C712C082E21
:1029F00004C0440C551C661C771C0A94D2F7D4FF03
:102A000014C00FE010E020E030E0B901A80104C0DC
:102A1000440F551F661F771F8A95D2F7CB01BA0165
:102A2000609570958095909503C060E070E0CB0153
:102A3000C695C695C370D0E0C230D10561F0C330F1
:102A4000D10581F06429752986299729219771F08C
:102A50000E94A01A17C164297529862997290E9406
:102A6000B21A10C10E94A01AC301B2010E948E1AAC
:102A700009C1112319F08C2F817001C0869588231C
:102A800009F400C18D2F829586958770880F880F75
:102A90009D2F9F70492E512C612C712C082E04C043
:102AA000440C551C661C771C0A94D2F7D4FF14C042
:102AB0000FE010E020E030E0B901A80104C0440FAD
:102AC000551F661F771F8A95D2F7CB01BA01609513
:102AD00070958095909503C060E070E0CB01C6953D
:102AE000C695C3704C2F50E04230510569F0433019
:102AF000510589F0642975298629972941305105A6
:102B000071F00E94661BBEC0642975298629972929
:102B10000E94781BB7C00E94661BC301B2010E94CD
:102B2000541BB0C08D2F90E0FC01E05EF109E5314F
:102B3000F10508F04EC0E858FF4F0C946727DF708E
:102B40008C2F8F71112321F00E94ED1A8D2F16CF3B
:102B50000E940E1B8D2F0E94161488C0112341F075
:102B6000053008F083C08C2F8F710E94331B7EC00C
:102B7000063008F07BC0F7CF112339F08C2F8F710E
:102B80000E94ED1A73C01123C9F38C2F8F710E941C
:102B90000E1B6CC0112329F08C2F8F710E94D81A44
:102BA00065C00E94D31A62C0112349F0CF718C2FE7
:102BB0000E94ED1A63E08C2F0E94E81C57C081E050
:102BC0000E94FD1C023008F451C082E00E94FD1CEE
:102BD0004DC0112331F0002389F28D2F0E949112F4
:102BE00045C0002391F2D93349F45FEF67EE73E0FB
:102BF000515060407040E1F700C000008D2F0E94EE
:102C0000A81334C04C2F4F706D2FC7010E94D606F9
:102C10000E94FF193BC0111139C0CF70D0E0C23003
:102C2000D10599F03CF4209769F02197F9F40E94BE
:102C3000871F2CC0C430D10571F054F02597B1F432
:102C400080E00AC00E946A1F21C00E94C61F1EC0E9
:102C50000E94CD1F1BC086E00E94F01F17C04C2FA2
:102C60004F706D2FC7010E94D90610C088E0C816AA
:102C7000D10441F05CF0EAE0CE1AD108F2E0CF16C0
:102C8000D10420F40E942D110E94BC04BB20F1F05D
:102C90000E945B1C80FD1AC0F70112820E94551C25
:102CA0000E94ED1AC7010E9474160E94551CDF9104
:102CB000CF911F910F91FF90EF90DF90CF90BF9039
:102CC0007F906F905F904F900C940E1BDF91CF918F
:102CD0001F910F91FF90EF90DF90CF90BF907F906A
:102CE0006F905F904F9008950F931F93CF93DF9352
:102CF000EC01888199812B813C81232BB9F09F3F86
:102D000011F48F3F99F0CE010E94CE04882371F018
:102D1000688179818A810E94321C8C010E948A1B01
:102D20000E948B1AB801CE010E941D14DF91CF9131
:102D30001F910F9108950E94861C0E94961C0E946C
:102D4000B21C80E090E00E94531180E090E00C946F
:102D5000691180910E0190910F010E94161E0C9432
:102D60009B160E94761C0C94A916E92FE295EF7031
:102D7000F0E03297EE30F105B0F4E357FF4F0C94DA
:102D80006727803F91F018F4803E68F40EC0843FBE
:102D900051F40BC0803E48F0813F29F406C093FBFC
:102DA000882780F9089580E0089581E008950E94C1
:102DB000271C0E94B5160895CF93DF9300D000D052
:102DC0001F92CDB7DEB70F900F900F900F900F901E
:102DD000DF91CF910895CF93DF9300D000D000D042
:102DE000CDB7DEB726960FB6F894DEBF0FBECDBFC7
:102DF000DF91CF9108951F93CF93DF93C09184010A
:102E000016E080918501C81799F0D0E01C9FF00171
:102E10001D9FF00D1124EA57FE4F408151816281C0
:102E20007381848195810E94EB162196C770E9CF4A
:102E3000DF91CF911F9108954091B6015091B70154
:102E40006091B8017091B9018091BA019091BB0174
:102E50000C94EB168091BB0182958F7009F054C0E1
:102E60008091B801882309F44FC080918401A0911A
:102E700085016091B6017091B7014091B9015091FF
:102E8000BA01B6E08A1709F43FC090E04115510538
:102E9000C1F17F3F11F46F3FA1F1B89FF001B99FDD
:102EA000F00D1124EA57FE4F218172132AC02081B0
:102EB000621327C02281211124C023813481241769
:102EC000350710F421503109241B350B283C3105FE
:102ED000C0F42091BB012F7020612093BB0126E03C
:102EE000289FF001299FF00D1124E557FE4F8081A6
:102EF0008F708061808386EB91E00E9474160C9441
:102F0000FB1601968770BECF0895CF92DF92EF92A5
:102F1000FF920F931F93CF93DF93CDB7DEB76297E6
:102F20000FB6F894DEBF0FBECDBF8C0185E0F8016F
:102F3000DE011D9601900D928A95E1F7D8014C9122
:102F400011965C91119712966C9112971396CD90F1
:102F5000DC9014973091B6017091B7018091B9015E
:102F60009091BA01009709F46BC17F3F19F43F3F7C
:102F700009F466C1E090B801EE2009F4C0C02091C8
:102F8000BB01C816D90628F0F601E81BF90BCF01E2
:102F900004C0809590958C0D9D1DFF24F394883C72
:102FA000910578F0F12C207F09F0C6C07C2DD98ADC
:102FB000C88A89890E94DC1686EB91E00E9474160B
:102FC000B1C0822F807F09F046C0751314C034133E
:102FD00012C0611110C02F7020612093BB010E94AC
:102FE0001C1786EB91E00E9474168091BB01D801FA
:102FF00015968C932EC0CD2819F15F3F11F44F3FE9
:10300000F9F0F62E61111CC0809184012091850198
:1030100036E0821709F45AC090E0389FF001399FDA
:10302000F00D1124EA57FE4F7181571306C07081CD
:10303000471303C07281711103C001968770E9CFF5
:10304000F62E662309F427C18091BB01816080932D
:10305000BB01F12C20C1751308C0341306C06111E7
:1030600004C08091BB01D801C3C04D875E878D85A8
:103070009E856A8B0E94D7166A898823E1F16623B0
:10308000D1F12091BB01822F82958F7090E0029741
:1030900074F08091B6019091B70198878F8319865B
:1030A000DB86CA862C87CE0107960E94741686E0BE
:1030B000F801A6EBB1E001900D928A95E1F70E942C
:1030C0002A170E941C17FF24F394E5C04D875E87E2
:1030D0008D859E850E94271C292F22952F7030E018
:1030E000223031050CF0CBC09F7009F0C5C0805E66
:1030F000883008F4D0C0C8010E947416E4CFC81606
:10310000D90608F453C0F601E81BF90BCF01883C3F
:10311000910508F450C0F12C7C2DD98AC88A898980
:103120000E94DC16E6EBF1E086E0DF011D928A9555
:10313000E9F70E941C17AFC0751314C0341312C0F6
:10314000611110C08091BB01F8018583C8010E9404
:10315000741686E0E6EBF1E0DF011D928A95E9F74F
:10316000FE2C99C04D875E878D859E856A8B0E9457
:10317000D7166A89882309F4BECF662309F4BBCF2A
:103180002091BB01822F82958F7090E002970CF402
:103190008ECF8091B6019091B7019A8389831B826B
:1031A000DD82CC822E83CE0101967FCF80959095D3
:1031B0008C0D9D1DACCFF62E662309F49CCF7513A4
:1031C0002EC034132CC02091BB0120FD1FC0822FC4
:1031D00082958F70D9F0D80115962C9315978F3062
:1031E00049F08F5F982F9295907F822F8F70892B57
:1031F00015968C93C8010E94741686E0F801A6EB20
:10320000B1E001900D928A95E1F793CF86E0F80145
:10321000A6EBB1E001900D928A95E1F73CC04D8795
:103220005E878D859E850E94D716811140CF809143
:10323000BB0181608093BB01C8010E9474162BC042
:10324000662309F458CF4D875E878D859E850E9441
:10325000D716F82E882309F44ECF86E0F801A6EBA6
:10326000B1E001900D928A95E1F786EB91E00E9422
:103270008B120E942A175DCF811139CF0CC02430E8
:1032800031050CF038CF9F7009F431CFF8019581EA
:10329000907F09F02CCF8F2D62960FB6F894DEBF89
:1032A0000FBECDBFDF91CF911F910F91FF90EF9097
:1032B000DF90CF9008951F93CF93DF93CDB7DEB704
:1032C0002C970FB6F894DEBF0FBECDBF4F83588743
:1032D00069877A878B879C87CE0107960E9485171E
:1032E000882369F08F8198852A853B85232BF1F10E
:1032F0009F3F09F063C08F3F09F060C037C086E090
:10330000FE013796DE01119601900D928A95E1F744
:103310006F817885EA85FB85309741F17F3F11F415
:103320006F3F21F12091850130E0C901019687703E
:1033300099274091840150E08417950709F447C00C
:1033400069837A83FD83EC8396E0929FD001939FFB
:10335000B00D1124AA57BE4FFE01319601900D9277
:103360009A95E1F7809385010E94FB1616E0809103
:103370008401909185018917C1F1189FC001112422
:103380008A579E4F0E948517882379F1E091840126
:103390001E9FF0011124EA57FE4F40815181628146
:1033A0007381848195810E94EB168091840190E065
:1033B00001968770992780938401D9CF4F815885D2
:1033C00069857A858B859C850E94EB16CFCF0E94FC
:1033D000B1161092850110928401E6EBF1E086E0CF
:1033E000DF011D928A95E9F7C1CF2C960FB6F894AC
:1033F000DEBF0FBECDBFDF91CF911F910895EF9239
:10340000FF920F931F93CF93DF938C01892B09F4C5
:103410006CC0F12CEE24E394E8012196F80184912C
:10342000843740F4843008F051C0813081F082301C
:1034300019F15BC0853709F444C0A8F19CE7980FE7
:10344000903708F052C08F770E94A81341C00E5FDA
:103450001F4FFE01C49180E28C0F883048F4C77082
:103460008E2D01C0880FCA95EAF70E94891C14C0EE
:103470008C2F0E9491122DC00E5F1F4FFE01C49130
:1034800080E28C0F883058F4C7708E2D01C0880FF1
:10349000CA95EAF70E948F1C0E94B21C1AC08C2F9A
:1034A0000E94A81316C00E5F1F4FFE01C491CC23CB
:1034B00081F08FE99FE00197F1F700C00000C15053
:1034C000F6CF0E5F1F4FFE01F49003C00E949112D1
:1034D0008E018F2D882309F49FCFEFE9FFE031970C
:1034E000F1F700C000008150F5CFDF91CF911F911F
:1034F0000F91FF90EF90089508950C947C1A0E940C
:103500007D1A6093DE017093DF018093E001909358
:10351000E1010C949B1608950C947F1A0F931F934E
:103520000091DE011091DF012091E0013091E10175
:10353000602B712B822B932B1F910F910C947F1A70
:103540000F931F930091DE011091DF012091E001A4
:103550003091E10160237123822393231F910F9106
:103560000C947F1A0F931F930091DE011091DF01DD
:103570002091E0013091E101602771278227932794
:103580001F910F910C947F1A08950C94C41A0E94F5
:10359000C51A6093DA017093DB018093DC0190938C
:1035A000DD010C949B1660E070E0CB010C94C71A0F
:1035B0000F931F9341E050E060E070E08A019B01AF
:1035C00004C0000F111F221F331F8A95D2F7C901B3
:1035D000B8011F910F910C94C71A0F931F9341E0EC
:1035E00050E060E070E004C0440F551F661F771F75
:1035F0008A95D2F78091DA019091DB01A091DC01EC
:10360000B091DD018A019B01082B192B2A2B3B2B42
:10361000C901B8011F910F910C94C71A0F931F9302
:1036200041E050E060E070E004C0440F551F661FA9
:10363000771F8A95D2F74095509560957095809147
:10364000DA019091DB01A091DC01B091DD018A01EA
:103650009B01082319232A233B23C901B8011F9189
:103660000F910C94C71A0F931F9341E050E060E054
:1036700070E004C0440F551F661F771F8A95D2F76C
:103680008091DA019091DB01A091DC01B091DD0124
:103690008A019B01082719272A273B27C901B8015E
:1036A0001F910F910C94C71A0F931F930091DA0189
:1036B0001091DB012091DC013091DD01602B712B39
:1036C000822B932B1F910F910C94C71A0F931F936A
:1036D0000091DA011091DB012091DC013091DD01D4
:1036E00060237123822393231F910F910C94C71A97
:1036F0000F931F930091DA011091DB012091DC01FF
:103700003091DD0160277127822793271F910F9148
:103710000C94C71A08952BE0929F800D1124A82FB6
:10372000A695A695A695877051E001C0550F8A957C
:10373000EAF785E0A89FD001112420E030E070E096
:10374000F901EA0FFB1FE454FE4F4081CB01022E2A
:1037500002C0969587950A94E2F781709927819522
:1037600084278523842780832F5F3F4F25303105B1
:1037700039F708952BE0929F800D1124682F6695EC
:1037800066956695982F977085E0689FB001112423
:1037900040E050E080E0FA01E60FF71FE454FE4FEE
:1037A000208130E0092E02C0369527950A94E2F771
:1037B00021703327042E01C0220F0A94EAF7822BCE
:1037C0004F5F5F4F4530510531F70895BF92CF925B
:1037D000DF92EF92FF920F931F93CF93DF938C01B1
:1037E000C090DE01D090DF01E090E001F090E101B7
:1037F0008091DA019091DB01A091DC01B091DD01B3
:10380000C82AD92AEA2AFB2ACFE1D0E0D701C6018B
:103810000C2E04C0B695A795979587950A94D2F774
:1038200080FF07C0BC2EB8018C2F0E94F4060197C0
:1038300019F4219758F7B12C8B2DDF91CF911F915F
:103840000F91FF90EF90DF90CF90BF900895CF93AE
:10385000DF93EC010E94E61BBE010E94F406DF919B
:10386000CF9108951F93CF93DF93EB019091830144
:10387000992321F0CB010E94271C13C0882349F013
:10388000CB010E94E61B182F682FCE010E948B1BD4
:1038900004C0CB010E94BA1B182FBE01812F0E94C9
:1038A000F406DF91CF911F9108958091E2018595F3
:1038B0008595859508958091E2018770089590918E
:1038C000E201977081E009F480E00895809106029A
:1038D000089590910602892B8093060208958095A1
:1038E00090910602892380930602089510920602A1
:1038F000089590910502892B809305020895809583
:103900009091050289238093050208951092050283
:10391000089590910402892B809304020895809564
:103920009091040289238093040208951092040266
:1039300008958091E301089508950C949C1C909142
:10394000E301981721F08093E3010C949D1C0895E6
:103950008091E301882329F01092E30180E00C9428
:103960009D1C0895E0910E01F0910F0180910602D7
:103970008083E0910E01F0910F019081809105020A
:10398000892B8083E0910E01F0910F01908180914D
:103990000402892B80838091E301882381F0E091E8
:1039A0000E01F0910F019081892B808380910E018F
:1039B00090910F010E949B1D81110E94A81C809173
:1039C0000E0190910F010C94391108950C94E51C8F
:1039D00098E0899F90011124262B2093E2010E94F8
:1039E000ED1A8091E2018595859585950C94E61CEC
:1039F0001092E20180E00C94E61C2091E201809597
:103A000082238093E201982F977079F430E0482F59
:103A1000082E000C550B2417350739F08595859530
:103A200085950E940E1B0C94F81C089580E090E090
:103A30000E94A22721E08D3E9E4F09F020E0822FB8
:103A4000089582E090E00C94942783E090E00C9439
:103A5000942784E090E00C949427682F84E090E011
:103A60000C94A82786E090E00C949427682F86E0B9
:103A700090E00C94A827AB01BC018FE090E00C947F
:103A8000BA27AB01BC0183E190E00C94BA2760E057
:103A900070E0CB010C94411D60E070E0CB010E940E
:103AA0003B1D0C94471D6DEE7EEF80E090E00E9480
:103AB000C62760E082E090E00E94A82760E083E0F3
:103AC00090E00E94A8271092DE011092DF01109270
:103AD000E0011092E10160E084E090E00E94A827FC
:103AE00060E085E090E00E94A82760E086E090E03A
:103AF0000E94A8276FEF87E090E00E94A82740E08F
:103B000050E0BA0188E090E00E94BA2760E08DE0C2
:103B100090E00E94A82740E050E0BA0188E190E0E0
:103B20000E94BA2760E087E190E00E94A8270C94E9
:103B30004C1D0C94531DFC01329680911A01882370
:103B400031F080914D0287FF02C09EE101C096E0F6
:103B500080E0915028F021912223D9F38F5FF9CF93
:103B600008959C01FC0132969FEF80E04191461739
:103B700089F09F3F19F4411101C0982F8F5F863063
:103B8000A9F79F3F39F0F901E90FF11D97FDFA956B
:103B9000628308950895FC013296089620812613C9
:103BA00001C010823196E817F907C1F70895262F52
:103BB0002695269526952E3168F4FC01E20FF11D1D
:103BC000677021E030E001C0220F6A95EAF7828138
:103BD000282B22830895262F2695269526952E316B
:103BE00070F4FC01E20FF11D677021E030E001C0CC
:103BF000220F6A95EAF7209582812823228308956F
:103C000020911A01222329F020914D0227FD0C94C6
:103C1000D71D0C94B11D20911A01222329F0209167
:103C20004D0227FD0C94EB1D0C94CB1D20911A0125
:103C3000FC013296222331F080914D0287FF02C0B1
:103C40008EE101C086E0DF011D928A95E9F70895B3
:103C500008950C94281E0E94291E809154028430DD
:103C600061F11092080220E488E190E00FB6F89428
:103C7000A895809360000FBE2093600080E00E94B2
:103C8000250480E00E94BC040E94291E83B7817F26
:103C9000846083BF83B7816083BF7894889583B73E
:103CA0008E7F83BF0FB6F894A895809160008861DD
:103CB00080936000109260000FBE089508950895EB
:103CC000CF930E945E1E0E94F5090E945F1EC0E015
:103CD0008C2F0E948D09892B29F4CF5FC430C1F746
:103CE00080E001C081E0CF91089508950C94751E85
:103CF0000E94B1160E944D1F0E942D110E94BC040B
:103D00000C94761E1F920F920FB60F9211248F9370
:103D10009F93AF93BF9380910802811113C080914C
:103D2000490290914A02A0914B02B0914C024196F7
:103D3000A11DB11D8093490290934A02A0934B02AA
:103D4000B0934C02BF91AF919F918F910F900FBE96
:103D50000F901F90189582E084BD93E095BD9AEF77
:103D600097BD80936E0008952FB7F8948091490213
:103D700090914A02A0914B02B0914C022FBF08953E
:103D8000CF92DF92EF92FF920F931F932FB7F89489
:103D90004091490250914A0260914B0270914C024D
:103DA0002FBF6A017B01EE24FF248C0120E030E06C
:103DB000C016D106E206F30610F4415051099A01EB
:103DC000281B390BC9011F910F91FF90EF90DF90D5
:103DD000CF90089578941F920F920FB60F921124EE
:103DE0008F939F93AF93BF938091490290914A0222
:103DF000A0914B02B0914C020196A11DB11D809380
:103E0000490290934A02A0934B02B0934C02BF9197
:103E1000AF919F918F910F900FBE0F901F901895AB
:103E200081E08093E00080E28093D8001092C90086
:103E30008FE19EE40197F1F700C0000087E090EB6E
:103E4000DC0180935D0290935E02A0935F02B093C9
:103E500060029CE088E10FB6F894A895809360001A
:103E60000FBE90936000FFCF0E94161D811102C00B
:103E70000E94991D0E94211D809307020E94291D06
:103E800090E090934E0280934D020E94251D682F72
:103E900070E080E090E00C948C1A0E94161D811155
:103EA00002C00E94991D0E94321D80934F02282F4C
:103EB000269530E02730310524F081708C608093A6
:103EC0004F0280914F0280FF02C0869501C080E0C2
:103ED0000C94250420914F02822F8695482F50E0A4
:103EE0004630510544F48F5F982F990F822F8170CF
:103EF000892B80934F0280914F02816080934F0203
:103F00000E94361D80914F0286950C942504809165
:103F10004F02982F969591F09158990F8170892BA7
:103F200080934F028E7F91E009F490E080914F02E0
:103F300090FB80F980934F020E94361D80914F02C2
:103F400086950C94250480914F0280FD11C08160FC
:103F500080934F02813019F483E080934F02809167
:103F60004F020E94361D80914F0286950C942504C5
:103F7000089580914F0280FF08C08E7F80934F028A
:103F80000E94361D80E00C942504089580914F0214
:103F900080FD0C94B91F0C94A31F90914F02892FA0
:103FA00086958F5F8F779170873028F4880F892BE3
:103FB00080934F0202C090934F0280914F028E7FF8
:103FC00091E009F490E080914F0290FB80F980939A
:103FD0004F020E94361D80914F0286950C94250455
:103FE000873008F086E0880F90914F029170892BFE
:103FF00080934F028E7F91E009F490E080914F0210
:1040000090FB80F980934F020E94361D80914F02F1
:1040100086950C94250480912902089508950F93A4
:104020001F93CF93DF9300D01F92CDB7DEB78C01E3
:104030000E945422823011F0843021F584E089837B
:104040001B830A8382E08093E9008FEF9091E80060
:10405000815095FD06C095ED9A95F1F7000081110C
:10406000F5CF8091E80085FF0DC040E050E063E0AF
:1040700070E0CE0101960E9471228091E8008E7757
:104080008093E8000F900F900F90DF91CF911F91D8
:104090000F910895CF93DF9300D01F92CDB7DEB775
:1040A00020915402243031F523E02983805891096E
:1040B0009B838A8382E08093E9008FEF9091E800F0
:1040C000815095FD06C095ED9A95F1F7000081119C
:1040D000F5CF8091E80085FF0DC040E050E063E03F
:1040E00070E0CE0101960E9471228091E8008E77E7
:1040F0008093E8000F900F900F90DF91CF9108957B
:10410000CF93DF93EC010E945422823011F084306F
:10411000D9F580911A01882339F080914D0287FFEB
:1041200003C060E282E002C068E081E08093E900C1
:104130008FEF9091E800815095FD06C095ED9A951E
:10414000F1F700008111F5CF8091E80085FF1CC0D8
:1041500080911A01811105C040E050E068E070E0F4
:1041600003C070E040E050E0CE010E9471228091D7
:10417000E8008E778093E80080E2FE01A9E0B2E0DB
:1041800001900D928A95E1F7DF91CF91089580918A
:104190005302811109C00E9406240E946324809169
:1041A000E20084608093E200089510925302089523
:1041B000089508950C94781E42E061EC81E00E941D
:1041C000802342E261EC82E00C94802380915602CD
:1041D000833009F460C030F4813071F0823009F42A
:1041E00099C008958A3009F485C08B3009F46BC0FA
:1041F000893009F0A7C020C080915502813A09F0AA
:10420000A1C08091E800877F8093E80080915902E7
:1042100090915A02892B21F460E289E092E003C078
:1042200060E080E090E070E00E94BC228091E800B5
:104230008B778093E800089580915502813209F0D0
:1042400081C08091590290915A02029708F07AC079
:104250008091E800877F8093E8008091E80082FDEC
:1042600005C0809154028111F8CF6CC02091F300F9
:104270008091F20090E0922B029729F48091F10056
:104280008B7F813021F48091F1008093290280910D
:10429000E8008B7753C080915502813A09F052C0F3
:1042A0008091590290915A02892B09F04BC080915C
:1042B000E800877F8093E8008091E80080FFFCCFD2
:1042C00080911A0136C0809155028132D9F58091D2
:1042D000590290915A02892BA9F58091E800877FB5
:1042E0008093E8000E94B5238091570280931A01C1
:1042F0000C94B11680915502813221F58091E8002D
:10430000877F8093E8000E94B523809158028093B4
:104310002A02089580915502813AA1F48091E80023
:10432000877F8093E8008091E80080FFFCCF809138
:104330002A028093F1008091E8008E778093E80054
:104340000C94B523089584B7877F84BF0FB6F89483
:10435000A895809160008861809360001092600051
:104360000FBE80E880936100109261000E948D1161
:104370000E9406240E9463248091E200846080935E
:10438000E20078940E94F2260E94951180E191E06B
:104390000E94281180915402853069F40E942B1EDE
:1043A000809152028823B1F30E94601E882391F30A
:1043B0000E945B22EFCF0E94A1110E94B00FEACFB2
:1043C0000C94E221292F332723303105C9F064F4FE
:1043D0002130310581F02230310509F04CC08BE3EA
:1043E00090E025E435E04BC02132310521F1223245
:1043F000310589F140C082E190E020E835E03FC01E
:1044000099278130910571F02CF4892BA1F5E1E415
:10441000F5E00DC08230910541F0039761F5E9E1C7
:10442000F5E005C0EDE2F5E002C0EFE1F5E08491D2
:1044300090E09F0124C06115710541F06130710564
:10444000D1F489E090E020E735E019C089E090E000
:1044500027E535E014C06115710541F06130710543
:1044600051F481E790E022E935E009C080E490E072
:1044700023E036E004C080E090E020E030E0FA0184
:104480003183208308950895CF93C82F0E9443223B
:10449000C0932B02CF91089580915402843011F083
:1044A00081E0089582E0089580912B02811102C07D
:1044B0000C944C22089580E189BD82E189BD09B444
:1044C00000FEFDCF8091D8008F7D8093D800809131
:1044D000E00082608093E0008091E00081FDFCCFED
:1044E0000895CF92DF92EF92FF920F931F93CF9395
:1044F000DF93EC018B016A010E94D423811133C048
:10450000C114D10439F0F60180819181081B190B87
:10451000C80FD91FE12CF12C0115110519F180915B
:10452000E80085FD16C08091E8008E778093E80052
:10453000C114D10449F0F60180819181E80EF91E81
:10454000F182E08285E00FC00E94D423882321F30A
:104550000AC089918093F10001501109FFEFEF1A11
:10456000FF0ADACF80E0DF91CF911F910F91FF908A
:10457000EF90DF90CF90089520915B0230915C0224
:104580002617370748F06115710539F42091E800C6
:104590002E772093E80001C0B90140E06115710554
:1045A000A9F120915402222309F443C0253009F4D3
:1045B00042C02091E80023FD40C02091E80022FD88
:1045C00032C02091E80020FFE9CF4091F300209114
:1045D000F20030E0342BFC01CF016115710559F078
:1045E0002830310540F481918093F10061507109C8
:1045F0002F5F3F4FF1CF41E02830310509F040E017
:104600002091E8002E772093E800C8CF4111C9CF50
:104610000AC080915402882361F0853061F0809156
:10462000E80083FD0AC08091E80082FFF2CF80E0BD
:10463000089582E0089583E0089581E0089520912F
:104640005B0230915C022617370748F0611571054F
:1046500039F42091E8002E772093E80001C0B901D9
:10466000FC0120E06115710591F1809154028823CD
:1046700009F440C0853009F43FC08091E80083FD13
:104680003DC08091E80082FD2FC08091E80080FF4E
:10469000E9CF2091F3008091F20090E0922B611518
:1046A000710559F08830910540F424912093F10070
:1046B0003196615071090196F2CF21E0089709F017
:1046C00020E08091E8008E778093E800CBCF211125
:1046D000CCCF0AC080915402882361F0853061F00C
:1046E0008091E80083FD0AC08091E80082FFF2CF4C
:1046F00080E0089582E0089583E0089581E00895C0
:10470000982F973058F59093E900981739F07091E9
:10471000EC002091ED005091F00003C0242F762F83
:1047200050E021FF19C03091EB003E7F3093EB0049
:104730003091ED003D7F3093ED003091EB00316022
:104740003093EB007093EC002093ED005093F00059
:104750002091EE0027FF07C09F5FD3CF8F7080931B
:10476000E90081E0089580E008958091550287FF77
:1047700011C08091E80082FD05C080915402811132
:10478000F8CF11C08091E8008B770BC08091540264
:10479000882349F08091E80080FFF8CF8091E800FD
:1047A0008E778093E80008952091E4003091E50031
:1047B00095E64091EC00842F817040FF22C08091EB
:1047C000E80080FD1CC080915402882391F0853060
:1047D00091F08091EB0085FD10C04091E400509174
:1047E000E5004217530729F39A01915011F784E02D
:1047F000089582E0089583E0089581E0089580E0BF
:1048000008954091E80042FFDECF08950E9474248D
:104810000E947C24E0EEF0E0808181608083E8EDFE
:10482000F0E080818F77808319BCA7EDB0E08C9198
:104830008E7F8C9380818F7E8083109253020895A7
:104840000F931F93CF93DF930E9474240E947C24C4
:10485000C8EDD0E088818F778883888180688883DD
:1048600088818F7D888319BC109254021092500267
:10487000109252021092510200EE10E0F801808175
:104880008B7F808388818160888342E060E080E064
:104890000E948023E1EEF0E080818E7F8083E2EE53
:1048A000F0E0808181608083808188608083F8016E
:1048B00080818E7F8083888180618883DF91CF9122
:1048C0001F910F910895E8EDF0E080818F7E808345
:1048D000E7EDF0E080818160808384E082BF81E049
:1048E000809353020C942024E8EDF0E080818E7FC9
:1048F00080831092E20008951092DA001092E10095
:1049000008951F920F920FB60F9211242F933F9389
:104910004F935F936F937F938F939F93AF93BF93C7
:10492000EF93FF938091E10082FF0BC08091E20042
:1049300082FF07C08091E1008B7F8093E1000E949D
:10494000F1268091DA0080FF1FC08091D80080FF9F
:104950001BC08091DA008E7F8093DA008091D900AD
:1049600080FF0DC080E189BD82E189BD09B400FEF0
:10497000FDCF81E0809354020E94C72005C019BC7E
:10498000109254020E94D5208091E10080FF19C04E
:104990008091E20080FF15C08091E2008E7F8093BD
:1049A000E2008091E20080618093E2008091D80073
:1049B00080628093D80019BC85E0809354020E94E5
:1049C000D9208091E10084FF30C08091E20084FF13
:1049D0002CC080E189BD82E189BD09B400FEFDCF14
:1049E0008091D8008F7D8093D8008091E1008F7EE8
:1049F0008093E1008091E2008F7E8093E2008091BD
:104A0000E20081608093E20080915002882311F0DF
:104A100084E007C08091E30087FD02C081E001C00F
:104A200083E0809354020E94DA208091E10083FFAA
:104A300029C08091E20083FF25C08091E100877F3B
:104A40008093E10082E080935402109250028091A2
:104A5000E1008E7F8093E1008091E2008E7F809361
:104A6000E2008091E20080618093E20042E060E039
:104A700080E00E9480238091F00088608093F000A5
:104A80000E94D820FF91EF91BF91AF919F918F919C
:104A90007F916F915F914F913F912F910F900FBE3A
:104AA0000F901F9018951F920F920FB60F9211241E
:104AB0002F933F934F935F936F937F938F939F9326
:104AC000AF93BF93CF93DF93EF93FF93C091E90030
:104AD000CF708091EC00D82FD17080FDD0E810927B
:104AE000E9008091F000877F8093F00078940E9425
:104AF00097251092E9008091F00088608093F00083
:104B0000CD2BCF70C093E900FF91EF91DF91CF9152
:104B1000BF91AF919F918F917F916F915F914F91D5
:104B20003F912F910F900FBE0F901F9018951F93DC
:104B3000CF93DF93CDB7DEB7AA970FB6F894DEBF59
:104B40000FBECDBFE5E5F2E088E08E0F9091F10059
:104B500091938E13FBCF0E94E6208091E80083FFA3
:104B600028C18091550290915602492F50E04A3059
:104B7000510508F01EC1FA01E556FF4F0C94672756
:104B8000803821F0823809F014C108C080915102A8
:104B900090915202992389F082600FC0809159024E
:104BA0008F70873008F005C18093E9008091EB0099
:104BB00085FB882780F91092E9009091E800977FA3
:104BC0009093E8008093F1001092F100D0C0282F5C
:104BD0002D7F09F0EEC0882319F0823061F0E9C022
:104BE00080915702813009F0E4C0933009F080E0F1
:104BF000809352022EC08091570281112AC0809169
:104C000059028F702FEF280F263008F0D2C0809302
:104C1000E9002091EB0020FF1CC0933021F480912B
:104C2000EB00806214C09091EB0090619093EB00D8
:104C300021E030E0A90102C0440F551F8A95E2F738
:104C40004093EA001092EA008091EB008860809324
:104C5000EB001092E9008091E800877F8093E800E4
:104C60000E94B523A6C08111A4C0109157021F77DE
:104C70008091E3008078812B8093E3008091E800AD
:104C8000877F8093E8000E94B5238091E80080FF31
:104C9000FCCF8091E30080688093E300111102C093
:104CA00082E001C083E08093540283C08058823048
:104CB00008F07FC080915702909158028C3D53E0DC
:104CC000950779F583E08A838AE289834FB7F89460
:104CD000DE01139620E03EE051E2E32FF0E0509336
:104CE0005700E49120FF03C0E295EF703F5FEF7043
:104CF0008E2F90E0EA3010F0C79601C0C0968D93D9
:104D00009D932F5F243149F74FBF8091E800877F43
:104D10008093E8006AE270E0CE0101960E94BC2216
:104D200015C06091590270915A02AE014F5F5F4FFA
:104D30000E94E021BC01892BE1F19091E800977F6E
:104D40009093E80089819A810E941F238091E80056
:104D50008B778093E8002DC0803859F58091E8006A
:104D6000877F8093E800809150028093F1008091CA
:104D7000E8008E7773CF81111CC09091570292305A
:104D8000C0F48091E800877F8093E8009093500200
:104D90000E94B52380915002811106C08091E300EA
:104DA00087FD02C081E001C084E0809354020E942C
:104DB000DC208091E80083FF0AC08091E800877FB3
:104DC0008093E8008091EB0080628093EB00AA96CC
:104DD0000FB6F894DEBF0FBECDBFDF91CF911F910C
:104DE00008950895CF93809154028823A1F0C09133
:104DF000E900CF709091EC00892F817090FD80E8E0
:104E0000C82B1092E9008091E80083FD0E9497254D
:104E1000CF70C093E900CF910895DB018F939F93EA
:104E20000E947C27BF91AF91A29F800D911DA39FEF
:104E3000900DB29F900D11240895AA1BBB1B51E148
:104E400007C0AA1FBB1FA617B70710F0A61BB70BFA
:104E5000881F991F5A95A9F780959095BC01CD019F
:104E6000089597FB072E16F4009407D077FD09D01C
:104E70000E941D2707FC05D03EF4909581959F4F19
:104E80000895709561957F4F0895A1E21A2EAA1B8F
:104E9000BB1BFD010DC0AA1FBB1FEE1FFF1FA217EA
:104EA000B307E407F50720F0A21BB30BE40BF50BE7
:104EB000661F771F881F991F1A9469F76095709570
:104EC000809590959B01AC01BD01CF010895EE0F37
:104ED000FF1F0590F491E02D0994A29FB001B39FAC
:104EE000C001A39F700D811D1124911DB29F700DF3
:104EF000811D1124911D08950E946D27A59F900D7D
:104F0000B49F900DA49F800D911D11240895FC0164
:104F10004150504030F001900616D1F73197CF0143
:104F20000895882799270895F999FECF92BD81BDEC
:104F3000F89A992780B50895A6E1B0E044E050E0E2
:104F40000C94CE27A8E1B0E042E050E00C94CE27CC
:104F5000262FF999FECF92BD81BDF89A019700B432
:104F6000021639F01FBA20BD0FB6F894FA9AF99AD2
:104F70000FBE08950396272F0E94A9270E94A827F5
:104F8000252F0E94A927242F0C94A9270196272FAB
:104F90000E94A9270C94A827DC01CB01FC01F999F8
:104FA000FECF06C0F2BDE1BDF89A319600B40D9275
:0C4FB00041505040B8F70895F894FFCF2E
:104FBC0001020801191A1B1C1D1E1F202122E401CD
:104FCC000B2080200E204A200F2001F0F1F4F5F682
:104FDC00F736353497969293953700010202020208
:104FEC000606060909090909090F0F0F0F0F0F15FE
:104FFC001515181919191919191919191923240022
:00000001FF
