:100000000C94CF020C9407030C9407030C94070381
:100010000C9407030C9407030C9407030C94070338
:100020000C9407030C9407030C9469250C943D264B
:100030000C947C200C9407030C9407030C94070386
:100040000C9407030C9407030C9407030C94070308
:100050000C9407030C9403210C9407030C940703DE
:100060000C9407030C9407030C9407030C940703E8
:100070000C9407030C9407030C9407030C940703D8
:100080000C9407030C9407030C9407030C940703C8
:100090000C9407030C9407030C9407030C940703B8
:1000A0000C9407030C9407030C940703167C1E00A2
:1000B0001F0020002100220023002400250026002C
:1000C00027002D002E0031002B0014001A0008001C
:1000D000150017001C0018000C00120013002F0060
:1000E00030003500394204001600070009000A00FC
:1000F0000B000D000E000F003300340000002A003A
:100100001A7C00001D001B000600190005001100EC
:1001100010003600370038001B7C28000000E0008B
:10012000E200000000002C000000000000000000C1
:100130000000E600E400215201003A003B003C00D0
:100140003D003E003F0040004100420043004400AB
:100150004500010001004B0052004E00010001006B
:100160000100010001000100010001000100010087
:100170000100500051004F0001000100010001008A
:10018000010001000100010000004C00010000001E
:100190004A004D00010001000100010001000100C2
:1001A0000100010001000100000001000100000049
:1001B0000000E3000000000000000000000001005B
:1001C000010001000000000000000000000000002D
:1001D000000000000000000000000000000000001F
:1001E0002178000000000000000000000000000076
:1001F00000000000000000000000000000000000FF
:1002000000000000000000000000000000000000EE
:100210000000000000000000000000000000207846
:1002200004780378A900AA00000000000000000084
:1002300000000000000000000000000000000000BE
:1002400000000000000000000000010001000100AB
:100250001E0F0500047F3F1F643214643214783C83
:100260001E1E140A052223252628292A2C2D2F306C
:1002700032333536383A3B3D3E4042434547494AA2
:100280004C4E5051535557595A5C5E6062646668D3
:10029000696B6D6F71737577797B7D7F81838587DE
:1002A000898A8C8E90929496989A9C9E9FA1A3A5E1
:1002B000A7A8AAACAEAFB1B3B4B6B8B9BBBCBEBF09
:1002C000C1C2C3C5C6C7C9CACBCCCDCED0D1D2D28C
:1002D000D3D4D5D6D7D7D8D9D9DADADBDBDBDCDC97
:1002E000DCDCDCDDDDDDDDDCDCDCDCDCDBDBDBDA4F
:1002F000DAD9D9D8D7D7D6D5D4D3D2D2D1D0CECDBA
:10030000CCCBCAC9C7C6C5C3C2C1BFBEBCBBB9B8C6
:10031000B6B4B3B1AFAEACAAA8A7A5A3A19F9E9C4B
:100320009A98969492908E8C8A89878583817F7D16
:100330007B79777573716F6D6B6968666462605EF7
:100340005C5A5957555351504E4C4A4947454342C0
:10035000403E3D3B3A3836353332302F2D2C2A295A
:100360002826252322FFAA7F554000010101010113
:10037000010101010202020202020202020303035E
:10038000030303030304040404040404050505052E
:1003900005060606060607070707070808080809EE
:1003A0000909090A0A0A0B0B0B0C0C0C0D0D0D0E9A
:1003B0000E0E0F0F0F10101111111212131314142F
:1003C000151516161717181819191A1A1B1B1C1DA4
:1003D0001D1E1E1F202021222223242425262627FD
:1003E0002829292A2B2C2D2D2E2F3031323233342F
:1003F00035363738393A3B3C3D3E3F404142434435
:1004000045464748494A4C4D4E4F50515354555616
:1004100058595A5B5D5E5F616264656668696B6CC2
:100420006D6F7072737577787A7B7D7E808283853D
:1004300087888A8C8E8F91939596989A9C9EA0A27D
:10044000A3A5A7A9ABADAFB1B3B5B7BABCBEC0C287
:10045000C4C6C9CBCDCFD1D4D6D8DBDDDFE2E4E74B
:10046000E9EBEEF0F3F5F8FAFDFF100354006F002E
:100470006B0079006F003600300000001E0354004E
:100480006F006B0079006F0020004B006500790061
:1004900062006F0061007200640000000403090440
:1004A00009023B00020100A032090400000103011F
:1004B0000100092111010001224400070581030800
:1004C00000010904010001030000000921110100DD
:1004D00001226D00070582032000011201000200C5
:1004E00000000836546060010001020001050109A6
:1004F00080A101850319012AB700150126B70095CF
:100500000175108100C0050C0901A10185041901C4
:100510002AA002150126A002950175108100C005D0
:10052000010906A1018506050719E029E71500253F
:10053000019508750181020507190029EF150025AD
:100540000195F075018102050819012905950575C8
:10055000019102950175039101C005010906A101F0
:10056000050719E029E715002501950875018102A5
:100570009501750881010507190029FF150026FF5F
:100580000095067508810005081901290515002543
:1005900001950575019102950175039101C0112422
:1005A0001FBECFEFDAE0DEBFCDBF04B603FE18C03A
:1005B00080915B0390915C03A0915D03B0915E0319
:1005C0008730904BA740B04B59F410925B031092C8
:1005D0005C0310925D0310925E03E0E0F8E309957E
:1005E00011E0A0E0B1E0EEE0F5E502C005900D926B
:1005F000A23DB107D9F723E0A2EDB1E001C01D9201
:10060000AB35B207E1F70E94DA120C94F2290C9490
:1006100000008330B8F46530A8F44E3098F450E010
:100620009EE0699F400D511D1124FA0196E4899FB7
:10063000E00DF11D1124EE0FFF1FE455FF4F8591D2
:100640009491089581E090E008950E94090308952F
:1006500081E008950E942803089581E008950E9492
:10066000280308950E942F03089508950E943503DA
:100670000895A6E0B0E0EFE3F3E00C949E284983F0
:100680005A839E833091D90189819A8131111AC090
:100690003E81332399F0222389F00E942609182FE6
:1006A000682F89819A810E94020969817A81812F4C
:1006B0000E9415102696E3E00C94BA280E941409B3
:1006C000182FF3CF0E94260969817A81F1CFFC01AE
:1006D000262F4081518162817381848195810E949E
:1006E00039030895CF93DF93EC0161E00E94670323
:1006F000BE010E942A03DF91CF910895CF93DF932B
:10070000EC0160E00E946703BE010E943603DF91A6
:10071000CF91089508950E94D7070E948A032FEF72
:1007200084E39CE0215080409040E1F700C000004D
:1007300008950E948B030E94272108950E948B0335
:100740000E944B2108950F931F93CF93DF938C0149
:1007500061E00E946703EC01B8010E94320381113D
:1007600006C080E0DF91CF911F910F910895B801ED
:10077000CE010E94951B8823A1F3B801CE010E94EF
:10078000B71E882371F3B801CE010E94A41C8823F0
:1007900041F3B801CE010E94291E882311F3B8014C
:1007A000CE010E943B1A8823E1F2F801858188235B
:1007B00061F0C330FCE7DF07E9F058F4C115ECE75E
:1007C000DE07A9F0C130DC47B9F0C8010E942D0353
:1007D000C9CFCB358CE7D807A9F0CC35ECE7DE07DD
:1007E00071F0CA35DC4789F70E945C0DEECF0E949C
:1007F0009903B7CF0E94640D0E949E03B2CF0E945E
:10080000520DE3CF0E94600DE0CF0E94582080E09F
:100810000E94741B0E94310408950E94C11A0E9414
:1008200035040E945D200895089581E0089508959B
:10083000CF93DF93D82F0E941504C82F882319F077
:100840008D2F0E9417048C2FDF91CF91089508956A
:10085000CF93C82F0E9414048C2F0E941804CF91AC
:10086000089580E00E94280408950E94001F0E94BD
:1008700028040895CF930E94001FC82F8091D401AF
:100880008C1779F0C093D4010E94E8206093D501C1
:100890007093D6018093D7019093D8018C2F0E943A
:1008A0002804CF910895ADE0B0E0E9E5F4E00C94C0
:1008B0009F28488759876A877B878C879D879111F6
:1008C0000E948A0C1F8286E0FE013896DE01119696
:1008D00001900D928A95E1F78D8181110DC02981DA
:1008E0003A814B815C816D817E818F810E94BD0B3D
:1008F0002D96E2E00C94BB28CE0101960E94720373
:100900008111EDCFF5CFFC012481213021F48081CC
:1009100091810E9458090895CF93C82F8823C9F068
:100920008238C9F40E940D1F81FD13C089E30E9423
:10093000420C0E94C30C2FEF87EE93E021508040C1
:100940009040E1F700C0000089E30E944A0C0E9439
:10095000C30CCF9108958338A1F40E940D1F80FD30
:10096000F8CF83E50E94420C0E94C30C2FEF81EE6A
:1009700094E0215080409040E1F700C0000083E502
:10098000E4CF8438A1F40E940D1F82FDE2CF87E4FA
:100990000E94420C0E94C30C2FEF81EE94E0215084
:1009A00080409040E1F700C0000087E4CECF8CEF9C
:1009B0008C0F813AB8F48C2F0E94F21D8111C9CF9F
:1009C0006C2F80910401909105010E94881F88235B
:1009D00029F08C2F0E944A0C0E94C30C8C2F0E947D
:1009E000420CB5CF80E28C0F883048F4C77081E0AC
:1009F00001C0880FCA95EAF70E946D0CA8CFEBE5FD
:100A0000EC0FE33040F4F0E0E85AFE4F808190E0D4
:100A10000E942A1F9ECFC85ACB3108F09ACFEC2FE4
:100A2000F0E0EE0FFF1FEE5DFE4F808191810E948E
:100A30004F1F8FCF882309F44DC0823879F40E946C
:100A40000D1F81FF47C089E30E94420C0E94C30C26
:100A500089E30E944A0C0E94C30C0895833859F41C
:100A60000E940D1F80FF36C083E50E94420C0E9449
:100A7000C30C83E5EECF843859F40E940D1F82FF2A
:100A800029C087E40E94420C0E94C30C87E4E1CF96
:100A90009CEF980F913AE8F290E2980F983050F45A
:100AA000877091E001C0990F8A95EAF7892F0E941B
:100AB000730CD1CF9BE5980F933028F490E080E041
:100AC0000E942A1F0895885A8B3120F490E080E01C
:100AD0000E944F1F08951F93CF93DF93182FEB01B0
:100AE0000E948C04209739F4812F0E941A05DF910F
:100AF000CF911F9108958FE99FE00197F1F700C012
:100B000000002197EFCF70E060E0893311F460E5D9
:100B100070E00E946B050895882321F00E946D0CFF
:100B20000E94C30C0895882321F00E94730C0E9438
:100B3000C30C0895B0E0A0E0E0EAF5E00C9498283A
:100B40006C01D62FC72FFC011581068102950F700D
:100B50000E94630CE82E8823E9F0E12E1123D1F0E6
:100B60008C2F807F803451F080E28D0F8830F8F038
:100B7000011104C08C2F807E8032C9F080910E0359
:100B800082FF15C082E00E94260D0E94630C91E056
:100B9000E82EE926BC2EB2949FE0B922FBE0FB15BB
:100BA000B8F1EB2DF0E0EC50F64D0C945828E12C08
:100BB000F1CF0C2F0F70C07F11F00295007F112331
:100BC00099F0002359F080E28D0F883010F0D11198
:100BD00007C0802F0E946D0C0E94C30C8D2F5AC03D
:100BE000802F0E947D0CF8CF8D2F0E941A050023C4
:100BF00079F080E28D0F883010F0D11104C0802F81
:100C00000E94730C03C0802F0E94830C0E94C30CAF
:100C1000EB2DE850FF0B349720F40E94001F0E9438
:100C20002804EE2089F00E945F0C80FD0DC0F601C3
:100C300015820E94590C0E946008C6010E94A207FA
:100C40000E94590C0E947008CDB7DEB7E9E00C9401
:100C5000B4282C2F2F70F22EC07FC03219F0F294DE
:100C600080EFF822DD2341F0D130D1F1112309F4D6
:100C700044C00023F1F0B2CF80910E0382FD15C075
:100C8000112359F0FF2029F08F2D0E946D0C0E9436
:100C9000C30C80E00E948C04BBCF80E00E941A0548
:100CA000FF2009F4B5CF8F2DABCF112369F00111CF
:100CB00004C08F2D0E948C05ABCF013009F0A8CF66
:100CC0008F2D0E94A10CA4CF0111A2CF8F2D0E94C5
:100CD00093058F2D0E94AD0C8F2D0E94910C98CF03
:100CE000112321F0063008F093CFE3CF053008F050
:100CF0008FCF8F2D0E9493058BCF0023D1F3D93353
:100D000049F43FEF87EE93E0315080409040E1F7A7
:100D100000C000008D2F0E941A057ACF8C2F869577
:100D20008695837069F0813009F072CF8D2F9C2FEA
:100D30009370111102C080E090E00E944F1F68CFB5
:100D40008D2F9C2F9370111102C080E090E00E94C3
:100D50002A1F5ECF8C2F8370A1F5111159CF4D2F13
:100D6000429546954770440F440F2D2F2F7030E069
:100D7000042E02C0220F331F0A94E2F790E080E0B5
:100D8000D4FF09C08FE090E002C0880F991F4A95F8
:100D9000E2F780959095C695C695C370822B932BEC
:100DA000C23049F058F4C13019F00E94300830CFF9
:100DB0000E9427082DCF0E9439082ACF0E942408BC
:100DC00027CF8695112311F08C2F8170882309F489
:100DD0001FCF4D2F429546954770440F440F2D2F3E
:100DE0002F7030E0042E02C0220F331F0A94E2F766
:100DF00090E080E0D4FF09C08FE090E002C0880F4F
:100E0000991F4A95E2F780959095C695C695C3704F
:100E1000822B932BC23049F058F4C13019F00E9454
:100E20009B08F6CE0E949208F3CE0E94A408F0CE52
:100E30000E944808EDCECF70112329F08C2F0E941C
:100E400060088D2F37CF8D2F0E9493058C2F0E9425
:100E50007008DECED23F41F160F4D03FB9F0D13F0F
:100E600081F0112309F446C00111B8CE8C2F8F7187
:100E70001FC0D33F01F1D43FA1F780910E0382FD43
:100E800024C08C2F8F71112311F312C0112341F054
:100E9000053008F0BDCE8C2F8F710E948208B8CE2D
:100EA000063008F0B5CEF7CF8C2F8F711111CFCF50
:100EB0000E946008ADCE112329F08C2F8F710E9403
:100EC0005408A6CE0E944F08A3CE112349F0CF713B
:100ED0008C2F0E94600863E08C2F0E94080D98CE32
:100EE00081E00E94260D023008F492CE82E00E943A
:100EF000260D8ECE002359F0D93309F00BCFEFEF3A
:100F0000F7EE23E0E150F0402040E1F701CF8C2FD5
:100F10008F719DCF0F931F93CF93DF93EC01688167
:100F200079818D810E9463098C010E94AD080E9425
:100F30002308B801CE010E949A05DF91CF911F913D
:100F40000F910895CF93DF93EC018C81882399F062
:100F5000CE010E94A303811111C00E94630C88235B
:100F600051F08D81882339F080910E0382FF03C0F8
:100F700082E00E94260DDF91CF910895CE010E945C
:100F80008A07CE010E947E03F6CF90E080E00E94A7
:100F90002A1F90E080E00E944F1F0E948A0C0E944E
:100FA000C30C08950E94520C0E94C50708950E9428
:100FB0007A0C0E94D207089592959F70963091F016
:100FC00058F4925F9F70923058F4803F19F030F4DB
:100FD000883E30F481E008959A5FF4CF843FD1F3E6
:100FE00080E00895883EB0F3813FD1F7F3CFFC0154
:100FF0002481222339F0808191810E9458090E9426
:10100000DC07089580E00895A6E0B0E0EAE0F8E0AB
:101010000C949F282696E2E00C94BB28A7E0B0E051
:10102000E4E1F8E00C949F282796E2E00C94BB28BA
:1010300008950E94180808950E94190890930102CB
:1010400080930002089508950E941C08089520913D
:10105000000230910102822B932B0E941C080895FC
:101060002091000230910102822393230E941C08E8
:1010700008952091000230910102822793270E9457
:101080001C0808950E94180808950E9442080895B7
:101090000E9445089093FF018093FE01089590E01F
:1010A00080E00E944808089521E030E0A90102C0D4
:1010B000440F551F8A95E2F7CA010E944808089517
:1010C00021E030E002C0220F331F8A95E2F78091C1
:1010D000FE019091FF01822B932B0E9448080895F6
:1010E00021E030E002C0220F331F8A95E2F72095FD
:1010F00030958091FE019091FF01822393230E94FD
:101100004808089521E030E002C0220F331F8A957D
:10111000E2F78091FE019091FF01822793270E94C0
:10112000480808952091FE013091FF01822B932BF6
:101130000E94480808952091FE013091FF0182230A
:1011400093230E94480808952091FE013091FF01E9
:10115000822793270E94480808950895262F277014
:1011600091E001C0990F2A95EAF723E076956795FB
:101170002A95E1F7660F771F660F771FFA01E60FD2
:10118000F71F50E040E0682F70E08191DF01119778
:101190009B01042E02C0369527950A94E2F7217030
:1011A00021952827292328272C934F5F5F4F443010
:1011B000510559F70895A82FA77023E096958795B4
:1011C0002A95E1F7880F991F880F991FFB01E80FF7
:1011D000F91F50E040E080E0219130E00A2E02C08B
:1011E000369527950A94E2F721703327042E01C023
:1011F000220F0A94EAF7822B4F5F5F4F443051056C
:1012000059F70895262F953070F48E3060F4682FCA
:1012100070E08EE0989F600D711D11244AED51E041
:10122000822F0E94AE080895292F953068F48E30E1
:1012300058F490E06AED71E03EE0239F800D911D2F
:1012400011240E94DB08089580E00895B0E0A0E03A
:10125000ECE2F9E00C9498287C010091FE011091D9
:10126000FF018091000290910102082B192BCFE021
:10127000D0E0CC24C394D12CBC2EC6010C2E02C0CD
:10128000880F991F0A94E2F780239123892B49F450
:10129000219790F7B12C8B2DCDB7DEB7E9E00C94F8
:1012A000B428B7018C2F0E942110019789F3F3CF46
:1012B000CF93DF93EC010E942609BE010E9421100A
:1012C000DF91CF9108951F93CF93DF93EB0190911E
:1012D000D901992339F0CB010E945809DF91CF91B0
:1012E0001F910895882369F0CB010E942609182FC9
:1012F000682FCE010E940209BE01812F0E94211099
:10130000EDCFCB010E941409182FF6CF1F93CF9376
:10131000DF93C091020217E0809103028C1304C096
:10132000DF91CF911F910895D0E01C9FF0011D9F88
:10133000F00D1124EC5FFD4F2081318142815381FA
:101340006481758186810E940E082196C770E4CF62
:1013500020913C0230913D0240913E0250913F026B
:101360006091400270914102809142020E940E08F9
:101370000895CF93DF9380914202807F09F04DC0A2
:1013800080914102882309F448C0E0910202509103
:101390000302C0913D02D0913C0260913E027091E7
:1013A0003F0247E05E17C9F18E2F90E0E49FF00105
:1013B0001124EC5FFD4F2481222391F1489FF0011D
:1013C000499FF00D1124DF01AC5FBD4F11962C91A8
:1013D00011972C1325C02C912D1322C015962C91FA
:1013E000159721111DC012962D913C91261B370B8C
:1013F000283C3105A8F4809142028F70806180936F
:101400004202E65FFD4F80818F70806180838CE3B4
:1014100092E00E94A2070E948609DF91CF91089571
:10142000FC013196E770BECF482F209102029091C7
:10143000030257E0291302C080E0089530E0529F74
:10144000F001539FF00D1124EC5FFD4F8181681373
:1014500006C08081481303C085818111EECF2F5FC4
:101460003F4F2770E7CFA4E1B0E0E9E3FAE00C9446
:1014700095288C0186E0F801DE011F9601900D92FF
:101480008A95E1F7F8018481E5809CE3A92E92E03A
:10149000B92E9091400291111FC08823D1F0EE2007
:1014A000A9F0C8010E94F707F82E882379F087E099
:1014B000F801D50101900D928A95E1F7C5010E94CE
:1014C00083040E94B9090E94A8095FC0C8010E9454
:1014D000A207FF24F39459C0C080D18082809380FA
:1014E000F090410220913E0230913F02A401421B44
:1014F000530BFF2009F4F9C0483C510508F0A7C080
:10150000882309F442C090913D0280914202282F25
:10151000207F09F05CC09D1116C090913C02C91259
:1015200012C0E1104EC08F708061809342020E9411
:10153000A8098CE392E00E94A20780914202F80180
:101540008683F12C22C0E1103CC06D2D8C2D0E94B1
:10155000140A6D2D8C2D0E94140AE82E8111F1CFF2
:10156000CF86D88A8F8598890E945809292F22957D
:101570002F70243078F49F702230A8F09923B9F0AE
:10158000F8019681907F99F4FE2C8F2D6496ECE003
:101590000C94B1282A5F2F70223068F0C8010E9495
:1015A000A207EF2CF1CF992311F0882369F3805E15
:1015B000883050F3F3CF803F38F3815F833070F78A
:1015C000E3CF80914202816080934202BACF9D11A5
:1015D00013C090913C02C9120FC0E1100DC0868368
:1015E000C8010E94A20787E0F801ACE3B2E00190D5
:1015F0000D928A95E1F767CFC8010E94F70788230B
:1016000009F464CFEE2009F461CF80914202803268
:1016100088F020913C0230913D02398728879B86D3
:101620008A86909140029C871D868E87CE010896FF
:101630000E94A20787E0F801ACE3B2E001900D92AE
:101640008A95E1F70E94B9090E94A80942CF9091BA
:101650004202292F207FA1F4682D9A8A898AA60147
:101660007A899E2D0E9404088CE392E00E94A207D2
:1016700087E0F50111928A95E9F70E94A80961CFE8
:10168000882309F482CF80913D028D1110C0809192
:101690003C02C8120CC0E1100AC09683C8010E9427
:1016A000A20787E0F50111928A95E9F76ECFC8018C
:1016B0000E94F707882309F409CFEE2009F406CF2A
:1016C00080914202803208F4B5CF20913C023091E3
:1016D0003D023A8329839C828B82909140029D83B4
:1016E0001E828F83CE010196A3CF483C5105B8F5E9
:1016F000882309F4EECEFE2CEE2009F4E7CE80918B
:101700003D028D111EC080913C02C8121AC080910A
:10171000420280FD0DC0982F907F51F08683903F4C
:1017200009F45ECF982F907F905F8F70892B57CFF1
:1017300087E0F801ACE3B2E001900D928A95E1F701
:1017400024CFC8010E94F707811174CF8091420213
:10175000816080934202C8010E94A20716CF682DC3
:101760009A8A898AA6017A899E2D0E94040887E0B8
:10177000F50111928A95E9F7A6CEAEE0B0E0E3EC70
:10178000FBE00C949E28288739874A875B876C8703
:101790007D878E87CE0108960E94330A8823B1F098
:1017A0006C85662341F0288539854A855B857D8572
:1017B0008E850E940E0817E080910202909103022C
:1017C00089133DC02E96E3E00C94BA2887E0FE0111
:1017D0003896DE01119601900D928A95E1F78C857D
:1017E000882349F32091030230E0C90101968770F4
:1017F0009927409102024817190699F097E0929FA5
:10180000D001939FB00D1124AC5FBD4FFE01319606
:1018100001900D929A95E1F7809303020E94860948
:10182000CACF0E94D707109203021092020287E0EB
:10183000ECE3F2E0DF011D928A95E9F7BCCF819FCE
:10184000C00111248C5F9D4F0E94330A882309F444
:10185000B9CFE09102021E9FF0011124EC5FFD4F11
:1018600020813181428153816481758186810E940A
:101870000E088091020290E001968770992780936C
:1018800002029ACF682F80910401909105010E9475
:1018900008200895682F80910401909105010E940D
:1018A0001620089580910401909105010E94242042
:1018B0000895809163028695869586950895809116
:1018C00063028770089590916302977081E009F434
:1018D00080E0089580918702089590918702892B76
:1018E0008093870208958095909187029823909322
:1018F0008702089510928702089590918602892B9D
:101900008093860208958095909186029823909303
:101910008602089510928602089508950E948D0C03
:10192000089590916402292F282331F0809589230E
:10193000809364020E948E0C089508950E949D0C6D
:10194000089590916502292F2823281729F0982BB4
:10195000909365020E949E0C089590916502292F34
:10196000282331F080958923809365020E949E0C84
:10197000089580916502882329F01092650280E025
:101980000E949E0C0895CF93DF93E0910401F091A3
:101990000501809187028083E0910401F0910501A7
:1019A000808190918602892B808390916502992392
:1019B00081F0E0910401F09105018081892B808301
:1019C00080910401909105010E94741F81110E9471
:1019D000B90CC0910401D091050140E250E063E4EC
:1019E00072E0CE010E946529892B59F080E2FE0148
:1019F000A3E4B2E001900D928A95E1F7CE010E9436
:101A0000101FDF91CF91089508950E94040D08954D
:101A100090910E0392FF11C098E0899F90011124CC
:101A2000622B609363020E94600880916302869536
:101A3000869586950E94050D08950E946008089578
:101A40001092630280E00E94050D08959091630258
:101A50008095892380936302282F277069F4891762
:101A600059F090910E0392FF07C086958695869552
:101A70000E9470080E94200D089590910E0392FB21
:101A8000222720F9281769F080FB92F990930E0322
:101A900080910D0390910E030E94850D82E00E94BB
:101AA000260D089580910E0382FB882780F991E02E
:101AB00089270E943D0D089581E00E943D0D089503
:101AC00080E00E943D0D08956FEF7FEF90E080E091
:101AD0000E94BD29089590E080E00E94892921E0BC
:101AE000863E9E4F09F020E0822F089582E090E02C
:101AF0000E947B29089583E090E00E947B2908954D
:101B000084E090E00E9489290895BC0184E090E07F
:101B10000E94BD290895AB01BC018FE090E00E94B6
:101B2000B1290895AB01BC0183E190E00E94B12985
:101B3000089560E070E0CB010E94920D089560E08E
:101B400070E0CB010E948B0D0E94990D0895A8E0D2
:101B5000B0E0EDEAFDE00C949F2866EE7EEF90E0A9
:101B600080E00E94BD2960E082E090E00E949F2911
:101B700060E083E090E00E949F29109201021092A1
:101B8000000260E074E184E090E00E94BD2960E022
:101B900086E090E00E949F296FEF87E090E00E942E
:101BA0009F2940E050E0BA0188E090E00E94B1290E
:101BB00060E084E290E00E949F2960E087E190E08D
:101BC0000E949F2960E08CE090E00E949F2960E0E5
:101BD0008DE090E00E949F2919821A821B821C824C
:101BE0001D821E821F82188648E050E068E170E086
:101BF000CE0101960E948F2940E050E0BA0180E2B8
:101C000090E00E94B1290E949F0D2896E2E00C947A
:101C1000BB280E94A70D0895682F8EE090E00E94D7
:101C20009F290895A6E0B0E0E8E1FEE00C949D282D
:101C30000E94DC208C01809188029091890280179B
:101C4000910781F019821A820E94DC20682F498155
:101C50005A81792F80E090E00E945304109389020A
:101C6000009388022696E4E00C94B9280E94E820AC
:101C7000609398027093990280939A0290939B02CA
:101C800060939402709395028093960290939702CA
:101C90000895089508950E94490E089508950E9498
:101CA0004E0E089587E191E10E94E7120E944A0ECC
:101CB0000E944B0E089581E008950E945B0E0895E6
:101CC0000E945B0E0895089508950E94630E0E947D
:101CD000640E08950E9436110E9427040E94671C1A
:101CE00008950E94D3200E9422120E946A0E0E9430
:101CF000C11A0E943F190E944F0E0895A6E0B0E05D
:101D0000E4E8FEE00C9493280E945D0E81110CC063
:101D10000E94120E0E9482190E94661C0E943A04C0
:101D20002696EEE00C94AF280E9438122AE8822E04
:101D300022E0922E640110E0F601E190F1906F0133
:101D4000812F0E945C111F5F153009F44BC0E8160B
:101D5000F90691F380919C0281FD0E9465110E9419
:101D6000600E782E10E066246394812F0E945C112F
:101D70007C01F401A190B1904F018A159B0561F19E
:101D800000E0CC24C394D12CAE24BF24C5018C2107
:101D90009D21892BC1F07720B1F009831A830E941D
:101DA000DC209C838B836D8221E0C7018C219D21E7
:101DB000892B09F420E049815A816B817C818D81D6
:101DC000922F0E9453040F5FCC0CDD1C0E30F1F6F5
:101DD000F4013297F182E0821F5F153031F60E94E4
:101DE000360E98CFE816F90609F0B4CF91CF1F93BD
:101DF000CF93DF930E942610EC01C11580E5D80730
:101E0000F0F5C11580E4D80708F09CC0C03ED105AC
:101E100020F5CD3CD10508F082C0C83AD10578F450
:101E2000C53AD10508F073C0C130D10519F120972A
:101E300009F1C430D105F0F4D0E0C0E01BC0C33CD0
:101E4000D105D0F7C85AD0E0CC0FDD1FC55ADE4F00
:101E50000990D881C02DD4640DC0C11580E2D80787
:101E600008F0D1C0C11581E0D80708F05AC0C83EBB
:101E7000D10510F7CE01DF91CF911F910895C036A3
:101E800082E5D80718F5C03482E5D80708F06BC0A2
:101E9000C03282E5D80708F05FC0C11582E5D807D7
:101EA00008F497C02C2F2695269580E2289F900154
:101EB00011248C2F8370C1E0D0E002C0CC0FDD1F55
:101EC0008A95E2F7C22BD32BDD68D4CFC03A82E5E6
:101ED000D80760F4C03882E5D80708F459C0CF713C
:101EE000D0E0DC2FCC27C46FD06AC4CFC03C82E5E1
:101EF000D80708F462C0C03E82E5D80708F09CCF3E
:101F0000DC2FCC27CC27DF71C06FD06AB3CFC55A86
:101F1000D0E0CF56DE4FC881D0E0D064ABCFD065E3
:101F2000A9CF8D2F0E94C810182FCE0199270E948B
:101F30002610C12FD0E0DC2FCC27CC27DF71C82B97
:101F4000D92B98CFCE0199270E942610CC27DF707D
:101F5000C82BD92BD06A8ECFCF71D0E0DC2FCC2705
:101F6000C16FD06A87CF2C2F26952695277080E2E7
:101F7000289F900111248C2F8370C1E0D0E002C013
:101F8000CC0FDD1F8A95E2F7C22BD32BDC6872CF12
:101F90002C2F26952695277080E2289F90011124EA
:101FA0008C2F8370C1E0D0E002C0CC0FDD1F8A957A
:101FB000E2F7C22BD32BDA685DCF8C2F8F710E9492
:101FC000C810C82FD0E0DC2FCC27CC27DF71D0621F
:101FD00051CF8C2F8F710E94C81055E0D695C795B0
:101FE0005A95E1F7CF70D0E0DC2FCC27282F30E0D6
:101FF00084FF05C044E0220F331F4A95E1F7C22B4E
:10200000D32BD06937CF8D2F8F710E94C810182F16
:10201000CE0199270E942610C12FD0E0DC2FCC27BB
:10202000CC27DF71C82BD92BD2CF462F753030F497
:102030006E3020F4672F0E942503089590E080E021
:1020400008950E9415100E94F70E08958238910598
:10205000B9F1B0F48133910509F47DC048F48932B7
:10206000910509F46DC08A32910509F47BC0089589
:102070008533910509F45FC08933910509F108950D
:10208000833E9105D9F138F4803E910529F1823ED5
:10209000910579F10895863E9105D9F1873E910524
:1020A00009F43EC0843E910541F520910E0321FFC5
:1020B00024C080910D0384FD19C087EE90E008953F
:1020C00020910D03237009F05AC020910E0323FFC5
:1020D00014C089E290E0089520910D0320FD38C0DE
:1020E00030910E0330FF09C024FF43C090E080E030
:1020F000089520910D0322FDF7CF089520910D033F
:1021000022FD3AC030910E0330FD39C024FFF5CFD7
:10211000EDCF20910D0323FFF0CF24FDE7CFCDCFEE
:1021200020910D0323FD2EC030910E0331FFEECF21
:1021300084EE90E0089520910D0325FFDECFC9CFF6
:1021400020910D0325FD21C020910E0323FFD5CF43
:1021500089E390E0D2CF20910D0326FFCECF8AE213
:1021600090E0089520910D0326FFC7CF81E390E012
:10217000089583EE90E0089582EE90E0089580EE59
:1021800090E0089586EE90E0089585E390E008954C
:1021900090910D0392FF10C041E0282F247124304C
:1021A00009F040E031E0282F2871283009F030E0B4
:1021B000431711F02CE0822793FF10C041E0282F35
:1021C0002471243109F040E031E0282F28712831B2
:1021D00009F030E0431711F02CE0822730910E0314
:1021E00030FF10C051E0282F2171213009F050E05C
:1021F00041E0282F2871283009F040E0541711F0F1
:1022000029E0822731FF10C041E0282F21712131C0
:1022100009F040E031E0282F2871283109F030E042
:10222000431711F029E0822794FD877E089580E00E
:1022300008950E94640D08950E9438122FEF86E7DA
:1022400091E0215080409040E1F700C000000E94E2
:10225000381280E00E945C1180FF04C00E941911B6
:102260000E94272108950E941C1108950E946B0D61
:10227000811102C00E94090E0E94760D80939C027B
:102280000E94800D90930E0380930D030E943311E2
:102290000E947B0D90E00E9424088091FE019091A5
:1022A000FF010E944508089508950E945411089561
:1022B00008950E9458110895E82FF0E0EE0FFF1FD7
:1022C000E75EFC4F808191810895089580EA8A95A8
:1022D000F1F7089500C008950E9466110895F894DA
:1022E000E82FE295EF70F0E031A1282F2F7081E008
:1022F00090E001C0880F2A95EAF7982F90959323D4
:1023000091A392A1892B82A3789408950F931F9390
:10231000CF93DF93C4E9D1E089918F3F11F00E9400
:102320006F1181E0C23AD807B9F7C2EAD1E007EAF3
:1023300011E089918F3F11F00E946F110C171D075A
:10234000C1F7DF91CF911F910F9108958F929F92C6
:10235000BF92CF92DF92EF92FF920F931F93CF9392
:10236000DF93D82EE92EF62E8A01C62FD0E0CC5668
:10237000DE4F28812F3F09F453C0F894E22FE295F5
:10238000EF70F0E031A12F7081E090E001C0880F84
:102390002A95EAF7932F982B91A392A180958923F0
:1023A00082A378940E946A1182EA882E81E0982E96
:1023B000ED2DFE2DBF01665F7F4FE12C6801C094BB
:1023C000D094D401BD904D0181919191AF014250C3
:1023D0005109BFEFBB1681F12B2D22952F7030E0F4
:1023E000D90190962C9130E0BB2DBF7002C035957D
:1023F0002795BA95E2F720FD1FC0802B912BDA01BB
:102400008D939C93EE24E3946E177F07D1F6888119
:102410008F3F11F00E946F116E2D8F2D0E946C1155
:10242000DF91CF911F910F91FF90EF90DF90CF90B0
:10243000BF909F908F9008958C219D21DA018D93FC
:102440009C93E2CF0E9486118AE0E9E1F3E0DF018C
:10245000982F1D929A95E9F7EFE0F3E0DF011D92C6
:102460008A95E9F785E00E948C120E945511089523
:10247000CF92DF92FF920F931F93CF93DF93CDB74D
:10248000DEB72A970FB6F894DEBF0FBECDBF8E0120
:102490000F5F1F4F8AE0F80111928A95E9F7F12C3E
:1024A000CC24C394D12CA6016F2DC8010E94A61183
:1024B000F394CC0CDD1CFEE0FF12F5CF4AE050E0B7
:1024C000B8018FE093E00E94652921E0009709F4AC
:1024D00020E0892B41F08AE0F801AFE0B3E0019001
:1024E0000D928A95E1F745E069E173E08FE093E0B2
:1024F0000E948D12182F0E945911812F2A960FB613
:10250000F894DEBF0FBECDBFDF91CF911F910F9129
:10251000FF90DF90CF9008950895CF92DF92EF92D1
:10252000FF921F93CF93DF936C017B01C42F222373
:1025300049F081E080939F020E94DC2090939E02EC
:1025400080939D0210919F0211110AC010E0812F0B
:10255000DF91CF911F91FF90EF90DF90CF90089582
:1025600080919D0290919E020E94F420059770F345
:10257000D0E0CC0FDD1FAE01B601C7010E94652976
:10258000892B41F0AE01B601C7010E947229109259
:102590009F02DDCF10E0FBCF0E94BA220E94710E95
:1025A0000E94C72208950E94CC220E947E0E0E94A3
:1025B000E62208950E9475200E94A0220E94520ED9
:1025C0000E94CC120E94D3120E94650EFBCF909302
:1025D000D3018093D2010895EF92FF920F931F933E
:1025E000CF93DF93EB01E82FD1110EC0442321F0EC
:1025F000F0E0E659FC4FE4916E2F7E2F8E2FCDB781
:10260000DEB7E6E00C94B7280D2F10E0282F30E05D
:10261000442329F026593C4FF901249130E0F6E09B
:10262000CF9FC0011124EFEFF0E0BF010E940E2800
:10263000AB018C2F90E0880F991FA5E5A49FB001F6
:10264000A59F700D1124861B970B982F990F980F3B
:10265000BF01601B710B629FD001639FB00D729F21
:10266000B00D11248B2F9D9FB0011124672F772768
:10267000EF01C61BD70BBE01629FE001639FD00D27
:10268000729FD00D11247F01E91AF108E09EB0017C
:10269000E19E700DF09E700D1124672F7727E61BC9
:1026A000F70BE29F8001E39F100DF29F100D1124A4
:1026B000E12F722F4230510599F048F44115510530
:1026C00069F04130510581F0EB2F8D2F07C0443068
:1026D000510569F080F046305105B1F76E2F8FCF6C
:1026E000E22F7B2F812FFACFE22F7D2FF7CFEB2F19
:1026F000822F712FF3CF7B2F822FED2FEFCF41E071
:102700000E94EC12089508950E947F130895CF93BC
:10271000DF93762FE901682F842F0E948413798339
:1027200068838A83DF91CF91089580912303982F46
:102730009E7F29F4817082608093230308958635FB
:10274000E8F381708465F8CFB0E0A0E0EAEAF3E155
:102750000C94992888E090E00E9483296B017C0109
:1027600084E290E00E947B29282F30E040E050E096
:1027700060E070E080E090E000E20E94C628B22FA6
:10278000A32FF42FE52FD62FC72F97018601BC2941
:10279000A12BFE295E2F532B2B2F3A2F4F2F6D2F5E
:1027A0007C2FCDB7DEB7E8E00C94B528B0E0A0E010
:1027B000ECEDF3E10C94952849015A016B017C0181
:1027C0000E9495138401A4016A2D7B2D88E090E07E
:1027D0000E94B12994014A2D5B2DB601C70100E288
:1027E0000E94E128622F84E290E00E949F29CDB7E9
:1027F000DEB7ECE00C94B128E3E2F3E083E0808301
:1028000011828FEF828383831482758123E030E00D
:102810004FEF5FEF60E0868197810E94D6130895A5
:102820008091230380FF02C08695089580E008957B
:1028300090912703933018F49F5F90932703882388
:1028400091F020912303309124034091250350916E
:1028500026036091270370912803809129039091AA
:102860002A030E94D613089581E00E941814089547
:1028700090912703992319F091509093270388236F
:1028800091F020912303309124034091250350912E
:10289000260360912703709128038091290390916A
:1028A0002A030E94D613089581E00E9438140895E7
:1028B00070E00E94781C089560910A0180912303C2
:1028C00080FF0BC08091090123E0829FC001112489
:1028D000855D9C4F0E945814089580910B01909142
:1028E0000C0123E0829FF0011124E55DFC4F891764
:1028F00048F71182108212828F5F3396F8CF909141
:10290000230390FF0EC090910B0120910C0133E046
:10291000939FF0011124E55DFC4F921718F00E947F
:102920005C1408958183608342839F5F3396F5CF63
:10293000A3E0B0E0EEE9F4E10C949F28909123032A
:1029400090FF0AC09E012F5F3F4F0E9487134B816B
:1029500069818A810E947F142396E2E00C94BB284F
:10296000CF93DF93EC01EC81F0E0EB59FD4F449104
:10297000E3E2F3E0628181810E9498148C818F5F91
:102980008C83DF91CF910895CF93DF93EC01E3E245
:10299000F3E0438162818C810E9498148C818F5F67
:1029A0008C83DF91CF910895A3E0B0E0EAEDF4E1EC
:1029B0000C949D288C018091A00281110AC09E0177
:1029C0002F5F3F4F4FEF6FEF0E9487138A818093F5
:1029D000A002F8016481613069F08091A00240E0BA
:1029E000662361F040E0623011F44091A00280E083
:1029F00060E004C06091A00240E080E00E947F148B
:102A0000F801848190E0019663E070E00E94222842
:102A100084832396E4E00C94B928A3E0B0E0E3E1DA
:102A2000F5E10C949828082FD62EF42EC22E909102
:102A3000230390FF2EC0E92FE695AE2FB0E0A955F5
:102A4000BE4F8C918093DC029E7F923031F59E01C7
:102A50002F5F3F4F802F0E9487134B8169818A81AE
:102A60000E947F1400932403D0922503F092260342
:102A7000CC2079F0209123036091270370912803E3
:102A8000302F4D2D5F2D8091290390912A030E94B4
:102A9000D6132396E9E00C94B428823019F4F09010
:102AA0002603E0CF863019F400912403DBCF893070
:102AB000D9F38931B9F6E9516E2F6170B62EE695DA
:102AC000F0E0EB59FC4F1491E12C60910D01E616FA
:102AD00018F00E945C14C6CFE19EC001112470E082
:102AE0000E940E28802FB11014C0860F20910B0178
:102AF000622F6E0D7727771F9B01220F331F260F42
:102B0000371F255D3C4F4F2D6D2D0E948713E39499
:102B1000DCCF861BEBCFE3E2F3E09181282F4381EA
:102B200062818CE0890F0E940D15089581E00E945A
:102B30008B150895E3E2F3E09181282F43816281B0
:102B400084EF890F0E940D15089581E00E949A1567
:102B50000895E3E2F3E062812CE0620F08F46FEF86
:102B6000282F438181810E940D15089581E00E94E4
:102B7000A9150895E3E2F3E062812CE0621B08F4FA
:102B800060E0282F438181810E940D15089581E026
:102B90000E94BA150895E3E2F3E043812CE0420F6E
:102BA00008F44FEF282F628181810E940D1508954E
:102BB00081E00E94CB150895E3E2F3E043812CE02D
:102BC000421B08F440E0282F628181810E940D158C
:102BD000089581E00E94DC15089520E00E940D1503
:102BE0000895EF92FF921F93CF93DF93EC0110E0D3
:102BF000EE24EA94F12C60910D01161770F00E94FA
:102C00005C149A818C8190FF27C08F5F8C83DF9149
:102C1000CF911F91FF90EF90089520910B01422FCB
:102C2000410F5527551FCA019A01220F331F280F44
:102C3000391F255D3C4F70E0C7010E942228962F66
:102C40008C814091260360912503199F800D1124EA
:102C50000E9487131F5FCFCF8150D8CFB0E0A0E094
:102C6000E4E3F6E10C949728FC0182810FEF80FFEA
:102C700001E010E04AE0A42E80910D01181798F0B1
:102C80000E945C148091A202013009F04FC08111B2
:102C900002C080910D0181508093A202CDB7DEB7B2
:102CA000EAE00C94B328C0910B01C12ED12CCC0DBD
:102CB000DD2DD11DCE01880F991FC80FD91FC55D0D
:102CC000DC4F198218821A8234E0E32EF12CB12CE9
:102CD0008091A2028B0D8B301CF16A2D0E9400287E
:102CE000892F082E000C990BC816D90691F48091F3
:102CF00026038E9DA0018F9D500D1124559547955B
:102D0000559547959E0160912503809124030E946B
:102D10008713B00EF1E0EF1AF108D1F61F5FACCFC8
:102D200087FFDFCF90910D01890FDBCF90E00196F7
:102D300060910D0170E00E942228AECF0F931F9387
:102D4000CF93DF9380910B0190910C0123E0829F40
:102D5000F0011124E55DFC4F891740F1C0E0D3E09C
:102D600060910D01C61740F10E945C14209107018B
:102D70008091A102820F8093A10290910801920F8D
:102D800090930801191654F4082E000C990B4091E9
:102D90000D014150550B841795071CF02195209388
:102DA0000701DF91CF911F910F9108951182108239
:102DB00012828F5F3396D0CF0C2F10E070E0C801E5
:102DC0000E94222820910B01820F482F50E0209171
:102DD000A102022E000C330B02171307BCF0209146
:102DE0000801022E000C330B201731077CF08D9F59
:102DF00090011124255D3C4F4091260360912503ED
:102E0000809124030E948713CF5FAACFFA01EE0FAF
:102E1000FF1FE40FF51FE55DFC4F11821082128247
:102E2000F3CFB0E0A0E0E7E1F7E10C949528EC01E6
:102E30004C81042F10E09801D8010E9466289B0164
:102E4000AC010E947C284B015C01E0E2F0E0E01B59
:102E5000F10BA5E5B0E0AC019B010E947C286B0161
:102E60007C019F01DF010E945E289B01AC010E9452
:102E700087289B01AC01280D391D4A1D5B1DC70128
:102E8000B6010E943628F22E822F90E039E23F15DB
:102E900020F143E0249F9001112435952795122FAE
:102EA000109500E085E5E82EEF1880910D010817D8
:102EB00018F10E945C149C8181E0992319F09032F2
:102EC00019F48FEF8093060180910601890F8C839E
:102ED000CDB7DEB7ECE00C94B12825E530E0B901C0
:102EE000681B790B9B01220F331F260F371F37FFFB
:102EF000D4CF2F5F3F4FD1CF8E2D01FD8F2D20914D
:102F00000B01622F600F7727771F9B01220F331F62
:102F1000260F371F255D3C4F412F609125030E94EE
:102F200087130F5FC2CF0F931F93CF93DF93EC01F3
:102F300010E000E090910D019017110609F06CF47B
:102F40000E945C148C8190E00196817099278C839B
:102F5000DF91CF911F910F91089520910B01A8014E
:102F6000420F511D9A01220F331F240F351F255D7B
:102F70003C4F4C81609125038091240396959017D6
:102F8000110651F04CF0442349F0409126030E9471
:102F900087130F5F1F4FCECF4423B9F340E0F7CF25
:102FA000B0E0A0E0E6EDF7E10C949128FC0162802E
:102FB000448081E08483E5E6F2E07490E4EEF2E0A0
:102FC000E491C0912603C695C158D0E0CC0FDD1F17
:102FD000CD2FDD27812C75E0972EAA24AA94B12C41
:102FE00055245A94E719EE2EF12C80910D01881684
:102FF00038F00E945C14CDB7DEB7E0E10C94AD2848
:10300000C82CD12C82E0861568F09C9CF0019D9C18
:10301000F00D1124ED55FD4F8091240380838091A4
:1030200025038183411023C09C9CF0019D9CF00DE1
:103030001124ED55FD4F1382128220910B01C60120
:10304000820F911D9C01220F331F280F391F255D10
:103050003C4F9C9CF0019D9CF00D1124ED55FD4FC3
:103060004281618180810E9487138394BECF9C9CA2
:1030700080019D9C100D11240D551D4FF801838179
:103080008823F1F081508383859DC00111246481E0
:1030900070E00E940E28FB01FF27EB59FD4F849141
:1030A000E82FE719E59DC0011124B7010E940E2801
:1030B00080912603689FB0011124F8017283BDCF6F
:1030C0000E944829B5010E9422288C179D070CF008
:1030D000B4CFF2E0F61598F40E944829B5010E9499
:1030E0002228F80180830E944829209125032695F3
:1030F000622F70E00E942228280FF80121839C9CF7
:10310000F0019D9CF00D1124ED55FD4F1282809130
:103110002603893C58F088EC9C9CF0019D9CF00DA6
:103120001124ED55FD4F8483838387CF8431A0F72D
:1031300084E1F2CFE3E2F3E020812E7F208331812E
:103140004281538164817581868197810E94D61363
:103150001092DD020E945C1408956091230366952D
:1031600070E04BE050E08EE091E00E945829892BFE
:1031700019F481E08093DD020E94DC209093D60256
:103180008093D50208959091230390FF33C09170EE
:10319000811131C0926090932303662391F02091B6
:1031A000230330912403409125035091260360911D
:1031B0002703709128038091290390912A030E948C
:1031C000D61360912303669570E04BE050E08EE0EB
:1031D00091E00E945829892BA9F01092DD0281E02C
:1031E0008093D802409126036091250380912403A7
:1031F0000E94ED1508958B3210F09465CCCF880FA6
:10320000982BC9CF0E94AD18EACF682F9091230365
:10321000969581E0890F8B3208F081E00E94C318F7
:10322000089581E00E9405190895682F9091230365
:1032300096958FEF890F09F48AE20E94C3180895CA
:1032400081E00E941519089561E00E94C318089555
:10325000E3E2F3E080818160808386950E942419F7
:1032600008958091230380FF03C00E949A18089557
:103270000E942819089560E00E94C3180895809163
:10328000DB0281113EC00E946B0D811104C00E94BF
:10329000090E0E94FC130E94A41320932303309371
:1032A00024034093250350932603609327037093D0
:1032B00028038093290390932A032E7FA1F40E9470
:1032C000FC130E94A4132093230330932403409300
:1032D000250350932603609327037093280380935C
:1032E000290390932A030E9495131092DD02809186
:1032F000230380FF03C086950E943B1981E08093E1
:10330000DB0208950F931F93CF93DF938091DD022B
:103310008823B9F18091DC02E0912303E695E81B54
:10332000E093D702823091F5F0E0EF59FD4FE49140
:10333000CE2FD0E000EB14E18091D802882361F019
:103340001092D8020E94DC209093D6028093D5027E
:103350001092DA021092D9020E94DC20E091D5028C
:10336000F091D6028E1B9F0B8F3F9F4750F4EC0FBE
:10337000FD1FF093D602E093D50285ED92E0F801AF
:103380000995DF91CF911F910F910895863049F4EF
:10339000F0E0E25AFD4FE491CE2FD0E004EC14E1CE
:1033A000CBCF893051F4E695F0E0E55AFD4FE4913A
:1033B000CE2FD0E001EF15E1BFCF8F3051F4E6956D
:1033C000F0E0E85AFD4FE491CE2FD0E00EE216E196
:1033D000B3CF853149F4F0E0EB5AFD4FE491CE2FA5
:1033E000D0E00EE916E1A8CFC8E2D0E001E117E194
:1033F000883109F4A1CF833239F4E3E5F2E0C591D5
:10340000D49104ED14E198CFC4EFD1E003E917E1C2
:10341000843209F491CFC0EDD7E003E813E185329F
:1034200009F08ACF8E2F63E00E94F427E92FF0E0A5
:10343000E05BFD4FE491CE2FD0E000ED17E17CCFB3
:10344000FA01811101C0FB0109950895CF93DF9323
:10345000C82FD62F0E9410148C1748F00E94101409
:103460008D1728F40E941119DF91CF9108958C2FA8
:103470000E942419F9CF1F93CF93DF93EC01FB0136
:103480001581111110C00E946A0C8272FE01E05277
:10349000F847E531F10508F05EC0E050F64D0C94B8
:1034A00058280E943119812FDF91CF911F910895E3
:1034B00040E259E161E179E10E94201AF4CF41E153
:1034C00059E160E279E1F8CF45EA55E166E975E155
:1034D000F3CF46E955E165EA75E1EECF47EC55E1FA
:1034E00066EB75E1E9CF46EB55E167EC75E1E4CFBA
:1034F00049EE55E168ED75E1DFCF48ED55E169EE44
:1035000075E1DACF44E554E164E374E1D5CF44E3F7
:1035100054E164E574E1D0CF81E00E942419C3CF67
:1035200065E082E00E94261ABECF68E086E0FACF0E
:103530006EE089E0F7CF64E18FE0F4CF67E185E1E9
:10354000F1CF88E1EACF62E289E1ECCF83E2E5CF17
:103550006AE285E2E7CF11E0A6CF86E090E00E9424
:103560007B290895682F86E090E00E949F290895A6
:10357000E9E4F3E080818470816380830E94B21A61
:1035800008950E946B0D811104C00E94090E0E94D3
:10359000B81A0E94AD1A80934903883320F08770CF
:1035A00080638093490390914903892F817090FF34
:1035B00004C0892F8695869586950E94C51B08951F
:1035C00080914903982F969596959695963040F45C
:1035D0009F5F990F990F990F8770892B80934903EB
:1035E000809149038160809349030E94B21A8091BF
:1035F00049038695869586950E94C51B08958091FE
:103600004903982F987F79F0885080934903887FE9
:1036100091E009F490E08091490390FB80F9809358
:1036200049030E94B21A8091490386958695869532
:103630000E94C51B08958091490380FD13C08160DD
:1036400080934903813019F489E080934903809184
:1036500049030E94B21A8091490386958695869502
:103660000E94C51B08958091490380FF08C08E7F8A
:10367000809349030E94B21A80E00E94C51B0895FE
:103680008091490380FF03C00E94331B08950E946C
:103690001B1B089590914903892F869586958695E1
:1036A0008F5F8F7197708730E0F4880F880F880FD5
:1036B000892B8093490380914903887F91E009F425
:1036C00090E08091490390FB80F9809349030E9428
:1036D000B21A809149038695869586950E94C51BEE
:1036E000089590934903E7CF873008F086E09091E2
:1036F00049039770282F220F220F220F922B9093AD
:103700004903987F21E009F420E09091490320FBD0
:1037100090F9909349030E94C51B08950E94741B61
:10372000809149030E94B21A08959C01FB01858192
:10373000882349F12230F8E73F07F9F040F42115DA
:10374000E8E73E0769F02130384779F008952430E2
:1037500098E7390779F058F02530384789F008950F
:1037600086E00E948E1B80E0089580E0FACF0E94E0
:10377000FF1AF9CF0E94E01AF6CF0E94401BF3CF48
:103780000E944A1BF0CF81E008958F929F92AF92E2
:10379000BF92EF92FF920F931F93CF93DF938730E7
:1037A000B0F5811135C090918000977F9093800093
:1037B000A0918600B0918700282F30E00E946628F3
:1037C00026E030E040E050E00E94362889019A016E
:1037D00080918600909187006CE070E00E940E2836
:1037E00060177107C8F0C80169E070E00E940E28F8
:1037F00070938D0060938C00DF91CF911F910F919A
:10380000FF90EF90BF90AF909F908F90089586E0CB
:10381000909180009860CACF809186009091870037
:10382000E0908600F0908700E0918600F09187009C
:10383000C6E0D0E0BE010E940E28060F171F211D12
:10384000311D4801590185E0880C991CAA1CBB1C3C
:103850008A95D1F7C701BE010E940E289F0150E052
:1038600040E0260F371F411D511DC501B4010E94C4
:10387000362849015A01E0918600F0918700CA017B
:10388000B9010E94E4279B01AC01DF010E947C2862
:103890009B01AC01C501B4010E94E4272FE096957D
:1038A0008795779567952A95D1F7009186001091B5
:1038B000870030E020E0061717072807390708F0CF
:1038C00097CF609186007091870092CF0895279AD4
:1038D0002F988AE08093800089E1809381008FEFA8
:1038E0009FEF90938700809386000E94C11A0895ED
:1038F000879A41B34F7751B35068EFB7F8949B0163
:10390000220F331F260F371F280F391F281739079B
:1039100041F4EFBF8FE594E00197F1F700C000009C
:103920000895DC016D91CD0178E051BB000000C02D
:1039300067FF41BB660F000000C000C000C041BB74
:1039400000C07A9591F7E2CFCF93DF93EC01FB01B2
:103950008581882309F4D2C09E0130572332310576
:1039600008F0B2C00E94800D90930E0380930D0367
:10397000FE01E150F047E232F10520F4EB5EF54D37
:103980000C94582880910D03816080930D0393C09F
:1039900080910E03886080930E038DC080910D038B
:1039A0008260F3CF80910D038460EFCF80910D038F
:1039B0008860EBCF80910E038160EDCF80910E0384
:1039C0008260E9CF80910D038061DFCF80910D038C
:1039D0008062DBCF80910D038064D7CF0E94D70730
:1039E00080910D038068D1CF80910D038C60CDCF85
:1039F00080910E038360CFCF80910D038E7FC5CF62
:103A000080910E03877FC7CF80910D038D7FBDCF3F
:103A100080910D038B7FB9CF80910D03877FB5CF48
:103A200080910E038E7FB7CF80910E038D7FB3CF31
:103A300080910D038F7EA9CF80910D038F7DA5CF3F
:103A400080910D038F7BA1CF0E94D70780910D033A
:103A50008F779BCF80910D03837F97CF80910E034B
:103A60008C7F99CF80910D0382FB992790F921E0FB
:103A7000922790FB82F990FB83F987CF80910E0308
:103A8000982F909591708E7F892B90FB81F983CF31
:103A900090910D03892F8F7B96FF806476CF0E94D3
:103AA000D70790910D03892F97FB87F980586DCF29
:103AB00081E00E940C0E80910D0390910E030E94F4
:103AC000850D0E94D70780E0DF91CF91089580E0B7
:103AD000F0CF90910D03892F8F7E94FF806155CF99
:103AE00090910D03892F8E7F90FF81604ECF909132
:103AF0000E03892F877F93FF88604DCF81E0E4CF4D
:103B0000EBEFE80FEF3308F066C0F0E0E95CF54D4D
:103B10000C9458280E94090E81E0089580919C021F
:103B2000807F80939C0281E08093DE0208950E9452
:103B30009903F2CF90919C02892F8E7F90FF816034
:103B400080939C0280FDE8CF817F80939C02E4CF2C
:103B500090919C02892F8D7F91FF826080939C02BF
:103B600081FFDACF80919C028160EFCF90919C021F
:103B7000892F8B7F92FF846080939C0282FDF2CF1D
:103B8000CBCF90919C02892F877F93FF8860809391
:103B90009C0283FDE7CFC0CF0E94D70790910D0311
:103BA000892F97FB87F9805880930D03B5CF81E06B
:103BB00090E00E9424080E94D707AECF895321E0ED
:103BC00030E0A90102C0440F551F8A95E2F7CA01EF
:103BD000F0CF8D51F4CF80E0089580E008950E94E9
:103BE000ED1D0895CF93C82F8091DE02882331F018
:103BF000813099F01092DE0280E00DC00E946A0CC4
:103C00008232D1F78C2F0E94ED1D811116C08C2FAE
:103C10000E94801D8170CF9108950E946A0C8232AB
:103C200089F38C2F0E94EF1D811105C0C43171F002
:103C300038F4CB3079F781E0EDCF81E090E0EACF46
:103C4000C93221F0C833B9F380E0E4CF1092DE022C
:103C5000FBCFCF93DF93EB0186319C4711F50E9498
:103C60006A0C9D81992399F08A7A91E009F490E099
:103C70009093DF02811109C089E20E94420C0E94E8
:103C8000C30C80E0DF91CF91089585E3F6CF80915A
:103C9000DF02811104C089E20E944A0CF0CF85E363
:103CA000FBCF81E0EFCF0F931F93CF93DF93C42F10
:103CB000D22FFC0185818823C9F04093E2020E9443
:103CC000DC209093E1028093E00280E28C0F883048
:103CD00040F4C77081E001C0880FCA95EAF70E94DE
:103CE0008C05DF91CF911F910F9108951091E20201
:103CF000141332C08091E0029091E1020E94F420FE
:103D0000883C910548F5C0E2CD0F1D17B9F080E25F
:103D1000810F883040F4177081E001C0880F1A9538
:103D2000EAF70E949305C83048F481E09D2F977010
:103D300001C0880F9A95EAF70E948C05802F0E9497
:103D40008305C83070F6D77081E001C0880FDA951E
:103D5000EAF70E949305C5CF80E28C0F883008F601
:103D6000C77081E001C0880FCA95EAF7F2CF0F93C0
:103D7000DB0188519C4787309105A0F5FC01EA588A
:103D8000F54D0C94582806E221EE41EE6AE17CE7FD
:103D9000CD010E94531E80E00F91089507E225EEA9
:103DA00045EE6BE17CE7F4CF06E221EE40EE68E100
:103DB0007CE7EECF07E225EE44EE69E17CE7E8CF51
:103DC00006E221EE42EE6CE17CE7E2CF07E225EE6F
:103DD00046EE6DE17CE7DCCF08E221E045EE6EE1E6
:103DE0007CE7D6CF15968C91882319F01092E202C9
:103DF000D3CF81E0D1CF9093E8028093E70208957A
:103E0000E091E702F091E802309729F00190F0810B
:103E1000E02D0995089580E008950E94001F0895FF
:103E2000E091E702F091E802309799F020912101AA
:103E3000222359F020910D0327FF07C0DC012C91AC
:103E400011962C93119726E02C930280F381E02D9C
:103E500009950895A3E0B0E0E0E3FFE10C949F280A
:103E60002091E5023091E60228173907A1F09093DE
:103E7000E6028093E502E091E702F091E8023097D4
:103E800051F023E029839B838A830680F781E02D0C
:103E9000CE01019609952396E2E00C94BB28A3E09D
:103EA000B0E0E5E5FFE10C949F282091E30230911A
:103EB000E40228173907A1F09093E4028093E3020B
:103EC000E091E702F091E802309751F024E0298375
:103ED0009B838A830680F781E02DCE0101960995A8
:103EE0002396E2E00C94BB28FC01329680912101DC
:103EF000882321F080910D039EE187FF96E080E00A
:103F0000915008F4089521912223D1F38F5FF8CFC7
:103F1000662301F1209121012223F1F020910D036C
:103F200027FF1AC0462F4695469546954E3190F488
:103F3000677021E030E002C0220F331F6A95E2F77C
:103F4000840F911DFC01828190E02823392381E0B8
:103F5000232B69F480E00895FC01329608962191A4
:103F6000261721F0E817F907D1F7F4CF81E008957B
:103F70009C01FC0132969FEF80E04191461751F081
:103F80009F3F19F4411101C0982F8F5F8630A9F728
:103F90009F3F09F40895290F311D97FD3A95F901C6
:103FA00062830895FC01329608962191261303C07E
:103FB000DF0111971C92E817F907B9F70895E62F6A
:103FC000E695E695E695EE3168F4E80FF92FF11DD8
:103FD000677021E030E001C0220F6A95EAF7828124
:103FE000822B82830895E62FE695E695E695EE31DD
:103FF00070F4E80FF92FF11D677021E030E001C087
:10400000220F6A95EAF7209582812823228308955A
:1040100020912101222339F020910D0327FF03C0B5
:104020000E94DF1F08950E94B81F0895209121016A
:10403000222339F020910D0327FF03C00E94F31FB4
:1040400008950E94D21F0895FC01329680912101AB
:10405000882351F080910D0387FF06C08EE1DF01B8
:104060001D928A95E9F7089586E0F9CF08950E9498
:1040700036200895811106C081E08093E9020E94F4
:104080003720089582E0F9CF83E08093E9020E940F
:10409000372008950E943A20089581E08093E90234
:1040A0000E94372008950E944D2008950895089594
:1040B0000E9457200895089508950E94562008955B
:1040C000CF930E945B200E9438120E945C20C0E0C7
:1040D0008C2F0E945C11892B31F4CF5FC530C1F762
:1040E00080E0CF91089581E0FCCF85B7806885BFDF
:1040F00085B7806885BF08951F921FB61F9211244F
:104100008F939F93AF93BF938091EA02811113C065
:1041100080914A0390914B03A0914C03B0914D03C1
:104120004196A11DB11D80934A0390934B03A09328
:104130004C03B0934D03BF91AF919F918F911F900E
:104140001FBE1F90189580915203843031F10E9458
:1041500005041092EA0288E190E020E40FB6F8949A
:10416000A895809360000FBE2093600083B7817F85
:10417000846083BF83B7816083BF7894889583B759
:104180008E7F83BF0FB6F894A895809160008861F8
:1041900080936000109260000FBE08950E94D707C0
:1041A0000E940D04089582E084BD93E095BD9AEFCE
:1041B00097BD80936E0008952FB7F89480914A03BD
:1041C00090914B03A0914C03B0914D032FBF0895E4
:1041D0002FB7F89460914A0370914B0380914C0380
:1041E00090914D032FBF08959C014FB7F894809193
:1041F0004A0390914B03A0914C03B0914D034FBFE4
:10420000821B930B089578941F921FB61F9211245E
:104210008F939F93AF93BF9380914A0390914B03E9
:10422000A0914C03B0914D030196A11DB11D809347
:104230004A0390934B03A0934C03B0934D03BF915B
:10424000AF919F918F911F901FBE1F90189581E095
:104250008093E00080E28093D8001092C9008FE143
:104260009EE40197F1F700C0000087E090EBDC01CD
:1042700080935B0390935C03A0935D03B0935E0314
:1042800088E19CE00FB6F894A895809360000FBE7B
:1042900090936000FFCF88E19CE00FB6F894A8955A
:1042A000809360000FBE90936000FFCF80910B035E
:1042B000089508959B01BA01909152039430E9F456
:1042C0008F708093E9009FEF8091E800915085FD09
:1042D00006C085ED8A95F1F700009111F5CF809128
:1042E000E80085FF0AC050E040E0C9010E945D235C
:1042F0008091E8008E778093E800089543E050E0D5
:10430000BC0182E00E945A210895CF93DF93EC0113
:1043100080912101811111C048E050E0BE0181E08F
:104320000E945A2180E2FE01ABEEB2E001900D92B4
:104330008A95E1F7DF91CF91089580910D0387FF72
:1043400005C040E282E050E0BE01EACF48E081E0F3
:10435000FACF80915103811109C00E94ED240E947F
:104360004A258091E20084608093E20008951092D3
:10437000510308950E944D20089560914E0381E0FD
:10438000611101C080E00E94442008959091520381
:1043900081E0943009F080E060914E030E944A2051
:1043A000089542E061EC81E00E94692442E261EC00
:1043B00082E00E9469249091520381E0943009F0D8
:1043C00080E060914E030E943A200895809154034A
:1043D000833009F461C030F48130D1F1823009F4C6
:1043E0009EC008958A3009F48AC08B3009F46FC0EA
:1043F000893009F050C080915303813209F04BC0DD
:104400008091570390915803029708F044C080911F
:10441000E800877F8093E8008091E80082FF37C042
:104420009091F3008091F200029731F48091F100B5
:10443000813011F0863021F48091F10080930B03DC
:104440008091E8008B778093E8000E949D2423C030
:1044500080915303813AF9F48091E800877F80933B
:10446000E8008091570390915803892B61F460E232
:104470008BEE92E070E00E94AC238091E8008B7795
:104480008093E800089560E090E080E0F3CF8091B1
:1044900052038111C1CF089580915303813AD9F716
:1044A0008091570390915803892BA9F78091E800D8
:1044B000877F8093E8008091E80080FFFCCF8091A7
:1044C00021018093F1008091E8008E77BCCF80912C
:1044D0005303813201F78091570390915803892B40
:1044E000D1F68091E800877F8093E8000E949D24A8
:1044F00080915503809321010E94D70708958091F0
:104500005303813241F68091E800877F8093E80071
:104510000E949D248091560380930C0308958091FE
:104520005303813A09F0B7CF8091E800877F8093E9
:10453000E8008091E80080FFFCCF80910C03C1CFA0
:1045400084B7877F84BF0FB6F894A89580916000E8
:10455000886180936000109260000FBE80E890E058
:104560000FB6F89480936100909361000FBE0E9493
:10457000532008950E94ED240E944A25E2EEF0E0C7
:1045800080818460808378940E94C927089589E19E
:1045900091E00E94FB1E089580915203853031F412
:1045A00080915203853019F00E94CE2008950E9418
:1045B000A32080915003882399F30E9460208823D0
:1045C00079F30E9447230E94D707EACF08959A0102
:1045D0004091590350915A030E94EF220895492FA8
:1045E00055274330510519F168F44130510509F45C
:1045F00044C04230510509F445C090E080E050E0ED
:1046000040E025C04132510549F142325105A9F738
:1046100084E490E04AE555E061157105C1F08DE64E
:1046200090E04DEE54E06130710589F0E6CF9927B6
:104630008130910581F0009729F00297F1F6EAE6C2
:10464000F4E002C0ECE9F4E0849190E0AF01F901FC
:10465000518340830895ECE7F4E0F6CF89E090E0E1
:1046600042EB54E06115710591F389E090E04BEC69
:1046700054E06130710559F3C0CF82E190E04BED19
:1046800054E0E5CF8BE390E040EA54E0E0CF80E1F6
:1046900089BD82E189BD09B400FEFDCF8091D800BB
:1046A0008F7D8093D8008091E00082608093E0004D
:1046B0008091E00081FDFCCF0895AF92BF92CF9230
:1046C000DF92FF920F931F93CF93DF936C01EB0167
:1046D0008A010E94BC24F82E811123C00115110506
:1046E00039F0F80180819181C81BD90BC80ED91E01
:1046F000B12CA12C2097A9F08091E80085FD22C063
:104700008091E8008E778093E80001151105A1F0F3
:10471000F80180819181A80EB91EB182A08285E046
:10472000F82E8F2DDF91CF911F910F91FF90DF9089
:10473000CF90BF90AF9008950E94BC248823D1F2FF
:10474000F82EEFCFF60181916F018093F100219750
:10475000FFEFAF1ABF0ACECFFC01809159039091B1
:104760005A0386179707A0F06115710529F49091F7
:10477000E8009E779093E80090E06115710551F490
:10478000911108C08091E80082FF34C080E0089554
:10479000BC01F2CF809152038823C1F18530C1F171
:1047A0008091E80083FD30C08091E80082FDEACF6F
:1047B0008091E80080FFE1CF8091F3002091F2002A
:1047C000382F6115710519F02830310558F091E046
:1047D0002830310509F090E02091E8002E772093F1
:1047E000E800CBCF81918093F100615071092F5F78
:1047F0003F4FE7CF80915203882341F0853041F04D
:104800008091E80083FFBECF81E0089582E00895A3
:1048100083E00895FC018091590390915A03861713
:104820009707A0F06115710529F48091E8008E7753
:104830008093E80090E06115710551F4911108C072
:104840008091E80082FF35C080E00895BC01F2CF7E
:10485000809152038823C9F18530C9F18091E80025
:1048600083FD31C08091E80082FDEACF8091E800AD
:1048700080FFE1CF8091F3002091F200382F611585
:10488000710519F02830310558F091E028303105D4
:1048900009F090E08091E8008E778093E800CBCF1C
:1048A00084918093F1003196615071092F5F3F4FE1
:1048B000E6CF80915203882341F0853041F080910A
:1048C000E80083FFBDCF81E0089582E0089583E092
:1048D0000895982F973028F08F708093E90081E039
:1048E00008959093E900242F762F50E0981731F027
:1048F0007091EC002091ED005091F00021FD02C07C
:104900009F5FE8CF3091EB003E7F3093EB0030911A
:10491000ED003D7F3093ED003091EB00316030933E
:10492000EB007093EC002093ED005093F000209189
:10493000EE0027FDE5CF80E008958091530387FFC7
:1049400013C08091E80082FF06C08091E8008B7759
:104950008093E80004C0809152038111F2CF089542
:10496000809152038823D9F38091E80080FFF8CF2B
:104970008091E8008E77ECCF2091E4003091E50043
:1049800095E6A9012091EC00822F817020FF06C0DE
:104990008091E80080FF06C080E008952091E80043
:1049A00022FD1AC080915203882389F0853089F056
:1049B0008091EB0085FD0FC02091E4003091E5006F
:1049C00042175307F9F29150E1F684E0089582E02E
:1049D000089583E0089581E008950E945C250E9477
:1049E0006425E0EEF0E0808181608083E8EDF0E016
:1049F00080818F77808319BCA7EDB0E08C918E7F8A
:104A00008C9380818F7E80831092510308950F9341
:104A10001F93CF93DF930E945C250E946425C8ED0D
:104A2000D0E088818F7788838881806888838881B7
:104A30008F7D888319BC1092520310924E031092FE
:104A4000500310924F0300EE10E0F80180818B7F3D
:104A5000808388818160888342E060E080E00E94FA
:104A60006924E1EEF0E080818E7F8083E2EEF0E069
:104A7000808181608083808188608083F80180816B
:104A80008E7F8083888180618883DF91CF911F91A1
:104A90000F910895E8EDF0E080818F7E8083E7ED4F
:104AA000F0E080818160808384E082BF81E0809338
:104AB00051030E9407250895E8EDF0E080818E7F84
:104AC00080831092E20008951092DA001092E100C3
:104AD00008951F920F920FB60F9211242F933F93B8
:104AE0004F935F936F937F938F939F93AF93BF93F6
:104AF000EF93FF938091E10082FF0BC08091E20071
:104B000082FF07C08091E1008B7F8093E1000E94CB
:104B1000C8278091DA0080FF19C08091D80080FFFB
:104B200015C08091DA008E7F8093DA008091D900E1
:104B300080FF96C080E189BD82E189BD09B400FE95
:104B4000FDCF81E0809352030E94A9218091E10072
:104B500080FF19C08091E20080FF15C08091E200C3
:104B60008E7F8093E2008091E20080618093E2007A
:104B70008091D80080628093D80019BC85E0809332
:104B800052030E94BD218091E10084FF2BC08091DF
:104B9000E20084FF27C080E189BD82E189BD89B53B
:104BA000982F917080FFFBCF8091D8008F7D8093EC
:104BB000D8008091E1008F7E8093E1008091E20037
:104BC0008F7E8093E2008091E20081608093E2001A
:104BD00080914E03882309F449C084E080935203F6
:104BE0000E94C6218091E10083FF29C08091E200EC
:104BF00083FF25C08091E100877F8093E10082E000
:104C00008093520310924E038091E1008E7F809337
:104C1000E1008091E2008E7F8093E2008091E200CB
:104C200080618093E20042E060E080E00E946924BD
:104C30008091F00088608093F0000E94BA21FF917B
:104C4000EF91BF91AF919F918F917F916F915F9104
:104C50004F913F912F910F900FBE0F901F9018957D
:104C600019BC109252030E94B72170CF8091E300CB
:104C700087FD93E090935203B3CF1F920F920FB62C
:104C80000F9211242F933F934F935F936F937F93D2
:104C90008F939F93AF93BF93CF93DF93EF93FF9344
:104CA000D091E900DF708091EC00C82FC17080FDC9
:104CB000C0E81092E9008091F000877F8093F000B7
:104CC00078940E9481261092E9008091F00088601B
:104CD0008093F000CD2BCF70C093E900FF91EF914E
:104CE000DF91CF91BF91AF919F918F917F916F9104
:104CF0005F914F913F912F910F900FBE0F901F909A
:104D00001895AAE2B0E0E7E8F6E20C949E2883E565
:104D100093E02091F100FC012193CF01F3E08B356A
:104D20009F07B9F70E94E6218091E80083FF1EC12A
:104D300080915303909154039A3008F017C1E92FE2
:104D4000F0E0E358F54D0C945828803899F08238FB
:104D500009F00CC1809157038F70873008F006C1AD
:104D60008093E9008091EB0085FB882780F9109201
:104D7000E90006C080914F03909150039111826029
:104D80009091E800977F9093E8008093F100109253
:104D9000F1008091E8008E77E5C0882309F4D3C044
:104DA000823009F0E3C0809155038111D6C0809113
:104DB00057038F702FEF280F263008F0D7C080934D
:104DC000E9002091EB0020FFC8C0933031F48091BE
:104DD000EB0080628093EB00C0C09091EB0090618B
:104DE0009093EB0021E030E001C0220F8A95EAF7B2
:104DF0002093EA001092EA008091EB008860EACFED
:104E00008111B4C0109155031F778091E300807821
:104E1000812B8093E3008091E800877F8093E800F6
:104E20000E949D248091E80080FFFCCF8091E300E8
:104E300080688093E30082E0111183E08093520345
:104E400095C08058823008F091C0809155039091B0
:104E500056038C3D23E09207A1F583E08A838AE222
:104E600089834FB7F894DE01139620E03EE051E2CB
:104E7000E32FF0E050935700E49120FF03C0E29548
:104E8000EF703F5FEF708E2F90E0EA30C0F0C79672
:104E90008D939D932F5F243159F74FBF8091E80088
:104EA000877F8093E8006AE270E0CE0101960E945D
:104EB000AC238091E8008B778093E80057C0C096C0
:104EC000E7CF6091570370915803AE014F5F5F4F7A
:104ED0000E94E722BC01892B09F448C09091E800A8
:104EE000977F9093E80089819A810E940A24E1CFFC
:104EF0008038E1F58091E800877F8093E800809119
:104F00004E038093F10045CF811130C0909155033D
:104F1000923060F58091E800877F8093E80090935D
:104F20004E030E949D2480914E03882311F084E05B
:104F300005C08091E30087FDFACF81E080935203A2
:104F40000E94D12113C080915503813079F481E012
:104F5000933009F080E0809350031092E900809133
:104F6000E800877F8093E8000E949D248091E800FC
:104F700083FF0AC08091E800877F8093E8008091DA
:104F8000EB0080628093EB00AA96E3E00C94BA28D1
:104F90000895CF93809152038823A1F0C091E90036
:104FA000CF709091EC00892F817090FD80E8C82B24
:104FB0001092E9008091E80083FD0E948126CF7065
:104FC000C093E900CF910895DB018F939F930E94D6
:104FD0007C28BF91AF91A29F800D911DA39F900D42
:104FE000B29F900D11240895991B79E004C0991F78
:104FF000961708F0961B881F7A95C9F78095089533
:1050000087FB082E062687FD819567FD61950E9426
:10501000F4270EF4919507FC81950895AA1BBB1BFC
:1050200051E107C0AA1FBB1FA617B70710F0A61BA8
:10503000B70B881F991F5A95A9F780959095BC01C9
:10504000CD01089597FB072E16F4009407D077FD45
:1050500009D00E940E2807FC05D03EF4909581955A
:105060009F4F0895709561957F4F0895A1E21A2E84
:10507000AA1BBB1BFD010DC0AA1FBB1FEE1FFF1FFC
:10508000A217B307E407F50720F0A21BB30BE40B4C
:10509000F50B661F771F881F991F1A9469F7609593
:1050A0007095809590959B01AC01BD01CF0108954D
:1050B000EE0FFF1F0590F491E02D09940E946628E1
:1050C000332312F48A1B9B0B0C947728A29FB00108
:1050D000B39FC001A39F700D811D1124911DB29F2C
:1050E000700D811D1124911D08950E946628B7FF3F
:1050F0000895821B930B08950E946628A59F900D2A
:10510000B49F900DA49F800D911D11240895B7FFA9
:105110000C947C280E947C28821B930B08952F926C
:105120003F924F925F926F927F928F929F92AF9237
:10513000BF92CF92DF92EF92FF920F931F93CF9384
:10514000DF93CDB7DEB7CA1BDB0B0FB6F894DEBF1B
:105150000FBECDBF09942A88398848885F846E8441
:105160007D848C849B84AA84B984C884DF80EE808B
:10517000FD800C811B81AA81B981CE0FD11D0FB694
:10518000F894DEBF0FBECDBFED010895002E0830AC
:1051900090F0982F872F762F652F542F432F322F83
:1051A00022270850F4CF220F331F441F551F661FBC
:1051B000771F881F991F0A95B2F7002D089597FD54
:1051C0001094002E083098F00850232F342F452FCC
:1051D000562F672F782F892F912DF4CF15949795FF
:1051E00087957795679557954795379527950A95AC
:1051F000AAF71124002D08958F929F92AF92BF922B
:10520000CF92DF92EF92FF92CF93DF93EC01688110
:1052100079818A819B81611571058105910521F450
:1052200064E279ED8BE597E02DE133EF41E050E06A
:105230000E94D32949015A019B01AC01A7EAB1E4BC
:105240000E947C286B017C01ACEEB4EFA5019401B7
:105250000E948A28DC01CB018C0D9D1DAE1DBF1D57
:10526000B7FF03C00197A109B04888839983AA8337
:10527000BB839F77DF91CF91FF90EF90DF90CF902E
:10528000BF90AF909F908F9008950E94FC28089542
:1052900080E091E00E94FC280895B0E0A0E08093B7
:1052A000000190930101A0930201B09303010895BE
:1052B000FC014150504030F001900616D1F7319773
:1052C000CF010895882799270895FB01DC0104C0C8
:1052D0008D910190801921F441505040C8F7881BEE
:1052E000990B0895FB01DC0102C001900D92415021
:1052F0005040D8F70895F999FECF92BD81BDF89A34
:10530000992780B50895A6E1B0E044E050E00C9400
:10531000C529A8E1B0E042E050E00C94C529DC01C9
:10532000A40FB51F4150504048F0CB01840F951F8A
:105330002E910E94A02941505040D0F70895262F69
:10534000F999FECF92BD81BDF89A019700B402167B
:1053500039F01FBA20BD0FB6F894FA9AF99A0FBE29
:1053600008950396272F0E94A0290E949F29252F88
:105370000E94A029242F0C94A0290196272F0E9477
:10538000A0290C949F29DC01CB01FC01F999FECFE7
:1053900006C0F2BDE1BDF89A319600B40D924150BD
:1053A0005040B8F70895052E97FB1EF400940E9414
:1053B000EA2957FD07D00E94362807FC03D04EF497
:1053C0000C94EA2950954095309521953F4F4F4FC9
:1053D0005F4F089590958095709561957F4F8F4FA1
:1053E0009F4F0895F894FFCFD905D90529062906BE
:1053F0008E06080608060806AA061B072A072A07BB
:10540000511A581A5F1A641A691A6E1A731A781A9E
:105410007D1A821A871A8C1A901A951A981A9B1A52
:105420009E1AA11AA31AA61AA81AFC1C701D041D04
:10543000CE1CD21C081DD61C0C1D181DE21C691D9B
:10544000E61C1C1DEA1C201D481DEE1C241D4F1DC2
:10545000F41C2A1D321DDA1C101DDE1C141DF81C44
:105460002E1D3E1D581D671DC81C001D771D971D54
:105470008E1D9A1D8C1DEB1DEB1D8C1DEB1DEB1D58
:10548000B61DEB1DC11DCC1DEB1DEB1DEB1DEB1D5A
:105490008C1DEB1DEB1D8C1DEB1DA81DEB1DEB1DCD
:1054A000E91DE91DE91DE91DE91DE91DE91DE91DCC
:1054B000E91DD71DEB1D971D8A1DEB1DEB1DEB1D77
:1054C000EB1DEB1DEB1DEB1DEB1DEB1DEB1DD71DB0
:1054D000EB1DEB1D8C1DEB1DDE1DDE1DDE1DDE1D1F
:1054E000DE1DDE1DDE1DDE1DDE1DD71DD41EDA1EF7
:1054F000C31ECE1EE01EE61EEC1EA526CD26B62738
:0E550000CD26B62700272127B6277827842737
:10550E00010000006602010102000A000A0A0119E8
:10551E001A1B1C1D1E1F2021225621852159217E5A
:10552E002101E200E900EA00B500B600B700CD00A7
:10553E008301CC008A0192019401210223022402EC
:10554E002502260227022A02B300B4006F00700063
:10555E009F01CB019F02A002818283E200E900EA53
:10556E0000B500B600B700CD008301CC008A0192D1
:10557E000194012102230224022502260227022A77
:10558E0002B300B4006F0070009F01CB019F02A018
:10559E0002818283F0F1C6676636943132353497D4
:1055AE00963390919293950001020202020606062E
:1055BE000909090909090F0F0F0F0F0F15151518F6
:1055CE0019191919191919191919232425252525F8
:0255DE00252581
:00000001FF
