:100000000C94CD020C9405030C9405030C94050389
:100010000C9405030C9405030C9405030C94050340
:100020000C9405030C9405030C9467240C943B2555
:100030000C947F1F0C9405030C9405030C9405038A
:100040000C9405030C9405030C9405030C94050310
:100050000C9405030C9406200C9405030C940503E2
:100060000C9405030C9405030C9405030C940503F0
:100070000C9405030C9405030C9405030C940503E0
:100080000C9405030C9405030C9405030C940503D0
:100090000C9405030C9405030C9405030C940503C0
:1000A0000C9405030C9405030C940503167C1E00A8
:1000B0001F0020002100220023002400250026002C
:1000C00027002D002E0031002B0014001A0008001C
:1000D000150017001C0018000C00120013002F0060
:1000E00030003500394204001600070009000A00FC
:1000F0000B000D000E000F003300340000002A003A
:100100001A7C00001D001B000600190005001100EC
:1001100010003600370038001B7C28000000E0008B
:10012000E324000000002C0000000000000000009C
:100130000000E734E400215201003A003B003C009B
:100140003D003E003F0040004100420043004400AB
:100150004500010001004B0052004E00010001006B
:100160000100010001000100010001000100010087
:100170000100500051004F0001000100010001008A
:10018000010001000100010000004C00010000001E
:100190000100010001000100010001000100010057
:1001A0000100010001000100000001000100000049
:1001B000000001000000000000000000000001003D
:1001C000010001000000000000000000000000002D
:1001D000000000000000000000000000000000001F
:1001E0002178000000000000000000000000000076
:1001F00000000000000000000000000000000000FF
:1002000000000000000000000000000000000000EE
:100210000000000000000000000000000000207846
:1002200004780378A900AA00000000000000000084
:1002300000000000000000000000000000000000BE
:1002400000000000000000000000010001000100AB
:100250001E0F0500047F3F1F643214643214783C83
:100260001E1E140A052223252628292A2C2D2F306C
:1002700032333536383A3B3D3E4042434547494AA2
:100280004C4E5051535557595A5C5E6062646668D3
:10029000696B6D6F71737577797B7D7F81838587DE
:1002A000898A8C8E90929496989A9C9E9FA1A3A5E1
:1002B000A7A8AAACAEAFB1B3B4B6B8B9BBBCBEBF09
:1002C000C1C2C3C5C6C7C9CACBCCCDCED0D1D2D28C
:1002D000D3D4D5D6D7D7D8D9D9DADADBDBDBDCDC97
:1002E000DCDCDCDDDDDDDDDCDCDCDCDCDBDBDBDA4F
:1002F000DAD9D9D8D7D7D6D5D4D3D2D2D1D0CECDBA
:10030000CCCBCAC9C7C6C5C3C2C1BFBEBCBBB9B8C6
:10031000B6B4B3B1AFAEACAAA8A7A5A3A19F9E9C4B
:100320009A98969492908E8C8A89878583817F7D16
:100330007B79777573716F6D6B6968666462605EF7
:100340005C5A5957555351504E4C4A4947454342C0
:10035000403E3D3B3A3836353332302F2D2C2A295A
:100360002826252322FFAA7F554000010101010113
:10037000010101010202020202020202020303035E
:10038000030303030304040404040404050505052E
:1003900005060606060607070707070808080809EE
:1003A0000909090A0A0A0B0B0B0C0C0C0D0D0D0E9A
:1003B0000E0E0F0F0F10101111111212131314142F
:1003C000151516161717181819191A1A1B1B1C1DA4
:1003D0001D1E1E1F202021222223242425262627FD
:1003E0002829292A2B2C2D2D2E2F3031323233342F
:1003F00035363738393A3B3C3D3E3F404142434435
:1004000045464748494A4C4D4E4F50515354555616
:1004100058595A5B5D5E5F616264656668696B6CC2
:100420006D6F7072737577787A7B7D7E808283853D
:1004300087888A8C8E8F91939596989A9C9EA0A27D
:10044000A3A5A7A9ABADAFB1B3B5B7BABCBEC0C287
:10045000C4C6C9CBCDCFD1D4D6D8DBDDDFE2E4E74B
:10046000E9EBEEF0F3F5F8FAFDFF100354006F002E
:100470006B0079006F003600300000001E0354004E
:100480006F006B0079006F0020004B006500790061
:1004900062006F0061007200640000000403090440
:1004A00009023B00020100A032090400000103011F
:1004B0000100092111010001224000070581030804
:1004C00000010904010001030000000921110100DD
:1004D00001226D00070582032000011201000200C5
:1004E00000000836546060010001020001050109A6
:1004F00080A101850319012AB700150126B70095CF
:100500000175108100C0050C0901A10185041901C4
:100510002AA002150126A002950175108100C005D0
:10052000010906A1018506050719E029E71500253F
:10053000019508750181020507190029EF150025AD
:100540000195F075018102050819012905950575C8
:10055000019102950175039101C005010906A101F0
:10056000050719E029E715002501950875018102A5
:100570009501750881010507190029FF150026FF5F
:10058000009506750881000508190129059505756E
:10059000019102950175039101C011241FBECFEF97
:1005A000DAE0DEBFCDBF04B603FE18C0809146037B
:1005B00090914703A0914803B09149038730904B35
:1005C000A740B04B59F41092460310924703109283
:1005D000480310924903E0E0F8E3099511E0A0E038
:1005E000B1E0EEE7F2E502C005900D92AA3CB1073A
:1005F000D9F723E0AAECB1E001C01D92A634B207FE
:10060000E1F70E944A120C94AA280C94000083304F
:10061000B8F46530A8F44E3098F450E09EE0699F3D
:10062000400D511D1124FA0196E4899FE00DF11D42
:100630001124EE0FFF1FE455FF4F8591949108950B
:1006400080E090E008950E940703089581E00895F6
:1006500081E008950E942803089508950E942D03C3
:100660000895A5E0B0E0E7E3F3E00C949C2749830C
:100670005A833091D10189819A81311119C0662341
:1006800099F0222389F00E942B09182F682F898165
:100690009A810E94070969817A81812F0E94940FB3
:1006A0002596E3E00C94B8270E941909182FF3CF80
:1006B0000E942B0969817A81F1CFFC01262F4081AC
:1006C00051816281738184810E943103089581E0A8
:1006D0000895CF93DF93EC0160E00E945D03BE01BB
:1006E0000E942E03DF91CF9108950E94C5100895B6
:1006F0000E94C910089508950E94D6070E947B03A6
:100700002FEF84E39CE0215080409040E1F700C04F
:10071000000008950E947C030E942A2008950E94F0
:100720007C030E944E2008950F931F93CF93DF9375
:100730008C0161E00E945D03EC01B8010E942A0374
:10074000811106C080E0DF91CF911F910F91089534
:10075000B801CE010E948C1A8823A1F3B801CE0102
:100760000E94B81D882371F3B801CE010E94A51B19
:10077000882341F3B801CE010E942A1D882311F37A
:10078000B801CE010E9432198823E1F2F80182817A
:10079000882361F0C330FCE7DF07E9F058F4C115A6
:1007A000ECE7DE07A9F0C130DC47B9F0C8010E94D0
:1007B0002603C9CFCB358CE7D807A9F0CC35ECE7B9
:1007C000DE0771F0CA35DC4789F70E942D0DEECFA8
:1007D0000E948A03B7CF0E94350D0E948F03B2CFCB
:1007E0000E94230DE3CF0E94310DE0CF0E945B1FDA
:1007F00080E00E94C11A0E94250408950E94B81941
:100800000E9429040E94601F089508950E94050413
:10081000089581E008950895CF93DF93D82F0E9423
:100820000904C82F882319F08D2F0E940B048C2FE8
:10083000DF91CF9108950895CF93C82F0E940604A9
:100840008C2F0E940C04CF91089580E00E941C041C
:1008500008950E94061E0E941C040895CF930E94D2
:10086000061EC82F8091CC018C1779F0C093CC0163
:100870000E94EB1F6093CD017093CE018093CF0156
:100880009093D0018C2F0E941C04CF910895ABE06F
:10089000B0E0EDE4F4E00C949D274F83588769871E
:1008A0007A878B8761110E946E0C1E821D8285E003
:1008B000FE013796DE01119601900D928A95E1F7BF
:1008C0008C819D81892B61F449815A816B817C8166
:1008D0008D819E810E94970B2B96E2E00C94B927A4
:1008E00089819A8189238F3F79F3CE0101960E94F5
:1008F00067038111E9CFF0CFFC01808191810E94D3
:100900005D090895CF93C82F8823C9F08238C9F4B0
:100910000E94061E81FD13C089E30E94260C0E94DE
:100920008F0C2FEF87EE93E0215080409040E1F74D
:1009300000C0000089E30E942E0C0E948F0CCF9112
:1009400008958338A1F40E94061E80FDF8CF83E548
:100950000E94260C0E948F0C2FEF81EE94E0215014
:1009600080409040E1F700C0000083E5E4CF843888
:10097000A1F40E94061E82FDE2CF87E40E94260CAD
:100980000E948F0C2FEF81EE94E021508040904028
:10099000E1F700C0000087E4CECF8CEF8C0F813AE6
:1009A000B8F48C2F0E94F31C8111C9CF6C2F809159
:1009B0000401909105010E948B1E882329F08C2F41
:1009C0000E942E0C0E948F0C8C2F0E94260CB5CFFB
:1009D00080E28C0F883048F4C77081E001C0880F36
:1009E000CA95EAF70E94510CA8CFEBE5EC0FE33073
:1009F00040F4F0E0EC5AFE4F808190E00E942D1E02
:100A00009ECFC85AC93108F09ACFEC2FF0E0EE0F14
:100A1000FF1FEE5DFE4F808191810E94521E8FCF9D
:100A2000882309F44DC0823879F40E94061E81FFA4
:100A300047C089E30E94260C0E948F0C89E30E9424
:100A40002E0C0E948F0C0895833859F40E94061EC4
:100A500080FF36C083E50E94260C0E948F0C83E540
:100A6000EECF843859F40E94061E82FF29C087E425
:100A70000E94260C0E948F0C87E4E1CF9CEF980F18
:100A8000913AE8F290E2980F983050F4877091E034
:100A900001C0990F8A95EAF7892F0E94570CD1CF90
:100AA0009BE5980F933028F490E080E00E942D1E83
:100AB0000895885A893120F490E080E00E94521E07
:100AC00008951F93CF93DF93182FEB010E948204A8
:100AD000209739F4812F0E941005DF91CF911F914B
:100AE00008958FE99FE00197F1F700C0000021977A
:100AF000EFCF70E060E0893311F460E570E00E94B0
:100B000061050895882321F00E94510C0E948F0CEA
:100B10000895882321F00E94570C0E948F0C08959D
:100B2000B0E0A0E0E6E9F5E00C9496276C01D62F42
:100B3000C72FFC011281F580F2949FE0F9220E94F8
:100B4000470CE82E8823B9F0E12E1123A1F08C2F59
:100B5000807F803421F080E28D0F8830D0F080914A
:100B6000FC0282FF16C082E00E94F20C0E94470C39
:100B700091E0E82EE926BC2EB2948FE0B822FBE08B
:100B8000FB1508F468C0EB2DF0E0E455F74D0C942C
:100B90005627E12CF0CF0C2F0F70C07F11F002957B
:100BA000007F112399F0002359F080E28D0F8830E7
:100BB00010F0D11107C0802F0E94510C0E948F0CA1
:100BC0008D2F41C0802F0E94610CF8CF8D2F0E9485
:100BD0001005002309F43FC080E28D0F883010F02B
:100BE000D11104C0802F0E94570C03C0802F0E9497
:100BF000670C0E948F0C2FC00C2F0F70C07FC0326B
:100C000011F00295007FDD2381F0D13009F468C036
:100C1000112309F472C0FF2009F468C0F601858130
:100C200080FFCECF8F70858361C08091FC0282FDF2
:100C300033C0112359F0002329F0802F0E94510C5A
:100C40000E948F0C80E00E94820405C080E00E9418
:100C500010050111C7CFEB2DE850FF0B349720F49E
:100C60000E94061E0E941C04EE2089F00E94430C84
:100C700080FD0DC0F60112820E943D0C0E946508A5
:100C8000C6010E949A070E943D0C0E947508CDB7CC
:100C9000DEB7E9E00C94B227112389F0F11006C009
:100CA0000E94710C802B0E948205D5CF21E0F212A8
:100CB000F7CF0E94710C802B0E94780CCCCFF110E2
:100CC00006C00E94850C802F0E948905C4CF31E0A8
:100CD000F31609F2802F0E9489050E94850CBBCF74
:100CE000112331F085E08F1508F4B5CF802FDBCFCD
:100CF00094E09F1508F4AFCFE6CFFF2021F3D9335E
:100D000049F4FFEF27EE33E0F15020403040E1F7A7
:100D100000C000008D2F0E9410059DCF8C2F86955E
:100D20008695837069F0813009F095CF8D2F9C2FC7
:100D30009370111102C080E090E00E94521E8BCF90
:100D40008D2F9C2F9370111102C080E090E00E94C3
:100D50002D1E81CF8C2F8370A1F511117CCF4D2FCB
:100D6000429546954770440F440F2D2F2F7030E069
:100D7000042E02C0220F331F0A94E2F790E080E0B5
:100D8000D4FF09C08FE090E002C0880F991F4A95F8
:100D9000E2F780959095C695C695C370822B932BEC
:100DA000C23049F058F4C13019F00E94350853CFD1
:100DB0000E942C0850CF0E943E084DCF0E94290867
:100DC0004ACF8695112311F08C2F8170882309F466
:100DD00042CF4D2F429546954770440F440F2D2F1B
:100DE0002F7030E0042E02C0220F331F0A94E2F766
:100DF00090E080E0D4FF09C08FE090E002C0880F4F
:100E0000991F4A95E2F780959095C695C695C3704F
:100E1000822B932BC23049F058F4C13019F00E9454
:100E2000A00819CF0E94970816CF0E94A90813CFD7
:100E30000E944D0810CFCF70112329F08C2F0E94F3
:100E400065088D2F30CF8D2F0E9489058C2F0E9431
:100E5000750801CFD23F51F160F4D03FB9F0D13FD6
:100E600081F0112309F449C0F110AACE8C2F8F71A3
:100E700021C0D33F11F1D43FA1F78091FC0282FD44
:100E800026C08C2F8F71112311F314C0112349F048
:100E900084E08F1508F4DFCE8C2F8F710E948708B5
:100EA000DACE95E09F1508F4D6CEF6CF8C2F8F7151
:100EB0001111CDCF0E946508CECE112329F08C2FC1
:100EC0008F710E945908C7CE0E945408C4CE1123C6
:100ED00049F0CF718C2F0E94650863E08C2F0E942F
:100EE000D40CB9CE81E00E94F20CE1E0EF1508F0DD
:100EF000B2CE82E00E94F20CAECEF11000CF8C2F69
:100F00008F71A5CF0F931F93CF93DF93EC0168816F
:100F100079818A810E9468098C010E94B2080E942E
:100F20002808B801CE010E949005DF91CF911F9152
:100F30000F910895CF93DF93EC018B819C81892BD6
:100F400029F08881998189238F3F51F4DF91CF91D6
:100F50000895CE010E948207CE010E946903F6CF58
:100F6000CE010E9494038111F4CF0E94470C882384
:100F700069F38A81882351F38091FC0282FFE6CFD6
:100F800082E00E94F20CE2CF90E080E00E942D1EF1
:100F900090E080E00E94521E0E946E0C0E948F0C16
:100FA00008950E94360C0E94C40708950E945E0CAA
:100FB0000E94D107089592959F70963091F058F451
:100FC000925F9F70923058F4803F19F030F4883E61
:100FD00030F481E008959A5FF4CF843FD1F380E04C
:100FE0000895883EB0F3813FD1F7F3CFFC018381B0
:100FF0009481892B29F08081918189238F3F11F47D
:1010000080E00895808191810E945D090E94DB0744
:101010000895A5E0B0E0EFE0F8E00C949D27259658
:10102000E2E00C94B927A6E0B0E0E9E1F8E00C9426
:101030009D272696E2E00C94B92708950E941D088A
:1010400008950E941E089093F9018093F801089575
:1010500008950E94210808952091F8013091F90126
:10106000822B932B0E94210808952091F801309142
:10107000F901822393230E94210808952091F80109
:101080003091F901822793270E94210808950E9438
:101090001D0808950E94470808950E944A089093E9
:1010A000F7018093F601089590E080E00E944D08DA
:1010B000089521E030E0A90102C0440F551F8A9530
:1010C000E2F7CA010E944D08089521E030E002C015
:1010D000220F331F8A95E2F78091F6019091F70174
:1010E000822B932B0E944D08089521E030E002C02E
:1010F000220F331F8A95E2F7209530958091F601F3
:101100009091F701822393230E944D08089521E0D6
:1011100030E002C0220F331F8A95E2F78091F6017A
:101120009091F701822793270E944D0808952091FE
:10113000F6013091F701822B932B0E944D08089500
:101140002091F6013091F701822393230E944D08EC
:1011500008952091F6013091F701822793270E948C
:101160004D0808950895262F277091E001C0990F2A
:101170002A95EAF723E0769567952A95E1F7660FB9
:10118000771F660F771FFA01E60FF71F50E040E068
:10119000682F70E08191DF0111979B01042E02C03E
:1011A000369527950A94E2F721702195282729235F
:1011B00028272C934F5F5F4F4430510559F708950E
:1011C000A82FA77023E0969587952A95E1F7880FB9
:1011D000991F880F991FFB01E80FF91F50E040E0AD
:1011E00080E0219130E00A2E02C0369527950A94BE
:1011F000E2F721703327042E01C0220F0A94EAF788
:10120000822B4F5F5F4F4430510559F70895262FC9
:10121000953070F48E3060F4682F70E08EE0989F07
:10122000600D711D112442ED51E0822F0E94B30820
:101230000895292F953068F48E3058F490E062EDCF
:1012400071E03EE0239F800D911D11240E94E00873
:10125000089580E00895B0E0A0E0E1E3F9E00C94A7
:1012600096277C010091F6011091F7018091F80119
:101270009091F901082B192BCFE0D0E0CC24C39436
:10128000D12CBC2EC6010C2E02C0880F991F0A94C7
:10129000E2F780239123892B49F4219790F7B12C11
:1012A0008B2DCDB7DEB7E9E00C94B227B7018C2FB8
:1012B0000E94A00F019789F3F3CFCF93DF93EC0146
:1012C0000E942B09BE010E94A00FDF91CF910895CB
:1012D0001F93CF93DF93EB019091D101992339F0C4
:1012E000CB010E945D09DF91CF911F910895882362
:1012F00069F0CB010E942B09182F682FCE010E94A4
:101300000709BE01812F0E94A00FEDCFCB010E94E3
:101310001909182FF6CF1F93CF93DF93C091FA01CD
:1013200016E08091FB018C1304C0DF91CF911F91D7
:101330000895D0E01C9FF0011D9FF00D1124E45092
:10134000FE4F4081518162817381848195810E9429
:1013500013082196C770E5CF40912C0250912D02C1
:1013600060912E0270912F02809130029091310293
:101370000E94130808951F93CF93DF938091310249
:10138000807F09F049C080912E02882309F444C06F
:101390008091FA01C091FB0160912C0270912D02A5
:1013A000A0912F02B0913002D62FD72316E0C81794
:1013B00099F190E0109711F0DF3F19F401968770D2
:1013C000F6CF189F9001199F300D1124F901E450B8
:1013D000FE4F41814713F2CF40814613EFCF428148
:1013E0004111ECCF438154814A1B5B0B483C5105B2
:1013F00028F7809131028F70806180933102F9016A
:10140000EF5FFD4F80818F70806180838CE292E07E
:101410000E949A070E948B09DF91CF911F91089536
:10142000A1E1B0E0E6E1FAE00C9495278C0185E0BB
:10143000F801DE011D9601900D928A95E1F7F80101
:10144000E2808CE2C82E82E0D82E60912F0270914B
:1014500030026115710509F44EC190912C02209162
:101460002D02892F82238F3F09F445C1408151818C
:10147000A380B480F0902E02F501E61BF70BFF204D
:1014800009F4EAC080913102382F307FE83CF10541
:1014900008F0A3C031116DC0FE2C251316C09413A3
:1014A00014C0E11012C08F708061809331020E94DD
:1014B000AC09C6010E949A0780913102F801858328
:1014C0008F2D6196EAE00C94B127A114B10429F0A4
:1014D000842F85238F3F09F027C180E0F82FF1701A
:1014E000DF2E80FF3CC08091FA012091FB0136E0A5
:1014F000821315C04D875E878D859E850E945D098C
:10150000292F22952F702230F0F0243018F59F708B
:10151000F1F0F8019581907FD1F4D12C1EC090E0BC
:10152000389FF001399FF00D1124E450FE4F618186
:10153000651306C06081641303C06281E6120FC0A8
:1015400001968770D5CF9F7011F0882331F3805EAC
:10155000883018F3C8010E949A07FD2CB1CFEE2005
:1015600009F4AECF80913102816080933102F12C79
:10157000A7CF251306C0941304C0F801EE2009F488
:1015800087C0C8010E94F607882319F1EE2009F1EF
:1015900080913102803270F020912C0230912D0226
:1015A00038872F831986BB86AA868C87CE0107963B
:1015B0000E949A0786E0F801ACE2B2E001900D9239
:1015C0008A95E1F70E94BB090E94AC09FF24F394BD
:1015D00077CFC8010E949A07F9CF311113C07A2D35
:1015E000B98AA88A6E2D89890E9409088CE292E046
:1015F0000E949A0786E0F60111928A95E9F70E9407
:10160000AC09B5CF25130FC094130DC0E1100BC06A
:10161000F8018583C8010E949A0786E0F6011192BD
:101620008A95E9F74DCFC8010E94F607882389F211
:10163000EE2079F280913102803208F4BBCF209104
:101640002C0230912D023A8329831B82BD82AC8209
:101650008E83CE010196ACCFE83CF10508F03EC088
:10166000FE2CEE2009F4B5CF25132AC0941328C010
:101670008091310280FD1BC0982F907FC1F0F8014E
:101680008583903F31F0982F907F905F8F70892BEA
:101690008583C8010E949A0786E0F801ACE2B2E0B7
:1016A00001900D928A95E1F70E94AC0909CF86E07E
:1016B000F801ACE2B2E001900D928A95E1F700CF1B
:1016C000C8010E94F607811175CF809131028160B7
:1016D00080933102C8010E949A07F2CE7A2DB98A0E
:1016E000A88A6E2D89890E94090886E0F601119268
:1016F0008A95E9F7D9CFEE2009F46BCFC8010E9493
:10170000F607F82E882309F464CF86E0F801ACE2EE
:10171000B2E001900D928A95E1F78CE292E00E948E
:101720007C040E94BB09C0CF81E08E25D7CEACE0FF
:10173000B0E0EDE9FBE00C949C274F835887698764
:101740007A878B879C87CE0107960E94100A882390
:1017500069F08A859B85892B39F04F815885842FC4
:1017600085238F3F09F06BC016E05FC086E0FE0165
:101770003796DE01119601900D928A95E1F78A85E0
:101780009B85892B89F388859F8189238F3F61F30E
:101790002091FB0130E0C9010196877099274091A3
:1017A000FA014817190671F40E94D6071092FB013E
:1017B0001092FA0186E0ECE2F2E0DF011D928A95D8
:1017C000E9F7D2CF96E0929FD001939FB00D1124FC
:1017D000A450BE4FFE01319601900D929A95E1F70B
:1017E0008093FB010E948B09BFCF819FC001112410
:1017F00084509E4F0E94100A8823E9F0E091FA017C
:101800001E9FF0011124E450FE4F408151816281FE
:101810007381848195810E9413088091FA0190E080
:101820000196877099278093FA018091FA0190912F
:10183000FB018913DACF2C96E3E00C94B827698575
:101840007A858B859C850E9413088ECF682F8091A6
:101850000401909105010E940B1F0895682F80914B
:101860000401909105010E94191F089580910401BF
:10187000909105010E94271F08958091520285953D
:10188000859585950895809152028770089590916D
:101890005202977081E009F480E00895809175020A
:1018A000089590917502892B809375020895809513
:1018B0009091750298239093750208951092750285
:1018C000089590917402892B8093740208958095F5
:1018D0009091740298239093740208951092740268
:1018E000089580915302089508950E94740C0895FC
:1018F0009091FC0292FF08C090915302981721F03A
:10190000809353020E94750C08958091530288239E
:1019100029F01092530280E00E94750C0895CF9335
:10192000DF93E0910401F0910501809175028083BD
:10193000E0910401F0910501808190917402892B5E
:10194000808390915302992381F0E0910401F091FA
:1019500005018081892B808380910401909105018C
:101960000E94771E81110E94850CC0910401D091C4
:10197000050140E250E062E372E0CE010E942D28B2
:10198000892B59F080E2FE01A2E3B2E001900D92B2
:101990008A95E1F7CE010E94131EDF91CF91089541
:1019A00008950E94D00C08959091FC0292FF11C0FE
:1019B00098E0899F90011124622B609352020E944B
:1019C0006508809152028595859585950E94D10C78
:1019D00008950E94650808951092520280E00E94C6
:1019E000D10C0895909152028095892380935202E0
:1019F000282F277091F4282F082E000C330B9217F4
:101A0000130659F09091FC0292FF07C085958595C9
:101A100085950E9475080E94EC0C08959091FC0237
:101A200092FB222720F9281769F080FB92F9909306
:101A3000FC028091FB029091FC020E94560D82E014
:101A40000E94F20C08958091FC0282FB882780F9A5
:101A500091E089270E940E0D089581E00E940E0DED
:101A6000089580E00E940E0D08956FEF7FEF90E0E3
:101A700080E00E947528089590E080E00E9451283F
:101A800021E0873E9E4F09F020E0822F089582E0FA
:101A900090E00E944328089583E090E00E9443284C
:101AA000089584E090E00E9451280895BC0184E0EC
:101AB00090E00E9475280895AB01BC018FE090E092
:101AC0000E9469280895AB01BC0183E190E00E9467
:101AD0006928089560E070E0CB010E94630D0895CD
:101AE00060E070E0CB010E945C0D0E946A0D0895D9
:101AF00067EE7EEF90E080E00E94752860E082E073
:101B000090E00E94572860E083E090E00E94572810
:101B10001092F9011092F80160E074E184E090E025
:101B20000E94752860E086E090E00E9457286FEFE1
:101B300087E090E00E94572840E050E0BA0188E03A
:101B400090E00E94692860E08DE090E00E945728B4
:101B500040E050E0BA0188E190E00E94692860E02E
:101B600087E190E00E94572840E050E0BA018CE104
:101B700090E00E94692870E060E080E290E00E94BE
:101B8000752840E050E0BA0188E190E00E946928A1
:101B90000E94700D08950E94780D0895682F8EE0C0
:101BA00090E00E94572808950E94EB1F60938602E0
:101BB00070938702809388029093890260938202D7
:101BC0007093830280938402909385020895089510
:101BD00008950E94E80D089508950E94EC0D08955F
:101BE0008AE890E10E94FC1D0E94E70D0E94E90D29
:101BF000089581E008950E94F90D089508950895CB
:101C00000E94FE0D0E94FF0D08950E94A6100E94E2
:101C10001B040E94681B08950E94D61F0E94921107
:101C20000E94050E0E94B8190E9446180E94ED0DF0
:101C30000895AAE0B0E0EFE1FEE00C9492270E9444
:101C4000A81128E7822E22E0922E640110E0F6010E
:101C5000E190F1906F01812F0E94CC101F5F153031
:101C600009F449C0E816F90691F380918A0281FDD2
:101C70000E94D5100E94FB0D782E10E0812F0E944B
:101C8000CC107C01F401A190B1904F018A159B0505
:101C900061F100E0CC24C394D12CAE24BF24C50153
:101CA0008C219D21892BC1F07720B1F00E831F83F9
:101CB00021E0C7018C219D21892B09F420E0288790
:101CC0000E94DF1F8160782F9A8789874E815F810C
:101CD00068858A850E9447040F5FCC0CDD1C0E309E
:101CE000F1F6F4013297F182E0821F5F153031F690
:101CF0000E94D40D22C0E816F90609F0B6CF0E9462
:101D0000DF1F8C01809176029091770208171907E6
:101D1000A1F08FEF89838A831B820E94DF1F81607D
:101D2000782F9D838C8349815A816B818D810E949C
:101D3000470410937702009376020E9479180E945C
:101D4000671B0E942E042A96EDE00C94AE27CF93D9
:101D5000DF930E94A50FEC01811520E59207D0F5D5
:101D6000811530E4930708F086C0803E910518F590
:101D70008D3C910508F07DC0883A910570F4853A54
:101D8000910508F06EC08130910501F10097F1F0E6
:101D90000497E0F4D0E0C0E019C0813C9105D0F791
:101DA000C85AD0E0CC0FDD1FC95ADE4F0990D88148
:101DB000C02DD4640BC08115904208F0A8C0C11595
:101DC00081E0D80718F4C83ED10520F7CE01DF9195
:101DD000CF910895803622E5920710F5803432E5E0
:101DE000930708F052C08032924508F047C0C115F1
:101DF00082E5D80708F47DC02C2F2695269540E271
:101E0000249F900111248C2F8370C1E0D0E002C088
:101E1000CC0FDD1F8A95E2F7C22BD32BDD68D6CF1E
:101E2000803A22E5920760F4803832E5930708F49F
:101E300041C0CF71D0E0DC2FCC27C46FD06AC6CFB1
:101E4000803C42E5940708F449C0C03E82E5D807CB
:101E500008F0A0CFDC2FCC27CC27DF71C06FD06A71
:101E6000B5CFC55AD0E0C757DE4FC881D0E0D064A7
:101E7000ADCFD065ABCFDF70D06AA8CFCF71D0E047
:101E8000DC2FCC27C16FD06AA1CF282F26952695AD
:101E9000277080E2289F900111248C2F8370C1E06D
:101EA000D0E002C0CC0FDD1F8A95E2F7C22BD32B06
:101EB000DC688CCF282F26952695277040E2249F3A
:101EC000900111248370C1E0D0E002C0CC0FDD1F6F
:101ED0008A95E2F7C22BD32BDA6878CF8F710E94F4
:101EE0004710C82FD0E0DC2FCC27CC27DF71D06281
:101EF0006DCF8C2F8F710E94471035E0D695C79516
:101F00003A95E1F7CF709C2FEC01D0695FCF8D2F10
:101F10008F710E94471090E0982F882788279F7123
:101F20009C012C2BE901E3CF462F753030F46E3045
:101F300020F4672F0E942303089590E080E0089525
:101F40000E94940F0E94A70E089582389105B9F15E
:101F5000B0F48133910509F47DC048F489329105CC
:101F600009F46DC08A32910509F47BC00895853368
:101F7000910509F45FC08933910509F10895833E05
:101F80009105D9F138F4803E910529F1823E910501
:101F900079F10895863E9105D9F1873E910509F4BE
:101FA0003EC0843E910541F52091FC0221FF24C0F2
:101FB0008091FB0284FD19C087EE90E00895209186
:101FC000FB02237009F05AC02091FC0223FF14C0C9
:101FD00089E290E008952091FB0220FD38C0309105
:101FE000FC0230FF09C024FF43C090E080E0089568
:101FF0002091FB0222FDF7CF08952091FB0222FDE4
:102000003AC03091FC0230FD39C024FFF5CFEDCF4E
:102010002091FB0223FFF0CF24FDE7CFCDCF20910D
:10202000FB0223FD2EC03091FC0231FFEECF84EE87
:1020300090E008952091FB0225FFDECFC9CF2091CB
:10204000FB0225FD21C02091FC0223FFD5CF89E3AF
:1020500090E0D2CF2091FB0226FFCECF8AE290E023
:1020600008952091FB0226FFC7CF81E390E00895F9
:1020700083EE90E0089582EE90E0089580EE90E087
:10208000089586EE90E0089585E390E0089590919C
:10209000FB0292FF06C0282F28712830F9F4877FB1
:1020A000846093FF06C0282F28712831F1F4877EC1
:1020B00084612091FC0220FF06C0382F387138302F
:1020C000D9F4877F816021FF06C0282F287128312D
:1020D000D1F4877E816194FD877E0895282F247135
:1020E0002430F9F68B7F8860DCCF282F24712431CF
:1020F00001F78B7E8861DDCF382F3171313019F7D0
:102100008E7F8860E0CF282F2171213121F78E7ECC
:102110008861E1CF80E008950E94350D08950E9406
:10212000A8118FE39CE90197F1F700C000000E941D
:10213000A81180E00E94CC1080FF04C00E948C1087
:102140000E942A2008950E948F1008950E943C0D3D
:10215000811102C00E94CB0D0E94470D80938A021C
:102160000E94510D9093FC028093FB020E94A310E9
:102170000E944C0D90E00E9429088091F6019091F8
:10218000F7010E944A08089508950E94C410089516
:1021900008950E94C8100895E82FF0E0EE0FFF1F89
:1021A000E95FFC4F808191810895089580EA8A95C6
:1021B000F1F7089500C008950E94D6100895F8948C
:1021C000E82FE295EF70F0E031A1282F2F7081E029
:1021D00090E001C0880F2A95EAF7982F90959323F5
:1021E00091A392A1892B82A3789408950F931F93B2
:1021F000CF93DF93CCE8D1E089918F3F11F00E941B
:10220000DF1081E0CA39D807B9F7CAE9D1E00FE990
:1022100011E089918F3F11F00E94DF100C171D070C
:10222000C1F7DF91CF911F910F9108958F929F92E7
:10223000BF92CF92DF92EF92FF920F931F93CF93B3
:10224000DF93D82EE92EF62E8A01C62FD0E0C45790
:10225000DE4F28812F3F09F453C0F894E22FE29516
:10226000EF70F0E031A12F7081E090E001C0880FA5
:102270002A95EAF7932F982B91A392A18095892311
:1022800082A378940E94DA108AE9882E81E0982E41
:10229000ED2DFE2DBF01665F7F4FE12C6801C094DC
:1022A000D094D401BD904D0181919191AF014250E4
:1022B0005109BFEFBB1681F12B2D22952F7030E015
:1022C000D90190962C9130E0BB2DBF7002C035959E
:1022D0002795BA95E2F720FD1FC0802B912BDA01DC
:1022E0008D939C93EE24E3946E177F07D1F688813B
:1022F0008F3F11F00E94DF106E2D8F2D0E94DC1099
:10230000DF91CF911F910F91FF90EF90DF90CF90D1
:10231000BF909F908F9008958C219D21DA018D931D
:102320009C93E2CF0E94F6108AE0E7E0F3E0DF0141
:10233000982F1D929A95E9F7EDEFF2E0DF011D92DB
:102340008A95E9F785E00E94FC110E9475030895C3
:10235000CF92DF92FF920F931F93CF93DF93CDB76E
:10236000DEB72A970FB6F894DEBF0FBECDBF8E0141
:102370000F5F1F4F8AE0F80111928A95E9F7F12C5F
:10238000CC24C394D12CA6016F2DC8010E94161134
:10239000F394CC0CDD1CFEE0FF12F5CF4AE050E0D8
:1023A000B8018DEF92E00E942D2821E0009709F4FA
:1023B00020E0892B41F08AE0F801ADEFB2E0019016
:1023C0000D928A95E1F745E067E073E08DEF92E0CA
:1023D0000E94FD11182F0E947803812F2A960FB6B4
:1023E000F894DEBF0FBECDBFDF91CF911F910F914B
:1023F000FF90DF90CF9008950895CF92DF92EF92F3
:10240000FF921F93CF93DF936C017B01C42F222394
:1024100049F081E080938D020E94DF1F90938C022F
:1024200080938B0210918D0211110AC010E0812F50
:10243000DF91CF911F91FF90EF90DF90CF900895A3
:1024400080918B0290918C020E94F71F059770F388
:10245000D0E0CC0FDD1FAE01B601C7010E942D28D0
:10246000892B41F0AE01B601C7010E943A281092B3
:102470008D02DDCF10E0FBCF0E94BD210E940C0E2B
:102480000E94CA2108950E94CF210E94190E0E9425
:10249000E92108950E94781F0E94A3210E94F00D57
:1024A0000E943C120E9443120E94000EFBCFEF924A
:1024B000FF920F931F93CF93DF93EB01E82FD1117E
:1024C0000EC0442321F0F0E0E659FC4FE4916E2F5A
:1024D0007E2F8E2FCDB7DEB7E6E00C94B5270D2FFB
:1024E00010E0282F30E0442329F026593C4FF90111
:1024F000249130E0F6E0CF9FC0011124EFEFF0E02F
:10250000BF010E940C27AB018C2F90E0880F991F10
:10251000A5E5A49FB001A59F700D1124861B970B04
:10252000982F990F980FBF01601B710B629FD0010C
:10253000639FB00D729FB00D11248B2F9D9FB00132
:102540001124672F7727EF01C61BD70BBE01629FAF
:10255000E001639FD00D729FD00D11247F01E91A15
:10256000F108E09EB001E19E700DF09E700D112407
:10257000672F7727E61BF70BE29F8001E39F100D83
:10258000F29F100D1124E12F722F4230510599F066
:1025900048F44115510569F04130510581F0EB2FA8
:1025A0008D2F07C04430510569F080F04630510549
:1025B000B1F76E2F8FCFE22F7B2F812FFACFE22F33
:1025C0007D2FF7CFEB2F822F712FF3CF7B2F822F11
:1025D000ED2FEFCF41E00E945712089508950E9419
:1025E000EA120895CF93DF93762FE901682F842FA5
:1025F0000E94EF12798368838A83DF91CF910895D7
:1026000080911103982F9E7F29F4817082608093BE
:10261000110308958635E8F381708465F8CF88E06A
:1026200090E00E944B280895CF92DF92EF92FF92A4
:102630006B017C010E940013B701A60188E090E0C5
:102640000E946928FF90EF90DF90CF900895E1E11C
:10265000F3E083E0808311828FEF8283838314828F
:1026600060817181828193810E9414130895809109
:10267000110380FF02C08695089580E0089590912F
:102680001503933018F49F5F90931503882351F03E
:1026900060911103709112038091130390911403C0
:1026A0000E941413089581E00E943F1308959091B1
:1026B0001503992319F0915090931503882351F035
:1026C0006091110370911203809113039091140390
:1026D0000E941413089581E00E945713089570E03A
:1026E0000E94791B089560910A018091110380FF77
:1026F0000BC08091090123E0829FC00111248A5EF2
:102700009C4F0E946F13089580910B0190910C01D2
:1027100023E0829FF0011124EA5EFC4F891748F7FD
:102720001182108212828F5F3396F8CF909111033D
:1027300090FF0EC090910B0120910C0133E0939F0C
:10274000F0011124EA5EFC4F921718F00E947313F7
:1027500008958183608342839F5F3396F5CFA3E022
:10276000B0E0E5EBF3E10C949D279091110390FF0D
:102770000AC09E012F5F3F4F0E94F2124B81698178
:102780008A810E9496132396E2E00C94B927CF9396
:10279000DF93EC01EC81F0E0EB59FD4F4491E1E176
:1027A000F3E0628181810E94AF138C818F5F8C8303
:1027B000DF91CF910895CF93DF93EC01E1E1F3E056
:1027C000438162818C810E94AF138C818F5F8C83E7
:1027D000DF91CF910895A3E0B0E0E1EFF3E10C9435
:1027E0009B278C0180918E0281110AC09E012F5F70
:1027F0003F4F4FEF6FEF0E94F2128A8180938E025B
:10280000F8016481613069F080918E0240E06623B6
:1028100061F040E0623011F440918E0280E060E0AF
:1028200004C060918E0240E080E00E949613F8019F
:10283000848190E0019663E070E00E942027848309
:102840002396E4E00C94B727A3E0B0E0EAE2F4E1D9
:102850000C949627082FD62EE42EC22E90911103A9
:1028600090FF29C0E92FE695AE2FB0E0A156BE4FEC
:102870008C918093CA029E7F923009F59E012F5F52
:102880003F4F802F0E94F2124B8169818A810E9402
:10289000961300931203D0921303E0921403CC20FA
:1028A00051F0609111037091120380911303909184
:1028B00014030E9414132396E9E00C94B22782308B
:1028C00019F4E0901403E5CF863019F40091120357
:1028D000E0CF8930D9F38931E1F6E9516E2F61708B
:1028E000B62EE695F0E0EB59FC4F1491F12C609177
:1028F0000D01F61618F00E947313CBCFF19EC001A4
:10290000112470E00E940C27802FB11014C0860F94
:1029100020910B01622F6F0D7727771F9B01220FEC
:10292000331F260F371F2A5E3C4F4E2D6D2D0E9400
:10293000F212F394DCCF861BEBCFE1E1F3E091815F
:10294000282F438162818CE0890F0E94241408950E
:1029500081E00E949D140895E1E1F3E09181282F28
:102960004381628184EF890F0E942414089581E0DD
:102970000E94AC140895E1E1F3E062812CE0620F63
:1029800008F46FEF282F438181810E942414089559
:1029900081E00E94BB140895E1E1F3E062812CE044
:1029A000621B08F460E0282F438181810E94241477
:1029B000089581E00E94CC140895E1E1F3E04381A1
:1029C0002CE0420F08F44FEF282F628181810E9492
:1029D0002414089581E00E94DD140895E1E1F3E0FC
:1029E00043812CE0421B08F440E0282F6281818162
:1029F0000E942414089581E00E94EE14089520E0BE
:102A00000E9424140895EF92FF921F93CF93DF93B7
:102A1000EC0110E0EE24EA94F12C60910D01161700
:102A200070F00E9473139A818C8190FF27C08F5F92
:102A30008C83DF91CF911F91FF90EF9008952091AB
:102A40000B01422F410F5527551FCA019A01220F32
:102A5000331F280F391F2A5E3C4F70E0C7010E94C8
:102A60002027962F8C814091140360911303199FA6
:102A7000800D11240E94F2121F5FCFCF8150D8CF5A
:102A8000B0E0A0E0E6E4F5E10C949527FC0182813A
:102A90000FEF80FF01E010E04AE0A42E80910D01CD
:102AA000181798F00E94731380919002013009F07A
:102AB0004FC0811102C080910D018150809390021E
:102AC000CDB7DEB7EAE00C94B127C0910B01C12E5F
:102AD000D12CCC0DDD2DD11DCE01880F991FC80F33
:102AE000D91FCA5EDC4F198218821A8234E0E32EA5
:102AF000F12CB12C809190028B0D8B301CF16A2D42
:102B00000E94FE26892F082E000C990BC816D906A4
:102B100091F4809114038E9DA0018F9D500D11247E
:102B200055954795559547959E0160911303809162
:102B300012030E94F212B00EF1E0EF1AF108D1F682
:102B40001F5FACCF87FFDFCF90910D01890FDBCFE7
:102B500090E0019660910D0170E00E942027AECFB9
:102B60000F931F93CF93DF9380910B0190910C01F2
:102B700023E0829FF0011124EA5EFC4F891740F1A7
:102B8000C0E0D3E060910D01C61740F10E947313BD
:102B90002091070180918F02820F80938F02909184
:102BA0000801920F90930801191654F4082E000C96
:102BB000990B40910D014150550B841795071CF05E
:102BC000219520930701DF91CF911F910F910895D7
:102BD0001182108212828F5F3396D0CF0C2F10E0BB
:102BE00070E0C8010E94202720910B01820F482F1E
:102BF00050E020918F02022E000C330B02171307B6
:102C0000BCF020910801022E000C330B2017310775
:102C10007CF08D9F900111242A5E3C4F409114035B
:102C200060911303809112030E94F212CF5FAACF2A
:102C3000FA01EE0FFF1FE40FF51FEA5EFC4F118251
:102C400010821282F3CFB0E0A0E0E9E2F6E10C944A
:102C50009327EC014C81042F10E09801D8010E94C9
:102C600064279B01AC010E947A274B015C01E0E2E2
:102C7000F0E0E01BF10BA5E5B0E0AC019B010E9488
:102C80007A276B017C019F01DF010E945C279B0179
:102C9000AC010E9485279B01AC01280D391D4A1DFE
:102CA0005B1DC701B6010E943427F22E822F90E0EF
:102CB00039E23F1520F143E0249F9001112435951E
:102CC0002795122F109500E085E5E82EEF188091EA
:102CD0000D01081718F10E9473139C8181E099235C
:102CE00019F0903219F48FEF80930601809106015C
:102CF000890F8C83CDB7DEB7ECE00C94AF2725E5C8
:102D000030E0B901681B790B9B01220F331F260F9E
:102D1000371F37FFD4CF2F5F3F4FD1CF8E2D01FD0F
:102D20008F2D20910B01622F600F7727771F9B015A
:102D3000220F331F260F371F2A5E3C4F412F609111
:102D400013030E94F2120F5FC2CF0F931F93CF9312
:102D5000DF93EC0110E000E090910D019017110657
:102D600009F06CF40E9473138C8190E001968170DD
:102D700099278C83DF91CF911F910F910895209116
:102D80000B01A801420F511D9A01220F331F240F7E
:102D9000351F2A5E3C4F4C816091130380911203D2
:102DA00096959017110651F04CF0442349F040914C
:102DB00014030E94F2120F5F1F4FCECF4423B9F3CA
:102DC00040E0F7CFB0E0A0E0E8EEF6E10C948F270A
:102DD000FC016280448081E08483E5E6F2E0749047
:102DE000E4EEF2E0E491C0911403C695C158D0E03E
:102DF000CC0FDD1FCD2FDD27812C75E0972EAA2467
:102E0000AA94B12C55245A94E719EE2EF12C8091F6
:102E10000D01881638F00E947313CDB7DEB7E0E1DC
:102E20000C94AB27C82CD12C82E0861568F09C9CB2
:102E3000F0019D9CF00D1124EF56FD4F809112037F
:102E40008083809113038183411023C09C9CF001F7
:102E50009D9CF00D1124EF56FD4F1382128220919C
:102E60000B01C601820F911D9C01220F331F280FF9
:102E7000391F2A5E3C4F9C9CF0019D9CF00D112453
:102E8000EF56FD4F4281618180810E94F21283944E
:102E9000BECF9C9C80019D9C100D11240F561D4F90
:102EA000F80183818823F1F081508383859DC001DF
:102EB0001124648170E00E940C27FB01FF27EB596D
:102EC000FD4F8491E82FE719E59DC0011124B7015A
:102ED0000E940C2780911403689FB0011124F8010F
:102EE0007283BDCF0E941028B5010E9420278C1745
:102EF0009D070CF0B4CFF2E0F61598F40E9410286C
:102F0000B5010E942027F80180830E94102820919B
:102F100013032695622F70E00E942027280FF801E6
:102F200021839C9CF0019D9CF00D1124EF56FD4FD8
:102F3000128280911403893C58F088EC9C9CF0012B
:102F40009D9CF00D1124EF56FD4F8483838387CF22
:102F50008431A0F784E1F2CFE1E1F3E080818E7F5C
:102F6000808360817181828193810E941413109209
:102F7000CB020E947313089560911103669570E06F
:102F80004BE050E08EE091E00E942028892B19F45C
:102F900081E08093CB020E94DF1F9093C402809354
:102FA000C30208959091110390FF2BC0917081117D
:102FB00029C0926090931103662351F06091110330
:102FC0007091120380911303909114030E941413C3
:102FD00060911103669570E04BE050E08EE091E067
:102FE0000E942028892BA9F01092CB0281E08093C7
:102FF000C6024091140360911303809112030E9452
:10300000FF1408958B3210F09465D4CF880F982B5D
:10301000D1CF0E94BC17EACF682F909111039695EB
:1030200081E0890F8B3208F081E00E94D217089569
:1030300081E00E940C180895682F909111039695D5
:103040008FEF890F09F48AE20E94D217089581E078
:103050000E941C18089561E00E94D2170895E1E1D2
:10306000F3E080818160808386950E942B1808950B
:103070008091110380FF03C00E94AC1708950E9445
:103080002F18089560E00E94D21708958091C90218
:1030900081112EC00E943C0D811104C00E94CB0DF5
:1030A0000E9427130E940F13609311037093120361
:1030B00080931303909314036E7F61F40E9427138F
:1030C0000E940F13609311037093120380931303F4
:1030D000909314030E9400131092CB02809111036D
:1030E00080FF03C086950E94421881E08093C90248
:1030F00008950F931F93CF93DF938091CB02882382
:10310000B9F18091CA02E0911103E695E81BE093C2
:10311000C502823091F5F0E0EF59FD4FE491CE2FDA
:10312000D0E007EC13E18091C602882361F0109291
:10313000C6020E94DF1F9093C4028093C3021092C4
:10314000C8021092C7020E94DF1FE091C302F091F3
:10315000C4028E1B9F0B8F3F9F4750F4EC0FFD1F47
:10316000F093C402E093C30283EC92E0F801099566
:10317000DF91CF911F910F910895863049F4F0E0CF
:10318000E25AFD4FE491CE2FD0E00BED13E1CBCF0F
:10319000893051F4E695F0E0E55AFD4FE491CE2FE9
:1031A000D0E003E015E1BFCF8F3051F4E695F0E0B9
:1031B000E85AFD4FE491CE2FD0E000E415E1B3CF03
:1031C000853149F4F0E0EB5AFD4FE491CE2FD0E089
:1031D00000EB15E1A8CFC8E2D0E003E216E18831A8
:1031E00009F4A1CF833239F4E3E5F2E0C591D4913B
:1031F0000BEE13E198CFC4EFD1E005EA16E184327B
:1032000009F491CFC0EDD7E00EEE12E1853209F05E
:103210008ACF8E2F63E00E94F226E92FF0E0E05B78
:10322000FD4FE491CE2FD0E002EE16E17CCFFA0103
:10323000811101C0FB0109950895CF93DF93C82F39
:10324000D62F0E9437138C1748F00E9437138D1722
:1032500028F40E941818DF91CF9108958C2F0E94B6
:103260002B18F9CF1F93CF93DF93EC01FB01128151
:10327000111110C00E944E0C8272FE01E052F847FC
:10328000E531F10508F05EC0E854F74D0C9456277F
:103290000E943818812FDF91CF911F91089547E246
:1032A00058E168E178E10E941719F4CF48E158E14C
:1032B00067E278E1F8CF47EB54E168EA74E1F3CFD5
:1032C00048EA54E167EB74E1EECF49ED54E168EC74
:1032D00074E1E9CF48EC54E169ED74E1E4CF4BEFE0
:1032E00054E16AEE74E1DFCF4AEE54E16BEF74E132
:1032F000DACF4BE653E163E573E1D5CF43E553E124
:103300006BE673E1D0CF81E00E942B18C3CF65E05C
:1033100082E00E941D19BECF68E086E0FACF6EE021
:1033200089E0F7CF64E18FE0F4CF67E185E1F1CF89
:1033300088E1EACF62E289E1ECCF83E2E5CF6AE29D
:1033400085E2E7CF11E0A6CF86E090E00E94432817
:103350000895682F86E090E00E9457280895E4E3DE
:10336000F3E080818470816380830E94A9190895AD
:103370000E943C0D811104C00E94CB0D0E94AF1928
:103380000E94A41980933403883320F087708063EF
:103390008093340390913403892F817090FF04C08F
:1033A000892F8695869586950E94C11A08958091E9
:1033B0003403982F969596959695963040F49F5F96
:1033C000990F990F990F8770892B809334038091FF
:1033D00034038160809334030E94A91980913403DF
:1033E0008695869586950E94C11A0895809134032A
:1033F000982F987F79F0885080933403887F91E0EC
:1034000009F490E08091340390FB80F980933403B9
:103410000E94A919809134038695869586950E940D
:10342000C11A08958091340380FD13C08160809398
:103430003403813019F489E080933403809134039C
:103440000E94A919809134038695869586950E94DD
:10345000C11A08958091340380FF08C08E7F809345
:1034600034030E94A91980E00E94C11A0895809136
:10347000340380FF03C00E942A1A08950E94121A82
:10348000089590913403892F8695869586958F5F50
:103490008F7197708730E0F4880F880F880F892B21
:1034A0008093340380913403887F91E009F490E0A5
:1034B0008091340390FB80F9809334030E94A91912
:1034C000809134038695869586950E94C11A089549
:1034D00090933403E7CF873008F086E0909134036F
:1034E0009770282F220F220F220F922B90933403D4
:1034F000987F21E009F420E09091340320FB90F9BB
:10350000909334030E94C11A08950E946B1A80910F
:1035100034030E94A91908959C01FB01828188232C
:1035200049F12230F8E73F07F9F040F42115E8E7C8
:103530003E0769F02130384779F00895243098E744
:10354000390779F058F02530384789F0089586E03A
:103550000E94851A80E0089580E0FACF0E94F61953
:10356000F9CF0E94D719F6CF0E94371AF3CF0E94E5
:10357000411AF0CF81E00895279A2F9808952F9847
:1035800008958F929F92AF92BF92EF92FF920F9306
:103590001F93CF93DF93C82F8730C0F5811137C0B9
:1035A00080918000877F809380000E94BF1AA09145
:1035B0008600B09187002C2F30E00E94642726E01F
:1035C00030E040E050E00E94342789019A01809168
:1035D0008600909187006CE070E00E940C276017D5
:1035E0007107D8F0C80169E070E00E940C27709361
:1035F0008D0060938C00DF91CF911F910F91FF9010
:10360000EF90BF90AF909F908F900895C6E080910B
:103610008000886080938000CACF8091860090915E
:103620008700E0908600F0908700E0918600F0919E
:103630008700C6E0D0E0BE010E940C27060F171FCE
:10364000211D311D4801590185E0880C991CAA1CD7
:10365000BB1C8A95D1F7C701BE010E940C279F01B0
:1036600050E040E0260F371F411D511DC501B40138
:103670000E94342749015A01E0918600F0918700A9
:10368000CA01B9010E94E2269B01AC01DF010E9440
:103690007A279B01AC01C501B4010E94E2262FE00C
:1036A00096958795779567952A95D1F7009186002D
:1036B0001091870030E020E0061717072807390728
:1036C00008F095CF609186007091870090CF0895A3
:1036D0000E94BC1A8AE08093800089E18093810077
:1036E0008FEF9FEF90938700809386000E94B81918
:1036F0000895879A41B34F7751B35068EFB7F89464
:103700009B01220F331F260F371F280F391F281741
:10371000390741F4EFBF8FE594E00197F1F700C05E
:1037200000000895DC016D91CD0178E051BB0000EF
:1037300000C067FF41BB660F000000C000C000C0B2
:1037400041BB00C07A9591F7E2CFCF93DF93EC01B4
:10375000FB018281882309F4D2C09E0130572332B5
:10376000310508F0B2C00E94510D9093FC02809385
:10377000FB02FE01E150F047E232F10520F4E35391
:10378000F74D0C9456278091FB0281608093FB02D9
:1037900093C08091FC0288608093FC028DC0809170
:1037A000FB028260F3CF8091FB028460EFCF8091B7
:1037B000FB028860EBCF8091FC028160EDCF8091AD
:1037C000FC028260E9CF8091FB028061DFCF8091B3
:1037D000FB028062DBCF8091FB028064D7CF0E9426
:1037E000D6078091FB028068D1CF8091FB028C606C
:1037F000CDCF8091FC028360CFCF8091FB028E7F82
:10380000C5CF8091FC02877FC7CF8091FB028D7F5F
:10381000BDCF8091FB028B7FB9CF8091FB02877F68
:10382000B5CF8091FC028E7FB7CF8091FC028D7F57
:10383000B3CF8091FB028F7EA9CF8091FB028F7D59
:10384000A5CF8091FB028F7BA1CF0E94D6078091EC
:10385000FB028F779BCF8091FB02837F97CF809174
:10386000FC028C7F99CF8091FB0282FB992790F913
:1038700021E0922790FB82F990FB83F987CF80911A
:10388000FC02982F909591708E7F892B90FB81F987
:1038900083CF9091FB02892F8F7B96FF806476CF38
:1038A0000E94D6079091FB02892F97FB87F98058D9
:1038B0006DCF81E00E94CE0D8091FB029091FC02C1
:1038C0000E94560D0E94D60780E0DF91CF910895A7
:1038D00080E0F0CF9091FB02892F8F7E94FF806172
:1038E00055CF9091FB02892F8E7F90FF81604ECF44
:1038F0009091FC02892F877F93FF88604DCF81E0F4
:10390000E4CFEBEFE80FEF3308F066C0F0E0E151F1
:10391000F74D0C9456270E94CB0D81E008958091BD
:103920008A02807F80938A0281E08093CC0208958E
:103930000E948A03F2CF90918A02892F8E7F90FF96
:10394000816080938A0280FDE8CF817F80938A0224
:10395000E4CF90918A02892F8D7F91FF82608093BE
:103960008A0281FFDACF80918A028160EFCF909145
:103970008A02892F8B7F92FF846080938A0282FD66
:10398000F2CFCBCF90918A02892F877F93FF8860F7
:1039900080938A0283FDE7CFC0CF0E94D607909123
:1039A000FB02892F97FB87F980588093FB02B5CFE4
:1039B00081E090E00E9429080E94D607AECF89538B
:1039C00021E030E0A90102C0440F551F8A95E2F7BB
:1039D000CA01F0CF8D51F4CF80E0089580E00895C2
:1039E0000E94EE1C0895CF93C82F8091CC028823AB
:1039F00031F0813099F01092CC0280E00DC00E942D
:103A00004E0C8232D1F78C2F0E94EE1C811116C011
:103A10008C2F0E94811C8170CF9108950E944E0CC2
:103A2000823289F38C2F0E94F01C811105C0C431B1
:103A300071F038F4CB3079F781E0EDCF81E090E0A0
:103A4000EACFC93221F0C833B9F380E0E4CF109255
:103A5000CC02FBCFCF93DF93EB0186319C4711F56E
:103A60000E944E0C9A81992399F08A7A91E009F488
:103A700090E09093CD02811109C089E20E94260C4A
:103A80000E948F0C80E0DF91CF91089585E3F6CFFF
:103A90008091CD02811104C089E20E942E0CF0CFEA
:103AA00085E3FBCF81E0EFCF0F931F93CF93DF939D
:103AB000C42FD22FFC0182818823C9F04093D00209
:103AC0000E94DF1F9093CF028093CE0280E28C0F82
:103AD000883040F4C77081E001C0880FCA95EAF7CA
:103AE0000E948205DF91CF911F910F91089510914F
:103AF000D002141332C08091CE029091CF020E9466
:103B0000F71F883C910548F5C0E2CD0F1D17B9F0AD
:103B100080E2810F883040F4177081E001C0880F87
:103B20001A95EAF70E948905C83048F481E09D2F74
:103B3000977001C0880F9A95EAF70E948205802F3E
:103B40000E947905C83070F6D77081E001C0880FF7
:103B5000DA95EAF70E948905C5CF80E28C0F88309C
:103B600008F6C77081E001C0880FCA95EAF7F2CF66
:103B70000F93DB0188519C4787309105A0F5FC012C
:103B8000E25DF64D0C94562706E221EE41EE6AE125
:103B90007CE7CD010E94541D80E00F91089507E25B
:103BA00025EE45EE6BE17CE7F4CF06E221EE40EE38
:103BB00068E17CE7EECF07E225EE44EE69E17CE7C1
:103BC000E8CF06E221EE42EE6CE17CE7E2CF07E2CD
:103BD00025EE46EE6DE17CE7DCCF08E221E045EE24
:103BE0006EE17CE7D6CF12968C91882319F0109263
:103BF000D002D3CF81E0D1CF9093CB018093CA0183
:103C000008959093D6028093D5020895E091D5024D
:103C1000F091D602309729F00190F081E02D0995BE
:103C2000089580E00895E091D502F091D602309792
:103C300099F020912101222359F02091FB0227FFC6
:103C400007C0DC012C9111962C93119726E02C9340
:103C50000280F381E02D09950895A3E0B0E0E3E34D
:103C6000FEE10C949D272091D3023091D4022817B5
:103C70003907A1F09093D4028093D302E091D5024A
:103C8000F091D602309751F023E029839B838A83F9
:103C90000680F781E02DCE01019609952396E2E09A
:103CA0000C94B927A3E0B0E0E8E5FEE10C949D2771
:103CB0002091D1023091D20228173907A1F09093B8
:103CC000D2028093D102E091D502F091D6023097D2
:103CD00051F024E029839B838A830680F781E02DBD
:103CE000CE01019609952396E2E00C94B927FC01D8
:103CF000329680912101882321F08091FB029EE180
:103D000087FF96E080E0915008F4089521912223E6
:103D1000D1F38F5FF8CF662301F120912101222397
:103D2000F1F02091FB0227FF1AC0462F46954695D9
:103D300046954E3190F4677021E030E002C0220FCA
:103D4000331F6A95E2F7840F911DFC01828190E098
:103D50002823392381E0232B69F480E00895FC01B6
:103D6000329608962191261721F0E817F907D1F726
:103D7000F4CF81E008959C01FC0132969FEF80E032
:103D80004191461751F09F3F19F4411101C0982FFE
:103D90008F5F8630A9F79F3F09F40895290F311DE1
:103DA00097FD3A95F90162830895FC0132960896D1
:103DB0002191261303C0DF0111971C92E817F90720
:103DC000B9F70895E62FE695E695E695EE3168F4A5
:103DD000E80FF92FF11D677021E030E001C0220FDC
:103DE0006A95EAF78281822B82830895E62FE69511
:103DF000E695E695EE3170F4E80FF92FF11D677046
:103E000021E030E001C0220F6A95EAF72095828117
:103E100028232283089520912101222339F0209123
:103E2000FB0227FF03C00E94E21E08950E94BB1EF2
:103E3000089520912101222339F02091FB0227FFD0
:103E400003C00E94F61E08950E94D51E0895FC012D
:103E5000329680912101882351F08091FB0287FFE7
:103E600006C08EE1DF011D928A95E9F7089586E08C
:103E7000F9CF08950E94391F0895811106C081E08D
:103E80008093D7020E943A1F089582E0F9CF83E021
:103E90008093D7020E943A1F08950E943D1F089503
:103EA00081E08093D7020E943A1F08950E94501F1C
:103EB0000895089508950E945A1F08950895089539
:103EC0000E94591F0895CF930E945E1F0E94A8115F
:103ED0000E945F1FC0E08C2F0E94CC10892B31F410
:103EE000CF5FC530C1F780E0CF91089581E0FCCF6E
:103EF00085B7806885BF85B7806885BF08951F92A4
:103F00001FB61F9211248F939F93AF93BF938091FD
:103F1000D802811113C08091350390913603A0918E
:103F20003703B09138034196A11DB11D809335032D
:103F300090933603A0933703B0933803BF91AF91AA
:103F40009F918F911F901FBE1F90189580913D03E8
:103F5000843031F10E94F6031092D80288E190E09B
:103F600020E40FB6F894A895809360000FBE2093CC
:103F7000600083B7817F846083BF83B7816083BF24
:103F80007894889583B78E7F83BF0FB6F894A895F1
:103F900080916000886180936000109260000FBE85
:103FA00008950E94D6070E94FE03089582E084BD12
:103FB00093E095BD9AEF97BD80936E0008952FB75B
:103FC000F8948091350390913603A0913703B09116
:103FD00038032FBF08952FB7F8946091350370917F
:103FE000360380913703909138032FBF08959C01C9
:103FF0004FB7F8948091350390913603A091370321
:10400000B09138034FBF821B930B089578941F9291
:104010001FB61F9211248F939F93AF93BF938091EC
:10402000350390913603A0913703B0913803019680
:10403000A11DB11D8093350390933603A0933703E0
:10404000B0933803BF91AF919F918F911F901FBE86
:104050001F90189581E08093E00080E28093D80063
:104060001092C9008FE19EE40197F1F700C00000B3
:1040700087E090EBDC018093460390934703A09385
:104080004803B093490388E19CE00FB6F894A895E3
:10409000809360000FBE90936000FFCF88E19CE0AA
:1040A0000FB6F894A895809360000FBE90936000BF
:1040B000FFCF8091F902089508959B01BA01909174
:1040C0003D039430E9F48F708093E9009FEF809175
:1040D000E800915085FD06C085ED8A95F1F7000056
:1040E0009111F5CF8091E80085FF0AC050E040E0D3
:1040F000C9010E945B228091E8008E778093E800DE
:10410000089543E050E0BC0182E00E945D200895E4
:10411000CF93DF93EC0180912101811111C048E020
:1041200050E0BE0181E00E945D2080E2FE01A9ED29
:10413000B2E001900D928A95E1F7DF91CF91089559
:104140008091FB0287FF05C040E282E050E0BE01A3
:10415000EACF48E081E0FACF80913C03811109C0A9
:104160000E94EB230E9448248091E20084608093A7
:10417000E200089510923C0308950E94501F089594
:104180006091390381E0611101C080E00E94471F06
:10419000089590913D0381E0943009F080E06091B2
:1041A00039030E944D1F089542E061EC81E00E94B6
:1041B000672342E261EC82E00E94672390913D0315
:1041C00081E0943009F080E0609139030E943D1F46
:1041D000089580913F03833009F461C030F4813049
:1041E000D1F1823009F49EC008958A3009F48AC062
:1041F0008B3009F46FC0893009F050C080913E03C4
:10420000813209F04BC080914203909143030297A1
:1042100008F044C08091E800877F8093E800809197
:10422000E80082FF37C09091F3008091F20002977E
:1042300031F48091F100813011F0863021F48091C9
:10424000F1008093F9028091E8008B778093E80079
:104250000E949B2323C080913E03813AF9F4809110
:10426000E800877F8093E8008091420390914303A8
:10427000892B61F460E289ED92E070E00E94AA224D
:104280008091E8008B778093E800089560E090E0EB
:1042900080E0F3CF80913D038111C1CF08958091DB
:1042A0003E03813AD9F78091420390914303892BD1
:1042B000A9F78091E800877F8093E8008091E8006B
:1042C00080FFFCCF809121018093F1008091E80074
:1042D0008E77BCCF80913E03813201F780914203FB
:1042E00090914303892BD1F68091E800877F8093DA
:1042F000E8000E949B2380914003809321010E944B
:10430000D607089580913E03813241F68091E800FE
:10431000877F8093E8000E949B23809141038093D4
:10432000FA02089580913E03813A09F0B7CF809157
:10433000E800877F8093E8008091E80080FFFCCF51
:104340008091FA02C1CF84B7877F84BF0FB6F894FB
:10435000A895809160008861809360001092600051
:104360000FBE80E890E00FB6F894809361009093C0
:1043700061000FBE0E94561F08950E94EB230E9409
:104380004824E2EEF0E080818460808378940E948B
:10439000C726089589E191E00E94011E0895809149
:1043A0003D03853031F480913D03853019F00E9442
:1043B000D11F08950E94A61F80913B03882399F383
:1043C0000E94631F882379F30E9445220E94D6072A
:1043D000EACF08950E94ED210895292F3327233035
:1043E000310519F168F42130310509F444C0223057
:1043F000310509F445C090E080E030E020E025C0C0
:104400002132310549F122323105A9F780E490E0EB
:104410002AE535E061157105C1F08DE690E02DEEDD
:1044200034E06130710589F0E6CF9927813091053C
:1044300081F0009729F00297F1F6EAE6F4E002C075
:10444000ECE9F4E0849190E09F01FA01318320834C
:104450000895ECE7F4E0F6CF89E090E022EB34E059
:104460006115710591F389E090E02BEC34E0613047
:10447000710559F3C0CF82E190E02BED34E0E5CF38
:104480008BE390E020EA34E0E0CF80E189BD82E177
:1044900089BD09B400FEFDCF8091D8008F7D809347
:1044A000D8008091E00082608093E0008091E0007D
:1044B00081FDFCCF0895AF92BF92CF92DF92FF9221
:1044C0000F931F93CF93DF936C01EB018A010E943E
:1044D000BA23F82E811123C00115110539F0F80116
:1044E00080819181C81BD90BC80ED91EB12CA12C7B
:1044F0002097A9F08091E80085FD22C08091E80016
:104500008E778093E80001151105A1F0F8018081F4
:104510009181A80EB91EB182A08285E0F82E8F2D60
:10452000DF91CF911F910F91FF90DF90CF90BF90BF
:10453000AF9008950E94BA238823D1F2F82EEFCFCE
:10454000F60181916F018093F1002197FFEFAF1A7F
:10455000BF0ACECFFC01809144039091450386179A
:104560009707A0F06115710529F49091E8009E77F6
:104570009093E80090E06115710551F4911108C025
:104580008091E80082FF34C080E00895BC01F2CF42
:1045900080913D038823C1F18530C1F18091E8000D
:1045A00083FD30C08091E80082FDEACF8091E80071
:1045B00080FFE1CF8091F3002091F200382F611548
:1045C000710519F02830310558F091E02830310597
:1045D00009F090E02091E8002E772093E800CBCFFF
:1045E00081918093F100615071092F5F3F4FE7CFB8
:1045F00080913D03882341F0853041F08091E800AF
:1046000083FFBECF81E0089582E0089583E008959E
:10461000FC01809144039091450386179707A0F011
:104620006115710529F48091E8008E778093E80088
:1046300090E06115710551F4911108C08091E80076
:1046400082FF35C080E00895BC01F2CF80913D0328
:104650008823C9F18530C9F18091E80083FD31C01C
:104660008091E80082FDEACF8091E80080FFE1CFF1
:104670008091F3002091F200382F6115710519F037
:104680002830310558F091E02830310509F090E0EC
:104690008091E8008E778093E800CBCF849180935F
:1046A000F1003196615071092F5F3F4FE6CF809145
:1046B0003D03882341F0853041F08091E80083FF7D
:1046C000BDCF81E0089582E0089583E00895982F9A
:1046D000973028F08F708093E90081E008959093DF
:1046E000E900242F762F50E0981731F07091EC00FC
:1046F0002091ED005091F00021FD02C09F5FE8CFB6
:104700003091EB003E7F3093EB003091ED003D7F28
:104710003093ED003091EB0031603093EB007093FB
:10472000EC002093ED005093F0002091EE0027FD67
:10473000E5CF80E0089580913E0387FF13C080910C
:10474000E80082FF06C08091E8008B778093E80044
:1047500004C080913D038111F2CF089580913D0303
:104760008823D9F38091E80080FFF8CF8091E8009A
:104770008E77ECCF2091E4003091E50095E6A90119
:104780002091EC00822F817020FF06C08091E8000C
:1047900080FF06C080E008952091E80022FD1AC045
:1047A00080913D03882389F0853089F08091EB006A
:1047B00085FD0FC02091E4003091E50042175307BA
:1047C000F9F29150E1F684E0089582E0089583E0E3
:1047D000089581E008950E945A240E946224E0EE28
:1047E000F0E0808181608083E8EDF0E080818F7768
:1047F000808319BCA7EDB0E08C918E7F8C93808173
:104800008F7E808310923C0308950F931F93CF9364
:10481000DF930E945A240E946224C8EDD0E0888170
:104820008F77888388818068888388818F7D88835B
:1048300019BC10923D031092390310923B03109261
:104840003A0300EE10E0F80180818B7F808388813D
:104850008160888342E060E080E00E946723E1EEAF
:10486000F0E080818E7F8083E2EEF0E080818160E5
:104870008083808188608083F80180818E7F80833F
:10488000888180618883DF91CF911F910F91089576
:10489000E8EDF0E080818F7E8083E7EDF0E08081BD
:1048A0008160808384E082BF81E080933C030E942A
:1048B00005240895E8EDF0E080818E7F80831092DA
:1048C000E20008951092DA001092E10008951F921C
:1048D0000F920FB60F9211242F933F934F935F9334
:1048E0006F937F938F939F93AF93BF93EF93FF93B8
:1048F0008091E10082FF0BC08091E20082FF07C03F
:104900008091E1008B7F8093E1000E94C626809118
:10491000DA0080FF19C08091D80080FF15C0809117
:10492000DA008E7F8093DA008091D90080FF96C0F4
:1049300080E189BD82E189BD09B400FEFDCF81E03F
:1049400080933D030E94AC208091E10080FF19C05C
:104950008091E20080FF15C08091E2008E7F8093FD
:10496000E2008091E20080618093E2008091D800B3
:1049700080628093D80019BC85E080933D030E943B
:10498000C0208091E10084FF2BC08091E20084FF71
:1049900027C080E189BD82E189BD89B5982F9170DA
:1049A00080FFFBCF8091D8008F7D8093D8008091CD
:1049B000E1008F7E8093E1008091E2008F7E809302
:1049C000E2008091E20081608093E20080913903EF
:1049D000882309F449C084E080933D030E94C920E4
:1049E0008091E10083FF29C08091E20083FF25C010
:1049F0008091E100877F8093E10082E080933D0316
:104A0000109239038091E1008E7F8093E1008091C4
:104A1000E2008E7F8093E2008091E20080618093CB
:104A2000E20042E060E080E00E9467238091F000B5
:104A300088608093F0000E94BD20FF91EF91BF91AC
:104A4000AF919F918F917F916F915F914F913F9126
:104A50002F910F900FBE0F901F90189519BC1092B8
:104A60003D030E94BA2070CF8091E30087FD93E060
:104A700090933D03B3CF1F920F920FB60F92112464
:104A80002F933F934F935F936F937F938F939F9356
:104A9000AF93BF93CF93DF93EF93FF93D091E90050
:104AA000DF708091EC00C82FC17080FDC0E81092CB
:104AB000E9008091F000877F8093F00078940E9455
:104AC0007F251092E9008091F00088608093F000CB
:104AD000CD2BCF70C093E900FF91EF91DF91CF9183
:104AE000BF91AF919F918F917F916F915F914F9106
:104AF0003F912F910F900FBE0F901F901895AAE233
:104B0000B0E0E5E8F5E20C949C278EE393E0209179
:104B1000F100FC012193CF01F3E086349F07B9F740
:104B20000E94E9208091E80083FF1EC180913E032E
:104B300090913F039A3008F017C1E92FF0E0EB5C49
:104B4000F64D0C945627803899F0823809F00CC144
:104B5000809142038F70873008F006C18093E9008E
:104B60008091EB0085FB882780F91092E90006C050
:104B700080913A0390913B03911182609091E800FB
:104B8000977F9093E8008093F1001092F10080915C
:104B9000E8008E77E5C0882309F4D3C0823009F09D
:104BA000E3C0809140038111D6C0809142038F7091
:104BB0002FEF280F263008F0D7C08093E90020910E
:104BC000EB0020FFC8C0933031F48091EB0080628D
:104BD0008093EB00C0C09091EB0090619093EB004C
:104BE00021E030E001C0220F8A95EAF72093EA0025
:104BF0001092EA008091EB008860EACF8111B4C086
:104C0000109140031F778091E3008078812B80937F
:104C1000E3008091E800877F8093E8000E949B2357
:104C20008091E80080FFFCCF8091E3008068809352
:104C3000E30082E0111183E080933D0395C080582A
:104C4000823008F091C080914003909141038C3DE7
:104C500023E09207A1F583E08A838AE289834FB734
:104C6000F894DE01139620E03EE051E2E32FF0E0FD
:104C700050935700E49120FF03C0E295EF703F5F2F
:104C8000EF708E2F90E0EA30C0F0C7968D939D9321
:104C90002F5F243159F74FBF8091E800877F8093C1
:104CA000E8006AE270E0CE0101960E94AA2280919B
:104CB000E8008B778093E80057C0C096E7CF6091FB
:104CC000420370914303AE014F5F5F4F0E94EA21A0
:104CD000BC01892B09F448C09091E800977F90931C
:104CE000E80089819A810E940823E1CF8038E1F5AC
:104CF0008091E800877F8093E8008091390380935A
:104D0000F10045CF811130C090914003923060F5A1
:104D10008091E800877F8093E800909339030E9498
:104D20009B2380913903882311F084E005C0809192
:104D3000E30087FDFACF81E080933D030E94D420F9
:104D400013C080914003813079F481E0933009F001
:104D500080E080933B031092E9008091E800877F18
:104D60008093E8000E949B238091E80083FF0AC0A3
:104D70008091E800877F8093E8008091EB0080625B
:104D80008093EB00AA96E3E00C94B8270895CF93A4
:104D900080913D038823A1F0C091E900CF709091EC
:104DA000EC00892F817090FD80E8C82B1092E900FB
:104DB0008091E80083FD0E947F25CF70C093E900B9
:104DC000CF910895DB018F939F930E947A27BF9123
:104DD000AF91A29F800D911DA39F900DB29F900D4A
:104DE00011240895991B79E004C0991F961708F0C3
:104DF000961B881F7A95C9F78095089587FB082E22
:104E0000062687FD819567FD61950E94F2260EF4C6
:104E1000919507FC81950895AA1BBB1B51E107C022
:104E2000AA1FBB1FA617B70710F0A61BB70B881F3A
:104E3000991F5A95A9F780959095BC01CD010895C9
:104E400097FB072E16F4009407D077FD09D00E9437
:104E50000C2707FC05D03EF4909581959F4F08954F
:104E6000709561957F4F0895A1E21A2EAA1BBB1B76
:104E7000FD010DC0AA1FBB1FEE1FFF1FA217B30726
:104E8000E407F50720F0A21BB30BE40BF50B661F3C
:104E9000771F881F991F1A9469F760957095809500
:104EA00090959B01AC01BD01CF010895EE0FFF1F4E
:104EB0000590F491E02D09940E946427332312F4A5
:104EC0008A1B9B0B0C947527A29FB001B39FC00156
:104ED000A39F700D811D1124911DB29F700D811D26
:104EE0001124911D08950E946427B7FF0895821B25
:104EF000930B08950E946427A59F900DB49F900D79
:104F0000A49F800D911D11240895B7FF0C947A275A
:104F10000E947A27821B930B08952F923F924F9203
:104F20005F926F927F928F929F92AF92BF92CF9239
:104F3000DF92EF92FF920F931F93CF93DF93CDB742
:104F4000DEB7CA1BDB0B0FB6F894DEBF0FBECDBFBA
:104F500009942A88398848885F846E847D848C848B
:104F60009B84AA84B984C884DF80EE80FD800C8194
:104F70001B81AA81B981CE0FD11D0FB6F894DEBF77
:104F80000FBECDBFED0108958F929F92AF92BF9259
:104F9000CF92DF92EF92FF92CF93DF93EC01688183
:104FA00079818A819B81611571058105910521F4C3
:104FB00064E279ED8BE597E02DE133EF41E050E0DD
:104FC0000E948B2849015A019B01AC01A7EAB1E478
:104FD0000E947A276B017C01ACEEB4EFA50194012D
:104FE0000E948827DC01CB018C0D9D1DAE1DBF1DCD
:104FF000B7FF03C00197A109B04888839983AA83AA
:10500000BB839F77DF91CF91FF90EF90DF90CF90A0
:10501000BF90AF909F908F9008950E94C4270895ED
:1050200080E091E00E94C4270895B0E0A0E0809362
:10503000000190930101A0930201B0930301089530
:10504000FC014150504030F001900616D1F73197E5
:10505000CF010895882799270895FB01DC0104C03A
:105060008D910190801921F441505040C8F7881B60
:10507000990B0895FB01DC0102C001900D92415093
:105080005040D8F70895F999FECF92BD81BDF89AA6
:10509000992780B50895A6E1B0E044E050E00C9473
:1050A0007D28A8E1B0E042E050E00C947D28262F56
:1050B000F999FECF92BD81BDF89A019700B402160E
:1050C00039F01FBA20BD0FB6F894FA9AF99A0FBEBC
:1050D00008950396272F0E9458280E945728252FAD
:1050E0000E945828242F0C9458280196272F0E949C
:1050F00058280C945728DC01CB01FC01F999FECF0C
:1051000006C0F2BDE1BDF89A319600B40D9241504F
:105110005040B8F70895052E97FB1EF400940E94A6
:10512000A22857FD07D00E94342707FC03D04EF475
:105130000C94A22850954095309521953F4F4F4FA4
:105140005F4F089590958095709561957F4F8F4F33
:105150009F4F0895F894FFCFCB05CB05FC05FC05C8
:105160008E062B062B062B06AA061B072A072A07E4
:1051700048194F1956195B19601965196A196F1981
:10518000741979197E19831987198C198F19921935
:10519000951998199A199D199F19FD1B711C051CC9
:1051A000CF1BD31B091CD71B0D1C191CE31B6A1C2E
:1051B000E71B1D1CEB1B211C491CEF1B251C501C55
:1051C000F51B2B1C331CDB1B111CDF1B151CF91BD7
:1051D0002F1C3F1C591C681CC91B011C781C981CE7
:1051E0008F1C9B1C8D1CEC1CEC1C8D1CEC1CEC1CEB
:1051F000B71CEC1CC21CCD1CEC1CEC1CEC1CEC1CED
:105200008D1CEC1CEC1C8D1CEC1CA91CEC1CEC1C5F
:10521000EA1CEA1CEA1CEA1CEA1CEA1CEA1CEA1C5E
:10522000EA1CD81CEC1C981C8B1CEC1CEC1CEC1C09
:10523000EC1CEC1CEC1CEC1CEC1CEC1CEC1CD81C42
:10524000EC1CEC1C8D1CEC1CDF1CDF1CDF1CDF1CB1
:10525000DF1CDF1CDF1CDF1CDF1CD81CD51DDB1D89
:10526000C41DCF1DE11DE71DED1DA325CB25B426D3
:0E527000CB25B426FE251F26B42676268226E0
:10527E00010000005402010102000A000A0A01198D
:10528E001A1B1C1D1E1F202122592088205C2081E4
:10529E002001E200E900EA00B500B600B700CD003B
:1052AE008301CC008A01920194012102230224027F
:1052BE002502260227022A02B300B4006F007000F6
:1052CE009F01CB01818283E200E900EA00B500B6BE
:1052DE0000B700CD008301CC008A01920194012118
:1052EE0002230224022502260227022A02B300B458
:1052FE00006F0070009F01CB01818283F0F1C667C1
:10530E006636943132353497963390919293950058
:10531E0001020202020606060909090909090F0F10
:10532E000F0F0F0F15151518191919191919191914
:0A533E00191923242525252525250E
:00000001FF
